{
  "contractName": "ClockAuction",
  "abi": [
    {
      "constant": true,
      "inputs": [],
      "name": "getNonFungibleContract",
      "outputs": [
        {
          "name": "",
          "type": "address"
        }
      ],
      "payable": false,
      "stateMutability": "view",
      "type": "function"
    },
    {
      "constant": false,
      "inputs": [],
      "name": "unpause",
      "outputs": [
        {
          "name": "",
          "type": "bool"
        }
      ],
      "payable": false,
      "stateMutability": "nonpayable",
      "type": "function"
    },
    {
      "constant": true,
      "inputs": [],
      "name": "paused",
      "outputs": [
        {
          "name": "",
          "type": "bool"
        }
      ],
      "payable": false,
      "stateMutability": "view",
      "type": "function"
    },
    {
      "constant": true,
      "inputs": [],
      "name": "ownerCut",
      "outputs": [
        {
          "name": "",
          "type": "uint256"
        }
      ],
      "payable": false,
      "stateMutability": "view",
      "type": "function"
    },
    {
      "constant": false,
      "inputs": [],
      "name": "pause",
      "outputs": [
        {
          "name": "",
          "type": "bool"
        }
      ],
      "payable": false,
      "stateMutability": "nonpayable",
      "type": "function"
    },
    {
      "constant": true,
      "inputs": [],
      "name": "owner",
      "outputs": [
        {
          "name": "",
          "type": "address"
        }
      ],
      "payable": false,
      "stateMutability": "view",
      "type": "function"
    },
    {
      "constant": true,
      "inputs": [],
      "name": "nonFungibleContract",
      "outputs": [
        {
          "name": "",
          "type": "address"
        }
      ],
      "payable": false,
      "stateMutability": "view",
      "type": "function"
    },
    {
      "constant": false,
      "inputs": [
        {
          "name": "newOwner",
          "type": "address"
        }
      ],
      "name": "transferOwnership",
      "outputs": [],
      "payable": false,
      "stateMutability": "nonpayable",
      "type": "function"
    },
    {
      "inputs": [
        {
          "name": "_nftAddress",
          "type": "address"
        },
        {
          "name": "_cut",
          "type": "uint256"
        }
      ],
      "payable": false,
      "stateMutability": "nonpayable",
      "type": "constructor"
    },
    {
      "anonymous": false,
      "inputs": [
        {
          "indexed": false,
          "name": "tokenId",
          "type": "uint256"
        },
        {
          "indexed": false,
          "name": "startingPrice",
          "type": "uint256"
        },
        {
          "indexed": false,
          "name": "endingPrice",
          "type": "uint256"
        },
        {
          "indexed": false,
          "name": "duration",
          "type": "uint256"
        }
      ],
      "name": "AuctionCreated",
      "type": "event"
    },
    {
      "anonymous": false,
      "inputs": [
        {
          "indexed": false,
          "name": "tokenId",
          "type": "uint256"
        },
        {
          "indexed": false,
          "name": "totalPrice",
          "type": "uint256"
        },
        {
          "indexed": false,
          "name": "winner",
          "type": "address"
        }
      ],
      "name": "AuctionSuccessful",
      "type": "event"
    },
    {
      "anonymous": false,
      "inputs": [
        {
          "indexed": false,
          "name": "tokenId",
          "type": "uint256"
        }
      ],
      "name": "AuctionCancelled",
      "type": "event"
    },
    {
      "anonymous": false,
      "inputs": [],
      "name": "Pause",
      "type": "event"
    },
    {
      "anonymous": false,
      "inputs": [],
      "name": "Unpause",
      "type": "event"
    },
    {
      "anonymous": false,
      "inputs": [
        {
          "indexed": true,
          "name": "previousOwner",
          "type": "address"
        },
        {
          "indexed": true,
          "name": "newOwner",
          "type": "address"
        }
      ],
      "name": "OwnershipTransferred",
      "type": "event"
    },
    {
      "constant": false,
      "inputs": [],
      "name": "withdrawBalance",
      "outputs": [],
      "payable": false,
      "stateMutability": "nonpayable",
      "type": "function"
    },
    {
      "constant": false,
      "inputs": [
        {
          "name": "_tokenId",
          "type": "uint256"
        },
        {
          "name": "_startingPrice",
          "type": "uint256"
        },
        {
          "name": "_endingPrice",
          "type": "uint256"
        },
        {
          "name": "_duration",
          "type": "uint256"
        },
        {
          "name": "_seller",
          "type": "address"
        }
      ],
      "name": "createAuction",
      "outputs": [],
      "payable": false,
      "stateMutability": "nonpayable",
      "type": "function"
    },
    {
      "constant": false,
      "inputs": [
        {
          "name": "_tokenId",
          "type": "uint256"
        }
      ],
      "name": "bid",
      "outputs": [],
      "payable": true,
      "stateMutability": "payable",
      "type": "function"
    },
    {
      "constant": false,
      "inputs": [
        {
          "name": "_tokenId",
          "type": "uint256"
        }
      ],
      "name": "cancelAuction",
      "outputs": [],
      "payable": false,
      "stateMutability": "nonpayable",
      "type": "function"
    },
    {
      "constant": false,
      "inputs": [
        {
          "name": "_tokenId",
          "type": "uint256"
        }
      ],
      "name": "cancelAuctionWhenPaused",
      "outputs": [],
      "payable": false,
      "stateMutability": "nonpayable",
      "type": "function"
    },
    {
      "constant": true,
      "inputs": [
        {
          "name": "_tokenId",
          "type": "uint256"
        }
      ],
      "name": "getAuction",
      "outputs": [
        {
          "name": "seller",
          "type": "address"
        },
        {
          "name": "startingPrice",
          "type": "uint256"
        },
        {
          "name": "endingPrice",
          "type": "uint256"
        },
        {
          "name": "duration",
          "type": "uint256"
        },
        {
          "name": "startedAt",
          "type": "uint256"
        }
      ],
      "payable": false,
      "stateMutability": "view",
      "type": "function"
    },
    {
      "constant": true,
      "inputs": [
        {
          "name": "_tokenId",
          "type": "uint256"
        }
      ],
      "name": "getCurrentPrice",
      "outputs": [
        {
          "name": "",
          "type": "uint256"
        }
      ],
      "payable": false,
      "stateMutability": "view",
      "type": "function"
    }
  ],
  "bytecode": "0x60606040526000805460a060020a60ff0219169055341561001f57600080fd5b604051604080610ed7833981016040528080519190602001805160008054600160a060020a03191633600160a060020a0316178155909250905061271082111561006857600080fd5b50600281905581600160a060020a0381166301ffc9a77f9a20483d000000000000000000000000000000000000000000000000000000006040517c010000000000000000000000000000000000000000000000000000000063ffffffff84160281527fffffffff000000000000000000000000000000000000000000000000000000009091166004820152602401602060405180830381600087803b151561010f57600080fd5b5af1151561011c57600080fd5b50505060405180519050151561013157600080fd5b60018054600160a060020a03909216600160a060020a03199092169190911790555050610d74806101636000396000f3006060604052600436106100c15763ffffffff60e060020a60003504166327ebe40a81146100c657806330496d5b146100f35780633f4ba83a14610122578063454a2ab3146101495780635c975abb146101545780635fd8c7101461016757806378bd79351461017a57806383b5ff8b146101cb5780638456cb59146101f0578063878eb368146102035780638da5cb5b1461021957806396b5a7551461022c578063c55d0f5614610242578063dd1b7a0f14610258578063f2fde38b1461026b575b600080fd5b34156100d157600080fd5b6100f1600435602435604435606435600160a060020a036084351661028a565b005b34156100fe57600080fd5b610106610373565b604051600160a060020a03909116815260200160405180910390f35b341561012d57600080fd5b610135610382565b604051901515815260200160405180910390f35b6100f1600435610406565b341561015f57600080fd5b610135610435565b341561017257600080fd5b6100f1610445565b341561018557600080fd5b6101906004356104bb565b604051600160a060020a03909516855260208501939093526040808501929092526060840152608083019190915260a0909101905180910390f35b34156101d657600080fd5b6101de610548565b60405190815260200160405180910390f35b34156101fb57600080fd5b61013561054e565b341561020e57600080fd5b6100f16004356105d7565b341561022457600080fd5b610106610648565b341561023757600080fd5b6100f1600435610657565b341561024d57600080fd5b6101de6004356106a5565b341561026357600080fd5b6101066106d7565b341561027657600080fd5b6100f1600160a060020a03600435166106e6565b610292610d1a565b60005460a060020a900460ff16156102a957600080fd5b6001608060020a03851685146102be57600080fd5b6001608060020a03841684146102d357600080fd5b67ffffffffffffffff831683146102e957600080fd5b6102f33387610781565b15156102fe57600080fd5b61030833876107f9565b60a06040519081016040528083600160a060020a03168152602001866001608060020a03168152602001856001608060020a031681526020018467ffffffffffffffff1681526020014267ffffffffffffffff16815250905061036b8682610870565b505050505050565b600154600160a060020a031690565b6000805433600160a060020a0390811691161461039e57600080fd5b60005460a060020a900460ff1615156103b657600080fd5b6000805474ff0000000000000000000000000000000000000000191690557f7805862f689e2f13df9f062ff482ad3ad112aca9e0847911ed832e158c525b3360405160405180910390a150600190565b60005460a060020a900460ff161561041d57600080fd5b6104278134610a0b565b506104323382610b3c565b50565b60005460a060020a900460ff1681565b60015460008054600160a060020a03928316923381169116148061047a575081600160a060020a031633600160a060020a0316145b151561048557600080fd5b81600160a060020a03166108fc30600160a060020a0316319081150290604051600060405180830381858888f150505050505050565b600081815260036020526040812081908190819081906104da81610b92565b15156104e557600080fd5b80546001820154600290920154600160a060020a03909116986001608060020a038084169950700100000000000000000000000000000000909304909216965067ffffffffffffffff808216965068010000000000000000909104169350915050565b60025481565b6000805433600160a060020a0390811691161461056a57600080fd5b60005460a060020a900460ff161561058157600080fd5b6000805474ff0000000000000000000000000000000000000000191660a060020a1790557f6985a02210a168e66602d3235cb6db0e70f92b3ba4d376a33c0f3d9434bff62560405160405180910390a150600190565b6000805460a060020a900460ff1615156105f057600080fd5b60005433600160a060020a0390811691161461060b57600080fd5b50600081815260036020526040902061062381610b92565b151561062e57600080fd5b8054610644908390600160a060020a0316610bb3565b5050565b600054600160a060020a031681565b60008181526003602052604081209061066f82610b92565b151561067a57600080fd5b508054600160a060020a03908116903316811461069657600080fd5b6106a08382610bb3565b505050565b60008181526003602052604081206106bc81610b92565b15156106c757600080fd5b6106d081610bfd565b9392505050565b600154600160a060020a031681565b60005433600160a060020a0390811691161461070157600080fd5b600160a060020a038116151561071657600080fd5b600054600160a060020a0380831691167f8be0079c531659141344cd1fd0a4f28419497f9722a3daafe3b4186f6b6457e060405160405180910390a36000805473ffffffffffffffffffffffffffffffffffffffff1916600160a060020a0392909216919091179055565b600154600090600160a060020a038085169116636352211e8460405160e060020a63ffffffff84160281526004810191909152602401602060405180830381600087803b15156107d057600080fd5b5af115156107dd57600080fd5b50505060405180519050600160a060020a031614905092915050565b600154600160a060020a03166323b872dd83308460405160e060020a63ffffffff8616028152600160a060020a0393841660048201529190921660248201526044810191909152606401600060405180830381600087803b151561085c57600080fd5b5af1151561086957600080fd5b5050505050565b603c816060015167ffffffffffffffff16101561088c57600080fd5b600082815260036020526040902081908151815473ffffffffffffffffffffffffffffffffffffffff1916600160a060020a039190911617815560208201516001820180546fffffffffffffffffffffffffffffffff19166001608060020a039290921691909117905560408201516001820180546001608060020a03928316700100000000000000000000000000000000029216919091179055606082015160028201805467ffffffffffffffff191667ffffffffffffffff9290921691909117905560808201516002909101805467ffffffffffffffff9290921668010000000000000000026fffffffffffffffff000000000000000019909216919091179055507fa9c8dfcda5664a5a124c713e386da27de87432d5b668e79458501eb296389ba78260208301516001608060020a031683604001516001608060020a0316846060015167ffffffffffffffff166040518085815260200184815260200183815260200182815260200194505050505060405180910390a15050565b60008281526003602052604081208180808080610a2786610b92565b1515610a3257600080fd5b610a3b86610bfd565b945084881015610a4a57600080fd5b8554600160a060020a03169350610a6089610c84565b6000851115610aaa57610a7285610cd1565b92508285039150600160a060020a03841682156108fc0283604051600060405180830381858888f193505050501515610aaa57600080fd5b50838703600160a060020a03331681156108fc0282604051600060405180830381858888f193505050501515610adf57600080fd5b7f4fcc30d90a842164dd58501ab874a101a3749c3d4747139cefe7c876f4ccebd28986336040519283526020830191909152600160a060020a03166040808301919091526060909101905180910390a15092979650505050505050565b600154600160a060020a031663a9059cbb838360405160e060020a63ffffffff8516028152600160a060020a0390921660048301526024820152604401600060405180830381600087803b151561085c57600080fd5b6002015460006801000000000000000090910467ffffffffffffffff161190565b610bbc82610c84565b610bc68183610b3c565b7f2809c7e17bf978fbc7194c0a694b638c4215e9140cacc6c38ca36010b45697df8260405190815260200160405180910390a15050565b6002810154600090819068010000000000000000900467ffffffffffffffff16421115610c435750600282015468010000000000000000900467ffffffffffffffff1642035b600183015460028401546106d0916001608060020a0380821692700100000000000000000000000000000000909204169067ffffffffffffffff1684610cdd565b6000908152600360205260408120805473ffffffffffffffffffffffffffffffffffffffff19168155600181019190915560020180546fffffffffffffffffffffffffffffffff19169055565b60025461271091020490565b6000808080858510610cf157869350610d0f565b878703925085858402811515610d0357fe5b05915081880190508093505b505050949350505050565b60a06040519081016040908152600080835260208301819052908201819052606082018190526080820152905600a165627a7a723058206fa3f24531e5b647d4ee43a6a2918e65d767a885b04242041ad3433dd28d25980029",
  "source": "pragma solidity ^0.4.20;\n\nimport \"./Pausable.sol\";\nimport \"./ERC721.sol\";\n\n/// @title Auction Core\n/// @dev Contains models, variables, and internal methods for the auction.\n/// @notice We omit a fallback function to prevent accidental sends to this contract.\ncontract ClockAuctionBase {\n\n    // Represents an auction on an NFT\n    struct Auction {\n        // Current owner of NFT\n        address seller;\n        // Price (in wei) at beginning of auction\n        uint128 startingPrice;\n        // Price (in wei) at end of auction\n        uint128 endingPrice;\n        // Duration (in seconds) of auction\n        uint64 duration;\n        // Time when auction started\n        // NOTE: 0 if this auction has been concluded\n        uint64 startedAt;\n    }\n\n    // Reference to contract tracking NFT ownership\n    ERC721 public nonFungibleContract;\n\n    // Cut owner takes on each auction, measured in basis points (1/100 of a percent).\n    // Values 0-10,000 map to 0%-100%\n    uint256 public ownerCut;\n\n    // Map from token ID to their corresponding auction.\n    mapping (uint256 => Auction) tokenIdToAuction;\n\n    event AuctionCreated(uint256 tokenId, uint256 startingPrice, uint256 endingPrice, uint256 duration);\n    event AuctionSuccessful(uint256 tokenId, uint256 totalPrice, address winner);\n    event AuctionCancelled(uint256 tokenId);\n\n    /// @dev Returns true if the claimant owns the token.\n    /// @param _claimant - Address claiming to own the token.\n    /// @param _tokenId - ID of token whose ownership to verify.\n    function _owns(address _claimant, uint256 _tokenId) internal view returns (bool) {\n        return (nonFungibleContract.ownerOf(_tokenId) == _claimant);\n    }\n\n    function getNonFungibleContract() external view returns(address) {\n        return address(nonFungibleContract);\n    }\n\n    /// @dev Escrows the NFT, assigning ownership to this contract.\n    /// Throws if the escrow fails.\n    /// @param _owner - Current owner address of token to escrow.\n    /// @param _tokenId - ID of token whose approval to verify.\n    function _escrow(address _owner, uint256 _tokenId) internal {\n        // it will throw if transfer fails\n        nonFungibleContract.transferFrom(_owner, this, _tokenId);\n    }\n\n    /// @dev Transfers an NFT owned by this contract to another address.\n    /// Returns true if the transfer succeeds.\n    /// @param _receiver - Address to transfer NFT to.\n    /// @param _tokenId - ID of token to transfer.\n    function _transfer(address _receiver, uint256 _tokenId) internal {\n        // it will throw if transfer fails\n        nonFungibleContract.transfer(_receiver, _tokenId);\n    }\n\n    /// @dev Adds an auction to the list of open auctions. Also fires the\n    ///  AuctionCreated event.\n    /// @param _tokenId The ID of the token to be put on auction.\n    /// @param _auction Auction to add.\n    function _addAuction(uint256 _tokenId, Auction _auction) internal {\n        // Require that all auctions have a duration of\n        // at least one minute. (Keeps our math from getting hairy!)\n        require(_auction.duration >= 1 minutes);\n\n        tokenIdToAuction[_tokenId] = _auction;\n\n        emit AuctionCreated(\n            uint256(_tokenId),\n            uint256(_auction.startingPrice),\n            uint256(_auction.endingPrice),\n            uint256(_auction.duration)\n        );\n    }\n\n    /// @dev Cancels an auction unconditionally.\n    function _cancelAuction(uint256 _tokenId, address _seller) internal {\n        _removeAuction(_tokenId);\n        _transfer(_seller, _tokenId);\n        emit AuctionCancelled(_tokenId);\n    }\n\n    /// @dev Computes the price and transfers winnings.\n    /// Does NOT transfer ownership of token.\n    function _bid(uint256 _tokenId, uint256 _bidAmount)\n        internal\n        returns (uint256)\n    {\n        // Get a reference to the auction struct\n        Auction storage auction = tokenIdToAuction[_tokenId];\n\n        // Explicitly check that this auction is currently live.\n        // (Because of how Ethereum mappings work, we can't just count\n        // on the lookup above failing. An invalid _tokenId will just\n        // return an auction object that is all zeros.)\n        require(_isOnAuction(auction));\n\n        // Check that the bid is greater than or equal to the current price\n        uint256 price = _currentPrice(auction);\n        require(_bidAmount >= price);\n\n        // Grab a reference to the seller before the auction struct\n        // gets deleted.\n        address seller = auction.seller;\n\n        // The bid is good! Remove the auction before sending the fees\n        // to the sender so we can't have a reentrancy attack.\n        _removeAuction(_tokenId);\n\n        // Transfer proceeds to seller (if there are any!)\n        if (price > 0) {\n            // Calculate the auctioneer's cut.\n            // (NOTE: _computeCut() is guaranteed to return a\n            // value <= price, so this subtraction can't go negative.)\n            uint256 auctioneerCut = _computeCut(price);\n            uint256 sellerProceeds = price - auctioneerCut;\n\n            // NOTE: Doing a transfer() in the middle of a complex\n            // method like this is generally discouraged because of\n            // reentrancy attacks and DoS attacks if the seller is\n            // a contract with an invalid fallback function. We explicitly\n            // guard against reentrancy attacks by removing the auction\n            // before calling transfer(), and the only thing the seller\n            // can DoS is the sale of their own asset! (And if it's an\n            // accident, they can call cancelAuction(). )\n            seller.transfer(sellerProceeds);\n        }\n\n        // Calculate any excess funds included with the bid. If the excess\n        // is anything worth worrying about, transfer it back to bidder.\n        // NOTE: We checked above that the bid amount is greater than or\n        // equal to the price so this cannot underflow.\n        uint256 bidExcess = _bidAmount - price;\n\n        // Return the funds. Similar to the previous transfer, this is\n        // not susceptible to a re-entry attack because the auction is\n        // removed before any transfers occur.\n        msg.sender.transfer(bidExcess);\n\n        // Tell the world!\n        emit AuctionSuccessful(_tokenId, price, msg.sender);\n\n        return price;\n    }\n\n    /// @dev Removes an auction from the list of open auctions.\n    /// @param _tokenId - ID of NFT on auction.\n    function _removeAuction(uint256 _tokenId) internal {\n        delete tokenIdToAuction[_tokenId];\n    }\n\n    /// @dev Returns true if the NFT is on auction.\n    /// @param _auction - Auction to check.\n    function _isOnAuction(Auction storage _auction) internal view returns (bool) {\n        return (_auction.startedAt > 0);\n    }\n\n    /// @dev Returns current price of an NFT on auction. Broken into two\n    ///  functions (this one, that computes the duration from the auction\n    ///  structure, and the other that does the price computation) so we\n    ///  can easily test that the price computation works correctly.\n    function _currentPrice(Auction storage _auction)\n        internal\n        view\n        returns (uint256)\n    {\n        uint256 secondsPassed = 0;\n\n        // A bit of insurance against negative values (or wraparound).\n        // Probably not necessary (since Ethereum guarnatees that the\n        // now variable doesn't ever go backwards).\n        if (now > _auction.startedAt) {\n            secondsPassed = now - _auction.startedAt;\n        }\n\n        return _computeCurrentPrice(\n            _auction.startingPrice,\n            _auction.endingPrice,\n            _auction.duration,\n            secondsPassed\n        );\n    }\n\n    /// @dev Computes the current price of an auction. Factored out\n    ///  from _currentPrice so we can run extensive unit tests.\n    ///  When testing, make this function public and turn on\n    ///  `Current price computation` test suite.\n    function _computeCurrentPrice(\n        uint256 _startingPrice,\n        uint256 _endingPrice,\n        uint256 _duration,\n        uint256 _secondsPassed\n    )\n        internal\n        pure\n        returns (uint256)\n    {\n        // NOTE: We don't use SafeMath (or similar) in this function because\n        //  all of our public functions carefully cap the maximum values for\n        //  time (at 64-bits) and currency (at 128-bits). _duration is\n        //  also known to be non-zero (see the require() statement in\n        //  _addAuction())\n        if (_secondsPassed >= _duration) {\n            // We've reached the end of the dynamic pricing portion\n            // of the auction, just return the end price.\n            return _endingPrice;\n        } else {\n            // Starting price can be higher than ending price (and often is!), so\n            // this delta can be negative.\n            int256 totalPriceChange = int256(_endingPrice) - int256(_startingPrice);\n\n            // This multiplication can't overflow, _secondsPassed will easily fit within\n            // 64-bits, and totalPriceChange will easily fit within 128-bits, their product\n            // will always fit within 256-bits.\n            int256 currentPriceChange = totalPriceChange * int256(_secondsPassed) / int256(_duration);\n\n            // currentPriceChange can be negative, but if so, will have a magnitude\n            // less that _startingPrice. Thus, this result will always end up positive.\n            int256 currentPrice = int256(_startingPrice) + currentPriceChange;\n\n            return uint256(currentPrice);\n        }\n    }\n\n    /// @dev Computes owner's cut of a sale.\n    /// @param _price - Sale price of NFT.\n    function _computeCut(uint256 _price) internal view returns (uint256) {\n        // NOTE: We don't use SafeMath (or similar) in this function because\n        //  all of our entry functions carefully cap the maximum values for\n        //  currency (at 128-bits), and ownerCut <= 10000 (see the require()\n        //  statement in the ClockAuction constructor). The result of this\n        //  function is always guaranteed to be <= _price.\n        return _price * ownerCut / 10000;\n    }\n\n}\n\n/// @title Clock auction for non-fungible tokens.\n/// @notice We omit a fallback function to prevent accidental sends to this contract.\ncontract ClockAuction is Pausable, ClockAuctionBase {\n\n    /// @dev The ERC-165 interface signature for ERC-721.\n    ///  Ref: https://github.com/ethereum/EIPs/issues/165\n    ///  Ref: https://github.com/ethereum/EIPs/issues/721\n    bytes4 constant InterfaceSignature_ERC721 = bytes4(0x9a20483d);\n\n    /// @dev Constructor creates a reference to the NFT ownership contract\n    ///  and verifies the owner cut is in the valid range.\n    /// @param _nftAddress - address of a deployed contract implementing\n    ///  the Nonfungible Interface.\n    /// @param _cut - percent cut the owner takes on each auction, must be\n    ///  between 0-10,000.\n    function ClockAuction(address _nftAddress, uint256 _cut) public {\n        require(_cut <= 10000);\n        ownerCut = _cut;\n\n        ERC721 candidateContract = ERC721(_nftAddress);\n        require(candidateContract.supportsInterface(InterfaceSignature_ERC721));\n        nonFungibleContract = candidateContract;\n    }\n\n    /// @dev Remove all Ether from the contract, which is the owner's cuts\n    ///  as well as any Ether sent directly to the contract address.\n    ///  Always transfers to the NFT contract, but can be called either by\n    ///  the owner or the NFT contract.\n    function withdrawBalance() external {\n        address nftAddress = address(nonFungibleContract);\n\n        require(\n            msg.sender == owner ||\n            msg.sender == nftAddress\n        );\n        // We are using this boolean method to make sure that even if one fails it will still work\n        bool res = nftAddress.send(this.balance);\n    }\n\n    /// @dev Creates and begins a new auction.\n    /// @param _tokenId - ID of token to auction, sender must be owner.\n    /// @param _startingPrice - Price of item (in wei) at beginning of auction.\n    /// @param _endingPrice - Price of item (in wei) at end of auction.\n    /// @param _duration - Length of time to move between starting\n    ///  price and ending price (in seconds).\n    /// @param _seller - Seller, if not the message sender\n    function createAuction(\n        uint256 _tokenId,\n        uint256 _startingPrice,\n        uint256 _endingPrice,\n        uint256 _duration,\n        address _seller\n    )\n        external\n        whenNotPaused\n    {\n        // Sanity check that no inputs overflow how many bits we've allocated\n        // to store them in the auction struct.\n        require(_startingPrice == uint256(uint128(_startingPrice)));\n        require(_endingPrice == uint256(uint128(_endingPrice)));\n        require(_duration == uint256(uint64(_duration)));\n\n        require(_owns(msg.sender, _tokenId));\n        _escrow(msg.sender, _tokenId);\n        Auction memory auction = Auction(\n            _seller,\n            uint128(_startingPrice),\n            uint128(_endingPrice),\n            uint64(_duration),\n            uint64(now)\n        );\n        _addAuction(_tokenId, auction);\n    }\n\n    /// @dev Bids on an open auction, completing the auction and transferring\n    ///  ownership of the NFT if enough Ether is supplied.\n    /// @param _tokenId - ID of token to bid on.\n    function bid(uint256 _tokenId)\n        external\n        payable\n        whenNotPaused\n    {\n        // _bid will throw if the bid or funds transfer fails\n        _bid(_tokenId, msg.value);\n        _transfer(msg.sender, _tokenId);\n    }\n\n    /// @dev Cancels an auction that hasn't been won yet.\n    ///  Returns the NFT to original owner.\n    /// @notice This is a state-modifying function that can\n    ///  be called while the contract is paused.\n    /// @param _tokenId - ID of token on auction\n    function cancelAuction(uint256 _tokenId)\n        external\n    {\n        Auction storage auction = tokenIdToAuction[_tokenId];\n        require(_isOnAuction(auction));\n        address seller = auction.seller;\n        require(msg.sender == seller);\n        _cancelAuction(_tokenId, seller);\n    }\n\n    /// @dev Cancels an auction when the contract is paused.\n    ///  Only the owner may do this, and NFTs are returned to\n    ///  the seller. This should only be used in emergencies.\n    /// @param _tokenId - ID of the NFT on auction to cancel.\n    function cancelAuctionWhenPaused(uint256 _tokenId)\n        whenPaused\n        onlyOwner\n        external\n    {\n        Auction storage auction = tokenIdToAuction[_tokenId];\n        require(_isOnAuction(auction));\n        _cancelAuction(_tokenId, auction.seller);\n    }\n\n    /// @dev Returns auction info for an NFT on auction.\n    /// @param _tokenId - ID of NFT on auction.\n    function getAuction(uint256 _tokenId)\n        external\n        view\n        returns\n    (\n        address seller,\n        uint256 startingPrice,\n        uint256 endingPrice,\n        uint256 duration,\n        uint256 startedAt\n    ) {\n        Auction storage auction = tokenIdToAuction[_tokenId];\n        require(_isOnAuction(auction));\n        return (\n            auction.seller,\n            auction.startingPrice,\n            auction.endingPrice,\n            auction.duration,\n            auction.startedAt\n        );\n    }\n\n    /// @dev Returns the current price of an auction.\n    /// @param _tokenId - ID of the token price we are checking.\n    function getCurrentPrice(uint256 _tokenId)\n        external\n        view\n        returns (uint256)\n    {\n        Auction storage auction = tokenIdToAuction[_tokenId];\n        require(_isOnAuction(auction));\n        return _currentPrice(auction);\n    }\n\n}",
  "sourcePath": "/Users/thomas/Code/Learn/truehodler/contracts/ClockAuction.sol",
  "compiler": {
    "name": "solc",
    "version": "0.4.21+commit.dfe3193c.Emscripten.clang"
  },
  "schemaVersion": "2.0.0",
  "updatedAt": "2018-04-22T23:14:33.281Z"
}