{
  "contractName": "ClockAuctionBase",
  "abi": [
    {
      "constant": true,
      "inputs": [],
      "name": "ownerCut",
      "outputs": [
        {
          "name": "",
          "type": "uint256"
        }
      ],
      "payable": false,
      "stateMutability": "view",
      "type": "function"
    },
    {
      "constant": true,
      "inputs": [],
      "name": "nonFungibleContract",
      "outputs": [
        {
          "name": "",
          "type": "address"
        }
      ],
      "payable": false,
      "stateMutability": "view",
      "type": "function"
    },
    {
      "anonymous": false,
      "inputs": [
        {
          "indexed": false,
          "name": "tokenId",
          "type": "uint256"
        },
        {
          "indexed": false,
          "name": "startingPrice",
          "type": "uint256"
        },
        {
          "indexed": false,
          "name": "endingPrice",
          "type": "uint256"
        },
        {
          "indexed": false,
          "name": "duration",
          "type": "uint256"
        }
      ],
      "name": "AuctionCreated",
      "type": "event"
    },
    {
      "anonymous": false,
      "inputs": [
        {
          "indexed": false,
          "name": "tokenId",
          "type": "uint256"
        },
        {
          "indexed": false,
          "name": "totalPrice",
          "type": "uint256"
        },
        {
          "indexed": false,
          "name": "winner",
          "type": "address"
        }
      ],
      "name": "AuctionSuccessful",
      "type": "event"
    },
    {
      "anonymous": false,
      "inputs": [
        {
          "indexed": false,
          "name": "tokenId",
          "type": "uint256"
        }
      ],
      "name": "AuctionCancelled",
      "type": "event"
    },
    {
      "constant": true,
      "inputs": [],
      "name": "getNonFungibleContract",
      "outputs": [
        {
          "name": "",
          "type": "address"
        }
      ],
      "payable": false,
      "stateMutability": "view",
      "type": "function"
    }
  ],
  "bytecode": "0x6060604052341561000f57600080fd5b6101398061001e6000396000f3006060604052600436106100565763ffffffff7c010000000000000000000000000000000000000000000000000000000060003504166330496d5b811461005b57806383b5ff8b14610097578063dd1b7a0f146100bc575b600080fd5b341561006657600080fd5b61006e6100cf565b60405173ffffffffffffffffffffffffffffffffffffffff909116815260200160405180910390f35b34156100a257600080fd5b6100aa6100eb565b60405190815260200160405180910390f35b34156100c757600080fd5b61006e6100f1565b60005473ffffffffffffffffffffffffffffffffffffffff1690565b60015481565b60005473ffffffffffffffffffffffffffffffffffffffff16815600a165627a7a723058206193177025b1cbbfeaecd1c535f15a20b96393c8ae4d086307e9bce2c054ca750029",
  "source": "pragma solidity ^0.4.20;\n\nimport \"./Pausable.sol\";\nimport \"./ERC721.sol\";\n\n/// @title Auction Core\n/// @dev Contains models, variables, and internal methods for the auction.\n/// @notice We omit a fallback function to prevent accidental sends to this contract.\ncontract ClockAuctionBase {\n\n    // Represents an auction on an NFT\n    struct Auction {\n        // Current owner of NFT\n        address seller;\n        // Price (in wei) at beginning of auction\n        uint128 startingPrice;\n        // Price (in wei) at end of auction\n        uint128 endingPrice;\n        // Duration (in seconds) of auction\n        uint64 duration;\n        // Time when auction started\n        // NOTE: 0 if this auction has been concluded\n        uint64 startedAt;\n    }\n\n    // Reference to contract tracking NFT ownership\n    ERC721 public nonFungibleContract;\n\n    // Cut owner takes on each auction, measured in basis points (1/100 of a percent).\n    // Values 0-10,000 map to 0%-100%\n    uint256 public ownerCut;\n\n    // Map from token ID to their corresponding auction.\n    mapping (uint256 => Auction) tokenIdToAuction;\n\n    event AuctionCreated(uint256 tokenId, uint256 startingPrice, uint256 endingPrice, uint256 duration);\n    event AuctionSuccessful(uint256 tokenId, uint256 totalPrice, address winner);\n    event AuctionCancelled(uint256 tokenId);\n\n    /// @dev Returns true if the claimant owns the token.\n    /// @param _claimant - Address claiming to own the token.\n    /// @param _tokenId - ID of token whose ownership to verify.\n    function _owns(address _claimant, uint256 _tokenId) internal view returns (bool) {\n        return (nonFungibleContract.ownerOf(_tokenId) == _claimant);\n    }\n\n    function getNonFungibleContract() external view returns(address) {\n        return address(nonFungibleContract);\n    }\n\n    /// @dev Escrows the NFT, assigning ownership to this contract.\n    /// Throws if the escrow fails.\n    /// @param _owner - Current owner address of token to escrow.\n    /// @param _tokenId - ID of token whose approval to verify.\n    function _escrow(address _owner, uint256 _tokenId) internal {\n        // it will throw if transfer fails\n        nonFungibleContract.transferFrom(_owner, this, _tokenId);\n    }\n\n    /// @dev Transfers an NFT owned by this contract to another address.\n    /// Returns true if the transfer succeeds.\n    /// @param _receiver - Address to transfer NFT to.\n    /// @param _tokenId - ID of token to transfer.\n    function _transfer(address _receiver, uint256 _tokenId) internal {\n        // it will throw if transfer fails\n        nonFungibleContract.transfer(_receiver, _tokenId);\n    }\n\n    /// @dev Adds an auction to the list of open auctions. Also fires the\n    ///  AuctionCreated event.\n    /// @param _tokenId The ID of the token to be put on auction.\n    /// @param _auction Auction to add.\n    function _addAuction(uint256 _tokenId, Auction _auction) internal {\n        // Require that all auctions have a duration of\n        // at least one minute. (Keeps our math from getting hairy!)\n        require(_auction.duration >= 1 minutes);\n\n        tokenIdToAuction[_tokenId] = _auction;\n\n        emit AuctionCreated(\n            uint256(_tokenId),\n            uint256(_auction.startingPrice),\n            uint256(_auction.endingPrice),\n            uint256(_auction.duration)\n        );\n    }\n\n    /// @dev Cancels an auction unconditionally.\n    function _cancelAuction(uint256 _tokenId, address _seller) internal {\n        _removeAuction(_tokenId);\n        _transfer(_seller, _tokenId);\n        emit AuctionCancelled(_tokenId);\n    }\n\n    /// @dev Computes the price and transfers winnings.\n    /// Does NOT transfer ownership of token.\n    function _bid(uint256 _tokenId, uint256 _bidAmount)\n        internal\n        returns (uint256)\n    {\n        // Get a reference to the auction struct\n        Auction storage auction = tokenIdToAuction[_tokenId];\n\n        // Explicitly check that this auction is currently live.\n        // (Because of how Ethereum mappings work, we can't just count\n        // on the lookup above failing. An invalid _tokenId will just\n        // return an auction object that is all zeros.)\n        require(_isOnAuction(auction));\n\n        // Check that the bid is greater than or equal to the current price\n        uint256 price = _currentPrice(auction);\n        require(_bidAmount >= price);\n\n        // Grab a reference to the seller before the auction struct\n        // gets deleted.\n        address seller = auction.seller;\n\n        // The bid is good! Remove the auction before sending the fees\n        // to the sender so we can't have a reentrancy attack.\n        _removeAuction(_tokenId);\n\n        // Transfer proceeds to seller (if there are any!)\n        if (price > 0) {\n            // Calculate the auctioneer's cut.\n            // (NOTE: _computeCut() is guaranteed to return a\n            // value <= price, so this subtraction can't go negative.)\n            uint256 auctioneerCut = _computeCut(price);\n            uint256 sellerProceeds = price - auctioneerCut;\n\n            // NOTE: Doing a transfer() in the middle of a complex\n            // method like this is generally discouraged because of\n            // reentrancy attacks and DoS attacks if the seller is\n            // a contract with an invalid fallback function. We explicitly\n            // guard against reentrancy attacks by removing the auction\n            // before calling transfer(), and the only thing the seller\n            // can DoS is the sale of their own asset! (And if it's an\n            // accident, they can call cancelAuction(). )\n            seller.transfer(sellerProceeds);\n        }\n\n        // Calculate any excess funds included with the bid. If the excess\n        // is anything worth worrying about, transfer it back to bidder.\n        // NOTE: We checked above that the bid amount is greater than or\n        // equal to the price so this cannot underflow.\n        uint256 bidExcess = _bidAmount - price;\n\n        // Return the funds. Similar to the previous transfer, this is\n        // not susceptible to a re-entry attack because the auction is\n        // removed before any transfers occur.\n        msg.sender.transfer(bidExcess);\n\n        // Tell the world!\n        emit AuctionSuccessful(_tokenId, price, msg.sender);\n\n        return price;\n    }\n\n    /// @dev Removes an auction from the list of open auctions.\n    /// @param _tokenId - ID of NFT on auction.\n    function _removeAuction(uint256 _tokenId) internal {\n        delete tokenIdToAuction[_tokenId];\n    }\n\n    /// @dev Returns true if the NFT is on auction.\n    /// @param _auction - Auction to check.\n    function _isOnAuction(Auction storage _auction) internal view returns (bool) {\n        return (_auction.startedAt > 0);\n    }\n\n    /// @dev Returns current price of an NFT on auction. Broken into two\n    ///  functions (this one, that computes the duration from the auction\n    ///  structure, and the other that does the price computation) so we\n    ///  can easily test that the price computation works correctly.\n    function _currentPrice(Auction storage _auction)\n        internal\n        view\n        returns (uint256)\n    {\n        uint256 secondsPassed = 0;\n\n        // A bit of insurance against negative values (or wraparound).\n        // Probably not necessary (since Ethereum guarnatees that the\n        // now variable doesn't ever go backwards).\n        if (now > _auction.startedAt) {\n            secondsPassed = now - _auction.startedAt;\n        }\n\n        return _computeCurrentPrice(\n            _auction.startingPrice,\n            _auction.endingPrice,\n            _auction.duration,\n            secondsPassed\n        );\n    }\n\n    /// @dev Computes the current price of an auction. Factored out\n    ///  from _currentPrice so we can run extensive unit tests.\n    ///  When testing, make this function public and turn on\n    ///  `Current price computation` test suite.\n    function _computeCurrentPrice(\n        uint256 _startingPrice,\n        uint256 _endingPrice,\n        uint256 _duration,\n        uint256 _secondsPassed\n    )\n        internal\n        pure\n        returns (uint256)\n    {\n        // NOTE: We don't use SafeMath (or similar) in this function because\n        //  all of our public functions carefully cap the maximum values for\n        //  time (at 64-bits) and currency (at 128-bits). _duration is\n        //  also known to be non-zero (see the require() statement in\n        //  _addAuction())\n        if (_secondsPassed >= _duration) {\n            // We've reached the end of the dynamic pricing portion\n            // of the auction, just return the end price.\n            return _endingPrice;\n        } else {\n            // Starting price can be higher than ending price (and often is!), so\n            // this delta can be negative.\n            int256 totalPriceChange = int256(_endingPrice) - int256(_startingPrice);\n\n            // This multiplication can't overflow, _secondsPassed will easily fit within\n            // 64-bits, and totalPriceChange will easily fit within 128-bits, their product\n            // will always fit within 256-bits.\n            int256 currentPriceChange = totalPriceChange * int256(_secondsPassed) / int256(_duration);\n\n            // currentPriceChange can be negative, but if so, will have a magnitude\n            // less that _startingPrice. Thus, this result will always end up positive.\n            int256 currentPrice = int256(_startingPrice) + currentPriceChange;\n\n            return uint256(currentPrice);\n        }\n    }\n\n    /// @dev Computes owner's cut of a sale.\n    /// @param _price - Sale price of NFT.\n    function _computeCut(uint256 _price) internal view returns (uint256) {\n        // NOTE: We don't use SafeMath (or similar) in this function because\n        //  all of our entry functions carefully cap the maximum values for\n        //  currency (at 128-bits), and ownerCut <= 10000 (see the require()\n        //  statement in the ClockAuction constructor). The result of this\n        //  function is always guaranteed to be <= _price.\n        return _price * ownerCut / 10000;\n    }\n\n}\n\n/// @title Clock auction for non-fungible tokens.\n/// @notice We omit a fallback function to prevent accidental sends to this contract.\ncontract ClockAuction is Pausable, ClockAuctionBase {\n\n    /// @dev The ERC-165 interface signature for ERC-721.\n    ///  Ref: https://github.com/ethereum/EIPs/issues/165\n    ///  Ref: https://github.com/ethereum/EIPs/issues/721\n    bytes4 constant InterfaceSignature_ERC721 = bytes4(0x9a20483d);\n\n    /// @dev Constructor creates a reference to the NFT ownership contract\n    ///  and verifies the owner cut is in the valid range.\n    /// @param _nftAddress - address of a deployed contract implementing\n    ///  the Nonfungible Interface.\n    /// @param _cut - percent cut the owner takes on each auction, must be\n    ///  between 0-10,000.\n    function ClockAuction(address _nftAddress, uint256 _cut) public {\n        require(_cut <= 10000);\n        ownerCut = _cut;\n\n        ERC721 candidateContract = ERC721(_nftAddress);\n        require(candidateContract.supportsInterface(InterfaceSignature_ERC721));\n        nonFungibleContract = candidateContract;\n    }\n\n    /// @dev Remove all Ether from the contract, which is the owner's cuts\n    ///  as well as any Ether sent directly to the contract address.\n    ///  Always transfers to the NFT contract, but can be called either by\n    ///  the owner or the NFT contract.\n    function withdrawBalance() external {\n        address nftAddress = address(nonFungibleContract);\n\n        require(\n            msg.sender == owner ||\n            msg.sender == nftAddress\n        );\n        // We are using this boolean method to make sure that even if one fails it will still work\n        bool res = nftAddress.send(this.balance);\n    }\n\n    /// @dev Creates and begins a new auction.\n    /// @param _tokenId - ID of token to auction, sender must be owner.\n    /// @param _startingPrice - Price of item (in wei) at beginning of auction.\n    /// @param _endingPrice - Price of item (in wei) at end of auction.\n    /// @param _duration - Length of time to move between starting\n    ///  price and ending price (in seconds).\n    /// @param _seller - Seller, if not the message sender\n    function createAuction(\n        uint256 _tokenId,\n        uint256 _startingPrice,\n        uint256 _endingPrice,\n        uint256 _duration,\n        address _seller\n    )\n        external\n        whenNotPaused\n    {\n        // Sanity check that no inputs overflow how many bits we've allocated\n        // to store them in the auction struct.\n        require(_startingPrice == uint256(uint128(_startingPrice)));\n        require(_endingPrice == uint256(uint128(_endingPrice)));\n        require(_duration == uint256(uint64(_duration)));\n\n        require(_owns(msg.sender, _tokenId));\n        _escrow(msg.sender, _tokenId);\n        Auction memory auction = Auction(\n            _seller,\n            uint128(_startingPrice),\n            uint128(_endingPrice),\n            uint64(_duration),\n            uint64(now)\n        );\n        _addAuction(_tokenId, auction);\n    }\n\n    /// @dev Bids on an open auction, completing the auction and transferring\n    ///  ownership of the NFT if enough Ether is supplied.\n    /// @param _tokenId - ID of token to bid on.\n    function bid(uint256 _tokenId)\n        external\n        payable\n        whenNotPaused\n    {\n        // _bid will throw if the bid or funds transfer fails\n        _bid(_tokenId, msg.value);\n        _transfer(msg.sender, _tokenId);\n    }\n\n    /// @dev Cancels an auction that hasn't been won yet.\n    ///  Returns the NFT to original owner.\n    /// @notice This is a state-modifying function that can\n    ///  be called while the contract is paused.\n    /// @param _tokenId - ID of token on auction\n    function cancelAuction(uint256 _tokenId)\n        external\n    {\n        Auction storage auction = tokenIdToAuction[_tokenId];\n        require(_isOnAuction(auction));\n        address seller = auction.seller;\n        require(msg.sender == seller);\n        _cancelAuction(_tokenId, seller);\n    }\n\n    /// @dev Cancels an auction when the contract is paused.\n    ///  Only the owner may do this, and NFTs are returned to\n    ///  the seller. This should only be used in emergencies.\n    /// @param _tokenId - ID of the NFT on auction to cancel.\n    function cancelAuctionWhenPaused(uint256 _tokenId)\n        whenPaused\n        onlyOwner\n        external\n    {\n        Auction storage auction = tokenIdToAuction[_tokenId];\n        require(_isOnAuction(auction));\n        _cancelAuction(_tokenId, auction.seller);\n    }\n\n    /// @dev Returns auction info for an NFT on auction.\n    /// @param _tokenId - ID of NFT on auction.\n    function getAuction(uint256 _tokenId)\n        external\n        view\n        returns\n    (\n        address seller,\n        uint256 startingPrice,\n        uint256 endingPrice,\n        uint256 duration,\n        uint256 startedAt\n    ) {\n        Auction storage auction = tokenIdToAuction[_tokenId];\n        require(_isOnAuction(auction));\n        return (\n            auction.seller,\n            auction.startingPrice,\n            auction.endingPrice,\n            auction.duration,\n            auction.startedAt\n        );\n    }\n\n    /// @dev Returns the current price of an auction.\n    /// @param _tokenId - ID of the token price we are checking.\n    function getCurrentPrice(uint256 _tokenId)\n        external\n        view\n        returns (uint256)\n    {\n        Auction storage auction = tokenIdToAuction[_tokenId];\n        require(_isOnAuction(auction));\n        return _currentPrice(auction);\n    }\n\n}",
  "sourcePath": "/Users/thomas/Code/Learn/truehodler/contracts/ClockAuction.sol",
  "compiler": {
    "name": "solc",
    "version": "0.4.21+commit.dfe3193c.Emscripten.clang"
  },
  "schemaVersion": "2.0.0",
  "updatedAt": "2018-04-22T23:14:33.296Z"
}