{
  "contractName": "CoinFactory",
  "abi": [
    {
      "constant": true,
      "inputs": [
        {
          "name": "",
          "type": "uint256"
        }
      ],
      "name": "coinToOwner",
      "outputs": [
        {
          "name": "",
          "type": "address"
        }
      ],
      "payable": false,
      "stateMutability": "view",
      "type": "function"
    },
    {
      "constant": true,
      "inputs": [],
      "name": "owner",
      "outputs": [
        {
          "name": "",
          "type": "address"
        }
      ],
      "payable": false,
      "stateMutability": "view",
      "type": "function"
    },
    {
      "constant": true,
      "inputs": [
        {
          "name": "",
          "type": "uint256"
        }
      ],
      "name": "coins",
      "outputs": [
        {
          "name": "name",
          "type": "string"
        },
        {
          "name": "dna",
          "type": "uint256"
        },
        {
          "name": "level",
          "type": "uint32"
        },
        {
          "name": "readyTime",
          "type": "uint32"
        },
        {
          "name": "coinType",
          "type": "uint16"
        }
      ],
      "payable": false,
      "stateMutability": "view",
      "type": "function"
    },
    {
      "constant": false,
      "inputs": [
        {
          "name": "newOwner",
          "type": "address"
        }
      ],
      "name": "transferOwnership",
      "outputs": [],
      "payable": false,
      "stateMutability": "nonpayable",
      "type": "function"
    },
    {
      "anonymous": false,
      "inputs": [
        {
          "indexed": false,
          "name": "coinId",
          "type": "uint256"
        },
        {
          "indexed": false,
          "name": "name",
          "type": "string"
        },
        {
          "indexed": false,
          "name": "dna",
          "type": "uint256"
        },
        {
          "indexed": false,
          "name": "coinType",
          "type": "uint16"
        }
      ],
      "name": "NewCoin",
      "type": "event"
    },
    {
      "anonymous": false,
      "inputs": [
        {
          "indexed": true,
          "name": "previousOwner",
          "type": "address"
        },
        {
          "indexed": true,
          "name": "newOwner",
          "type": "address"
        }
      ],
      "name": "OwnershipTransferred",
      "type": "event"
    },
    {
      "constant": false,
      "inputs": [
        {
          "name": "_name",
          "type": "string"
        }
      ],
      "name": "createRandomCoin",
      "outputs": [],
      "payable": false,
      "stateMutability": "nonpayable",
      "type": "function"
    },
    {
      "constant": true,
      "inputs": [],
      "name": "getMaxCoinType",
      "outputs": [
        {
          "name": "",
          "type": "uint256"
        }
      ],
      "payable": false,
      "stateMutability": "view",
      "type": "function"
    }
  ],
  "bytecode": "0x60606040526010600155662386f26fc1000060025562015180600355605260045560008054600160a060020a033316600160a060020a03199091161790556108198061004c6000396000f3006060604052600436106100775763ffffffff7c010000000000000000000000000000000000000000000000000000000060003504166319a8f9ef811461007c5780635e99b296146100a157806378fbb3e7146100d35780638da5cb5b14610126578063c661065714610139578063f2fde38b146101ef575b600080fd5b341561008757600080fd5b61008f61020e565b60405190815260200160405180910390f35b34156100ac57600080fd5b6100b7600435610215565b604051600160a060020a03909116815260200160405180910390f35b34156100de57600080fd5b61012460046024813581810190830135806020601f8201819004810201604051908101604052818152929190602084018383808284375094965061023095505050505050565b005b341561013157600080fd5b6100b7610265565b341561014457600080fd5b61014f600435610274565b6040516020810185905263ffffffff80851660408301528316606082015261ffff8216608082015260a08082528190810187818151815260200191508051906020019080838360005b838110156101b0578082015183820152602001610198565b50505050905090810190601f1680156101dd5780820380516001836020036101000a031916815260200191505b50965050505050505060405180910390f35b34156101fa57600080fd5b610124600160a060020a0360043516610367565b6004545b90565b600660205260009081526040902054600160a060020a031681565b60008061023c83610402565b6004546064820690910392508281151561025257fe5b06905061026083838361047a565b505050565b600054600160a060020a031681565b600580548290811061028257fe5b9060005260206000209060030201600091509050806000018054600181600116156101000203166002900480601f01602080910402602001604051908101604052809291908181526020018280546001816001161561010002031660029004801561032e5780601f106103035761010080835404028352916020019161032e565b820191906000526020600020905b81548152906001019060200180831161031157829003601f168201915b50505050600183015460029093015491929163ffffffff80821692506401000000008204169068010000000000000000900461ffff1685565b60005433600160a060020a0390811691161461038257600080fd5b600160a060020a038116151561039757600080fd5b600054600160a060020a0380831691167f8be0079c531659141344cd1fd0a4f28419497f9722a3daafe3b4186f6b6457e060405160405180910390a36000805473ffffffffffffffffffffffffffffffffffffffff1916600160a060020a0392909216919091179055565b600080826040518082805190602001908083835b602083106104355780518252601f199092019160209182019101610416565b6001836020036101000a03801982511681845116179092525050509190910192506040915050519081900390206002549091508181151561047257fe5b069392505050565b600060016005805480600101828161049291906106a3565b9160005260206000209060030201600060a0604051908101604090815289825260208201899052600190820152600354420163ffffffff16606082015261ffff871660808201529190508151819080516104f09291602001906106cf565b5060208201518160010155604082015160028201805463ffffffff191663ffffffff9290921691909117905560608201518160020160046101000a81548163ffffffff021916908363ffffffff16021790555060808201516002909101805461ffff92909216680100000000000000000269ffff000000000000000019909216919091179055500360008181526006602090815260408083208054600160a060020a03331673ffffffffffffffffffffffffffffffffffffffff199091168117909155835260079091529020549091506105d190600163ffffffff61068d16565b507ff6e9058bfaa36f3836ec6a05225d3aeaa4d439709001062f2e91a645d3789791818585856040518481526040810183905261ffff8216606082015260806020820181815290820185818151815260200191508051906020019080838360005b8381101561064a578082015183820152602001610632565b50505050905090810190601f1680156106775780820380516001836020036101000a031916815260200191505b509550505050505060405180910390a150505050565b60008282018381101561069c57fe5b9392505050565b81548183558181151161026057600302816003028360005260206000209182019101610260919061074d565b828054600181600116156101000203166002900490600052602060002090601f016020900481019282601f1061071057805160ff191683800117855561073d565b8280016001018555821561073d579182015b8281111561073d578251825591602001919060010190610722565b5061074992915061078c565b5090565b61021291905b8082111561074957600061076782826107a6565b506000600182015560028101805469ffffffffffffffffffff19169055600301610753565b61021291905b808211156107495760008155600101610792565b50805460018160011615610100020316600290046000825580601f106107cc57506107ea565b601f0160209004906000526020600020908101906107ea919061078c565b505600a165627a7a723058200f7a0db8e4891e3d6aa8294e6463173b47829c26fd53d1880f461a2da64b79b50029",
  "source": "pragma solidity ^0.4.19;\n\nimport \"./SafeMath.sol\";\n\ncontract ERC721 {\n  event Transfer(address indexed _from, address indexed _to, uint256 _tokenId);\n  event Approval(address indexed _owner, address indexed _approved, uint256 _tokenId);\n\n  function balanceOf(address _owner) public view returns (uint256 _balance);\n  function ownerOf(uint256 _tokenId) public view returns (address _owner);\n  function transfer(address _to, uint256 _tokenId) public;\n  function approve(address _to, uint256 _tokenId) public;\n  function takeOwnership(uint256 _tokenId) public;\n}\n\n/**\n * @title Ownable\n * @dev The Ownable contract has an owner address, and provides basic authorization control\n * functions, this simplifies the implementation of \"user permissions\".\n */\ncontract Ownable {\n  address public owner;\n\n  event OwnershipTransferred(address indexed previousOwner, address indexed newOwner);\n\n  /**\n   * @dev The Ownable constructor sets the original `owner` of the contract to the sender\n   * account.\n   */\n  function Ownable() public {\n    owner = msg.sender;\n  }\n\n\n  /**\n   * @dev Throws if called by any account other than the owner.\n   */\n  modifier onlyOwner() {\n    require(msg.sender == owner);\n    _;\n  }\n\n\n  /**\n   * @dev Allows the current owner to transfer control of the contract to a newOwner.\n   * @param newOwner The address to transfer ownership to.\n   */\n  function transferOwnership(address newOwner) public onlyOwner {\n    require(newOwner != address(0));\n    OwnershipTransferred(owner, newOwner);\n    owner = newOwner;\n  }\n\n}\n\ncontract KittyInterface {\n  function getKitty(uint256 _id) external view returns (\n    bool isGestating,\n    bool isReady,\n    uint256 cooldownIndex,\n    uint256 nextActionAt,\n    uint256 siringWithId,\n    uint256 birthTime,\n    uint256 matronId,\n    uint256 sireId,\n    uint256 generation,\n    uint256 genes\n  );\n}\n\ncontract CoinFactory is Ownable {\n\n  using SafeMath for uint256;\n\n  event NewCoin(uint coinId, string name, uint dna, uint16 coinType);\n\n  uint dnaDigits = 16;\n  uint dnaModulus = 10 ** dnaDigits;\n  uint cooldownTime = 1 days;\n  uint maxCoinType = 82;\n\n  struct Coin {\n    string name;\n    uint dna;\n    uint32 level;\n    uint32 readyTime;\n    uint16 coinType;\n  }\n\n  Coin[] public coins;\n\n  mapping (uint => address) public coinToOwner;\n  mapping (address => uint) ownerCoinCount;\n\n  function _createCoin(string _name, uint _dna, uint16 _coinType) internal {\n    uint id = coins.push(Coin(_name, _dna, 1, uint32(now + cooldownTime), _coinType)) - 1;\n    coinToOwner[id] = msg.sender;\n    ownerCoinCount[msg.sender].add(1);\n    NewCoin(id, _name, _dna, _coinType);\n  }\n\n  function _generateRandomDna(string _str) private view returns (uint) {\n    uint rand = uint(keccak256(_str));\n    return rand % dnaModulus;\n  }\n\n  function createRandomCoin(string _name) public {\n    //require(ownerCoinCount[msg.sender] == 0);\n    uint randDna = _generateRandomDna(_name);\n    randDna = randDna - randDna % 100;\n    uint16 coinType = uint16(randDna % maxCoinType);\n    _createCoin(_name, randDna, coinType);\n  }\n  \n  function getMaxCoinType() external view returns(uint) {\n      return maxCoinType;\n  }\n\n}\n\ncontract CoinFeeding is CoinFactory {\n\n  KittyInterface kittyContract;\n\n  modifier onlyOwnerOf(uint _coinId) {\n    require(msg.sender == coinToOwner[_coinId]);\n    _;\n  }\n\n  function setKittyContractAddress(address _address) external onlyOwner {\n    kittyContract = KittyInterface(_address);\n  }\n\n  function _triggerCooldown(Coin storage _coin) internal {\n    _coin.readyTime = uint32(now + cooldownTime);\n  }\n\n  function _isReady(Coin storage _coin) internal view returns (bool) {\n      return (_coin.readyTime <= now);\n  }\n\n  function feedAndMultiply(uint _coinId, uint _targetDna, string _species) internal onlyOwnerOf(_coinId) {\n    Coin storage myCoin = coins[_coinId];\n    require(_isReady(myCoin));\n    _targetDna = _targetDna % dnaModulus;\n    uint newDna = (myCoin.dna + _targetDna) / 2;\n    if (keccak256(_species) == keccak256(\"kitty\")) {\n      newDna = newDna - newDna % 100 + 99;\n    }\n    _createCoin(\"NoName\", newDna, myCoin.coinType);\n    _triggerCooldown(myCoin);\n  }\n\n  function feedOnKitty(uint _coinId, uint _kittyId) public {\n    uint kittyDna;\n    (,,,,,,,,,kittyDna) = kittyContract.getKitty(_kittyId);\n    feedAndMultiply(_coinId, kittyDna, \"kitty\");\n  }\n}\n\ncontract CoinHelper is CoinFeeding {\n\n  uint levelUpFee = 0.001 ether;\n\n  modifier aboveLevel(uint _level, uint _coinId) {\n    require(coins[_coinId].level >= _level);\n    _;\n  }\n\n  function withdraw() external onlyOwner {\n    owner.transfer(this.balance);\n  }\n\n  function setLevelUpFee(uint _fee) external onlyOwner {\n    levelUpFee = _fee;\n  }\n\n  function levelUp(uint _coinId) external payable {\n    require(msg.value == levelUpFee);\n    coins[_coinId].level++;\n  }\n\n  function changeName(uint _coinId, string _newName) external aboveLevel(2, _coinId) onlyOwnerOf(_coinId) {\n    coins[_coinId].name = _newName;\n  }\n\n  function changeDna(uint _coinId, uint _newDna) external aboveLevel(20, _coinId) onlyOwnerOf(_coinId) {\n    coins[_coinId].dna = _newDna;\n  }\n\n  function getCoinsByOwner(address _owner) external view returns(uint[]) {\n    uint[] memory result = new uint[](ownerCoinCount[_owner]);\n    uint counter = 0;\n    for (uint i = 0; i < coins.length; i++) {\n      if (coinToOwner[i] == _owner) {\n        result[counter] = i;\n        counter++;\n      }\n    }\n    return result;\n  }\n  \n  function getCoin(uint _id) external view \n    returns(\n        string name,\n        uint256 dna,\n        uint256 coinType,\n        uint256 level,\n        uint256 readyTime\n    ) {\n        Coin storage coin = coins[_id];\n        \n        name = coin.name;\n        dna = uint256(coin.dna);\n        coinType = uint256(coin.coinType);\n        level = uint256(coin.level);\n        readyTime = uint256(coin.readyTime);\n  }\n\n}\n\n/// TODO: Replace this with natspec descriptions\ncontract CoinOwnership is CoinHelper, ERC721 {\n\n  using SafeMath for uint256;\n\n  mapping (uint => address) coinApprovals;\n\n  function balanceOf(address _owner) public view returns (uint256 _balance) {\n    return ownerCoinCount[_owner];\n  }\n\n  function ownerOf(uint256 _tokenId) public view returns (address _owner) {\n    return coinToOwner[_tokenId];\n  }\n\n  function _transfer(address _from, address _to, uint256 _tokenId) private {\n    ownerCoinCount[_to] = ownerCoinCount[_to].add(1);\n    ownerCoinCount[msg.sender] = ownerCoinCount[msg.sender].sub(1);\n    coinToOwner[_tokenId] = _to;\n    Transfer(_from, _to, _tokenId);\n  }\n\n  function transfer(address _to, uint256 _tokenId) public onlyOwnerOf(_tokenId) {\n    _transfer(msg.sender, _to, _tokenId);\n  }\n\n  function approve(address _to, uint256 _tokenId) public onlyOwnerOf(_tokenId) {\n    coinApprovals[_tokenId] = _to;\n    Approval(msg.sender, _to, _tokenId);\n  }\n\n  function takeOwnership(uint256 _tokenId) public {\n    require(coinApprovals[_tokenId] == msg.sender);\n    address owner = ownerOf(_tokenId);\n    _transfer(owner, msg.sender, _tokenId);\n  }\n}\n",
  "sourcePath": "/Users/thomas/Code/Learn/truehodler/contracts/CoinWars.sol",
  "compiler": {
    "name": "solc",
    "version": "0.4.21+commit.dfe3193c.Emscripten.clang"
  },
  "schemaVersion": "2.0.0",
  "updatedAt": "2018-04-22T03:37:01.707Z"
}