{
  "contractName": "CoinCore",
  "abi": [
    {
      "constant": true,
      "inputs": [
        {
          "name": "_interfaceID",
          "type": "bytes4"
        }
      ],
      "name": "supportsInterface",
      "outputs": [
        {
          "name": "",
          "type": "bool"
        }
      ],
      "payable": false,
      "stateMutability": "view",
      "type": "function"
    },
    {
      "constant": true,
      "inputs": [],
      "name": "cfoAddress",
      "outputs": [
        {
          "name": "",
          "type": "address"
        }
      ],
      "payable": false,
      "stateMutability": "view",
      "type": "function"
    },
    {
      "constant": true,
      "inputs": [
        {
          "name": "_tokenId",
          "type": "uint256"
        },
        {
          "name": "_preferredTransport",
          "type": "string"
        }
      ],
      "name": "tokenMetadata",
      "outputs": [
        {
          "name": "infoUrl",
          "type": "string"
        }
      ],
      "payable": false,
      "stateMutability": "view",
      "type": "function"
    },
    {
      "constant": true,
      "inputs": [],
      "name": "promoCreatedCount",
      "outputs": [
        {
          "name": "",
          "type": "uint256"
        }
      ],
      "payable": false,
      "stateMutability": "view",
      "type": "function"
    },
    {
      "constant": true,
      "inputs": [],
      "name": "name",
      "outputs": [
        {
          "name": "",
          "type": "string"
        }
      ],
      "payable": false,
      "stateMutability": "view",
      "type": "function"
    },
    {
      "constant": false,
      "inputs": [
        {
          "name": "_to",
          "type": "address"
        },
        {
          "name": "_tokenId",
          "type": "uint256"
        }
      ],
      "name": "approve",
      "outputs": [],
      "payable": false,
      "stateMutability": "nonpayable",
      "type": "function"
    },
    {
      "constant": true,
      "inputs": [],
      "name": "ceoAddress",
      "outputs": [
        {
          "name": "",
          "type": "address"
        }
      ],
      "payable": false,
      "stateMutability": "view",
      "type": "function"
    },
    {
      "constant": true,
      "inputs": [],
      "name": "GEN0_STARTING_PRICE",
      "outputs": [
        {
          "name": "",
          "type": "uint256"
        }
      ],
      "payable": false,
      "stateMutability": "view",
      "type": "function"
    },
    {
      "constant": true,
      "inputs": [],
      "name": "totalSupply",
      "outputs": [
        {
          "name": "",
          "type": "uint256"
        }
      ],
      "payable": false,
      "stateMutability": "view",
      "type": "function"
    },
    {
      "constant": true,
      "inputs": [],
      "name": "GEN0_AUCTION_DURATION",
      "outputs": [
        {
          "name": "",
          "type": "uint256"
        }
      ],
      "payable": false,
      "stateMutability": "view",
      "type": "function"
    },
    {
      "constant": false,
      "inputs": [
        {
          "name": "_from",
          "type": "address"
        },
        {
          "name": "_to",
          "type": "address"
        },
        {
          "name": "_tokenId",
          "type": "uint256"
        }
      ],
      "name": "transferFrom",
      "outputs": [],
      "payable": false,
      "stateMutability": "nonpayable",
      "type": "function"
    },
    {
      "constant": false,
      "inputs": [
        {
          "name": "_address",
          "type": "address"
        }
      ],
      "name": "setGeneScienceAddress",
      "outputs": [],
      "payable": false,
      "stateMutability": "nonpayable",
      "type": "function"
    },
    {
      "constant": false,
      "inputs": [
        {
          "name": "_newCEO",
          "type": "address"
        }
      ],
      "name": "setCEO",
      "outputs": [],
      "payable": false,
      "stateMutability": "nonpayable",
      "type": "function"
    },
    {
      "constant": false,
      "inputs": [
        {
          "name": "_newCOO",
          "type": "address"
        }
      ],
      "name": "setCOO",
      "outputs": [],
      "payable": false,
      "stateMutability": "nonpayable",
      "type": "function"
    },
    {
      "constant": false,
      "inputs": [
        {
          "name": "_coinId",
          "type": "uint256"
        },
        {
          "name": "_startingPrice",
          "type": "uint256"
        },
        {
          "name": "_endingPrice",
          "type": "uint256"
        },
        {
          "name": "_duration",
          "type": "uint256"
        }
      ],
      "name": "createSaleAuction",
      "outputs": [],
      "payable": false,
      "stateMutability": "nonpayable",
      "type": "function"
    },
    {
      "constant": false,
      "inputs": [
        {
          "name": "_newCFO",
          "type": "address"
        }
      ],
      "name": "setCFO",
      "outputs": [],
      "payable": false,
      "stateMutability": "nonpayable",
      "type": "function"
    },
    {
      "constant": true,
      "inputs": [],
      "name": "getSaleAuctionAddress",
      "outputs": [
        {
          "name": "",
          "type": "address"
        }
      ],
      "payable": false,
      "stateMutability": "view",
      "type": "function"
    },
    {
      "constant": true,
      "inputs": [],
      "name": "paused",
      "outputs": [
        {
          "name": "",
          "type": "bool"
        }
      ],
      "payable": false,
      "stateMutability": "view",
      "type": "function"
    },
    {
      "constant": true,
      "inputs": [
        {
          "name": "_tokenId",
          "type": "uint256"
        }
      ],
      "name": "ownerOf",
      "outputs": [
        {
          "name": "owner",
          "type": "address"
        }
      ],
      "payable": false,
      "stateMutability": "view",
      "type": "function"
    },
    {
      "constant": true,
      "inputs": [],
      "name": "GEN0_CREATION_LIMIT",
      "outputs": [
        {
          "name": "",
          "type": "uint256"
        }
      ],
      "payable": false,
      "stateMutability": "view",
      "type": "function"
    },
    {
      "constant": true,
      "inputs": [],
      "name": "newContractAddress",
      "outputs": [
        {
          "name": "",
          "type": "address"
        }
      ],
      "payable": false,
      "stateMutability": "view",
      "type": "function"
    },
    {
      "constant": false,
      "inputs": [
        {
          "name": "_address",
          "type": "address"
        }
      ],
      "name": "setSaleAuctionAddress",
      "outputs": [],
      "payable": false,
      "stateMutability": "nonpayable",
      "type": "function"
    },
    {
      "constant": true,
      "inputs": [
        {
          "name": "_owner",
          "type": "address"
        }
      ],
      "name": "balanceOf",
      "outputs": [
        {
          "name": "count",
          "type": "uint256"
        }
      ],
      "payable": false,
      "stateMutability": "view",
      "type": "function"
    },
    {
      "constant": true,
      "inputs": [],
      "name": "getCFO",
      "outputs": [
        {
          "name": "",
          "type": "address"
        }
      ],
      "payable": false,
      "stateMutability": "view",
      "type": "function"
    },
    {
      "constant": false,
      "inputs": [],
      "name": "pause",
      "outputs": [],
      "payable": false,
      "stateMutability": "nonpayable",
      "type": "function"
    },
    {
      "constant": true,
      "inputs": [
        {
          "name": "_owner",
          "type": "address"
        }
      ],
      "name": "tokensOfOwner",
      "outputs": [
        {
          "name": "ownerTokens",
          "type": "uint256[]"
        }
      ],
      "payable": false,
      "stateMutability": "view",
      "type": "function"
    },
    {
      "constant": false,
      "inputs": [],
      "name": "withdrawAuctionBalances",
      "outputs": [],
      "payable": false,
      "stateMutability": "nonpayable",
      "type": "function"
    },
    {
      "constant": true,
      "inputs": [],
      "name": "symbol",
      "outputs": [
        {
          "name": "",
          "type": "string"
        }
      ],
      "payable": false,
      "stateMutability": "view",
      "type": "function"
    },
    {
      "constant": false,
      "inputs": [
        {
          "name": "_to",
          "type": "address"
        },
        {
          "name": "_tokenId",
          "type": "uint256"
        }
      ],
      "name": "transfer",
      "outputs": [],
      "payable": false,
      "stateMutability": "nonpayable",
      "type": "function"
    },
    {
      "constant": true,
      "inputs": [
        {
          "name": "",
          "type": "uint256"
        }
      ],
      "name": "coinIndexToOwner",
      "outputs": [
        {
          "name": "",
          "type": "address"
        }
      ],
      "payable": false,
      "stateMutability": "view",
      "type": "function"
    },
    {
      "constant": true,
      "inputs": [
        {
          "name": "",
          "type": "uint256"
        }
      ],
      "name": "coinIndexToApproved",
      "outputs": [
        {
          "name": "",
          "type": "address"
        }
      ],
      "payable": false,
      "stateMutability": "view",
      "type": "function"
    },
    {
      "constant": true,
      "inputs": [],
      "name": "cooAddress",
      "outputs": [
        {
          "name": "",
          "type": "address"
        }
      ],
      "payable": false,
      "stateMutability": "view",
      "type": "function"
    },
    {
      "constant": true,
      "inputs": [],
      "name": "erc721Metadata",
      "outputs": [
        {
          "name": "",
          "type": "address"
        }
      ],
      "payable": false,
      "stateMutability": "view",
      "type": "function"
    },
    {
      "constant": false,
      "inputs": [
        {
          "name": "_genes",
          "type": "uint256"
        }
      ],
      "name": "createGen0Auction",
      "outputs": [],
      "payable": false,
      "stateMutability": "nonpayable",
      "type": "function"
    },
    {
      "constant": true,
      "inputs": [],
      "name": "getCEO",
      "outputs": [
        {
          "name": "",
          "type": "address"
        }
      ],
      "payable": false,
      "stateMutability": "view",
      "type": "function"
    },
    {
      "constant": true,
      "inputs": [],
      "name": "PROMO_CREATION_LIMIT",
      "outputs": [
        {
          "name": "",
          "type": "uint256"
        }
      ],
      "payable": false,
      "stateMutability": "view",
      "type": "function"
    },
    {
      "constant": false,
      "inputs": [
        {
          "name": "_contractAddress",
          "type": "address"
        }
      ],
      "name": "setMetadataAddress",
      "outputs": [],
      "payable": false,
      "stateMutability": "nonpayable",
      "type": "function"
    },
    {
      "constant": true,
      "inputs": [],
      "name": "saleAuction",
      "outputs": [
        {
          "name": "",
          "type": "address"
        }
      ],
      "payable": false,
      "stateMutability": "view",
      "type": "function"
    },
    {
      "constant": true,
      "inputs": [],
      "name": "getGeneScienceAddress",
      "outputs": [
        {
          "name": "",
          "type": "address"
        }
      ],
      "payable": false,
      "stateMutability": "view",
      "type": "function"
    },
    {
      "constant": true,
      "inputs": [],
      "name": "gen0CreatedCount",
      "outputs": [
        {
          "name": "",
          "type": "uint256"
        }
      ],
      "payable": false,
      "stateMutability": "view",
      "type": "function"
    },
    {
      "constant": true,
      "inputs": [],
      "name": "geneScience",
      "outputs": [
        {
          "name": "",
          "type": "address"
        }
      ],
      "payable": false,
      "stateMutability": "view",
      "type": "function"
    },
    {
      "constant": false,
      "inputs": [
        {
          "name": "_genes",
          "type": "uint256"
        },
        {
          "name": "_coinType",
          "type": "uint32"
        },
        {
          "name": "_owner",
          "type": "address"
        }
      ],
      "name": "createPromoCoin",
      "outputs": [],
      "payable": false,
      "stateMutability": "nonpayable",
      "type": "function"
    },
    {
      "constant": true,
      "inputs": [],
      "name": "getCOO",
      "outputs": [
        {
          "name": "",
          "type": "address"
        }
      ],
      "payable": false,
      "stateMutability": "view",
      "type": "function"
    },
    {
      "inputs": [],
      "payable": false,
      "stateMutability": "nonpayable",
      "type": "constructor"
    },
    {
      "payable": true,
      "stateMutability": "payable",
      "type": "fallback"
    },
    {
      "anonymous": false,
      "inputs": [
        {
          "indexed": false,
          "name": "from",
          "type": "address"
        },
        {
          "indexed": false,
          "name": "to",
          "type": "address"
        },
        {
          "indexed": false,
          "name": "tokenId",
          "type": "uint256"
        }
      ],
      "name": "Transfer",
      "type": "event"
    },
    {
      "anonymous": false,
      "inputs": [
        {
          "indexed": false,
          "name": "owner",
          "type": "address"
        },
        {
          "indexed": false,
          "name": "approved",
          "type": "address"
        },
        {
          "indexed": false,
          "name": "tokenId",
          "type": "uint256"
        }
      ],
      "name": "Approval",
      "type": "event"
    },
    {
      "anonymous": false,
      "inputs": [
        {
          "indexed": false,
          "name": "owner",
          "type": "address"
        },
        {
          "indexed": false,
          "name": "coinId",
          "type": "uint256"
        },
        {
          "indexed": false,
          "name": "genes",
          "type": "uint256"
        },
        {
          "indexed": false,
          "name": "coinType",
          "type": "uint256"
        }
      ],
      "name": "NewCoin",
      "type": "event"
    },
    {
      "anonymous": false,
      "inputs": [
        {
          "indexed": false,
          "name": "newContract",
          "type": "address"
        }
      ],
      "name": "ContractUpgrade",
      "type": "event"
    },
    {
      "constant": false,
      "inputs": [
        {
          "name": "_v2Address",
          "type": "address"
        }
      ],
      "name": "setNewAddress",
      "outputs": [],
      "payable": false,
      "stateMutability": "nonpayable",
      "type": "function"
    },
    {
      "constant": true,
      "inputs": [
        {
          "name": "_id",
          "type": "uint256"
        }
      ],
      "name": "getCoin",
      "outputs": [
        {
          "name": "mintingTime",
          "type": "uint256"
        },
        {
          "name": "generation",
          "type": "uint256"
        },
        {
          "name": "coinType",
          "type": "uint256"
        },
        {
          "name": "genes",
          "type": "uint256"
        }
      ],
      "payable": false,
      "stateMutability": "view",
      "type": "function"
    },
    {
      "constant": true,
      "inputs": [
        {
          "name": "_owner",
          "type": "address"
        }
      ],
      "name": "getCoinsByOwner",
      "outputs": [
        {
          "name": "",
          "type": "uint256[]"
        }
      ],
      "payable": false,
      "stateMutability": "view",
      "type": "function"
    },
    {
      "constant": false,
      "inputs": [],
      "name": "unpause",
      "outputs": [],
      "payable": false,
      "stateMutability": "nonpayable",
      "type": "function"
    },
    {
      "constant": true,
      "inputs": [],
      "name": "isPaused",
      "outputs": [
        {
          "name": "",
          "type": "bool"
        }
      ],
      "payable": false,
      "stateMutability": "view",
      "type": "function"
    },
    {
      "constant": false,
      "inputs": [],
      "name": "withdrawBalance",
      "outputs": [],
      "payable": false,
      "stateMutability": "nonpayable",
      "type": "function"
    }
  ],
  "bytecode": "0x60606040526002805460a060020a60ff021916905534156200002057600080fd5b6002805460008054600160a060020a033316600160a060020a03199182168117835560a060020a60ff02199093167401000000000000000000000000000000000000000017169091179091556200008a90600019818064010000000062001a2d6200009182021704565b50620003a3565b60006200009d62000312565b600061ffff87168714620000b057600080fd5b608060405190810160405280878152602001426001604060020a031681526020018663ffffffff1681526020018861ffff168152509150600160038054806001018281620000ff919062000339565b6000928352602090922085916002020181518155602082015160018201805467ffffffffffffffff19166001604060020a039290921691909117905560408201518160010160086101000a81548163ffffffff021916908363ffffffff16021790555060608201516001909101805461ffff929092166c0100000000000000000000000002606060020a61ffff02199092169190911790555003905063ffffffff81168114620001ae57600080fd5b7ed9fd8c7ae79d91b3cfe623bd4d1b031795d13a23e5aa697895275a9e4becdd848284518863ffffffff166040518085600160a060020a0316600160a060020a0316815260200184815260200183815260200182815260200194505050505060405180910390a16200023160008583640100000000620019046200023b82021704565b9695505050505050565b600160a060020a03808316600081815260056020908152604080832080546001019055858352600490915290208054600160a060020a0319169091179055831615620002bd57600160a060020a03831660009081526005602090815260408083208054600019019055838352600690915290208054600160a060020a03191690555b7fddf252ad1be2c89b69c2b068fc378daa952ba7f163c4a11628f55a4df523b3ef838383604051600160a060020a039384168152919092166020820152604080820192909252606001905180910390a1505050565b60806040519081016040908152600080835260208301819052908201819052606082015290565b81548183558181151162000368576002028160020283600052602060002091820191016200036891906200036d565b505050565b620003a091905b808211156200039c57600081556001810180546001607060020a031916905560020162000374565b5090565b90565b611d7180620003b36000396000f3006060604052600436106102375763ffffffff60e060020a60003504166301ffc9a781146102545780630519ce79146102a05780630560ff44146102cf57806305e455461461036857806306fdde031461038d578063095ea7b3146103a05780630a0f8168146103c25780630e583df0146103d557806318160ddd146103e857806319c2f201146103fb57806323b872dd1461040e57806324e7a38a1461043657806327d7874c146104555780632ba73c15146104745780633d7d3f5a146104935780633f4ba83a146104b25780634e0a3379146104c55780634f238029146104e45780635c975abb146104f75780635fd8c7101461050a5780636352211e1461051d578063680eba27146105335780636af04a57146105465780636fbde40d1461055957806370a082311461057857806371587988146105975780637b936ac2146105b65780638456cb59146105c95780638462151c146105dc57806391876e571461064e57806395d89b4114610661578063a9059cbb14610674578063aa37585414610696578063ac590a93146106ac578063b047fb50146106c2578063b187bd26146106d5578063bc4006f5146106e8578063c3bea9af146106fb578063c8b0e68d14610711578063da31158814610724578063defb958414610765578063e17b25af14610778578063e69d569114610797578063e6cbe351146107b6578063f129c5d7146107c9578063f1ca9410146107dc578063f2b47d52146107ef578063f2d8c66814610802578063fc5fd6e41461082d575b60075433600160a060020a0390811691161461025257600080fd5b005b341561025f57600080fd5b61028c7fffffffff0000000000000000000000000000000000000000000000000000000060043516610840565b604051901515815260200160405180910390f35b34156102ab57600080fd5b6102b3610ac7565b604051600160a060020a03909116815260200160405180910390f35b34156102da57600080fd5b6102f1600480359060248035908101910135610ad6565b60405160208082528190810183818151815260200191508051906020019080838360005b8381101561032d578082015183820152602001610315565b50505050905090810190601f16801561035a5780820380516001836020036101000a031916815260200191505b509250505060405180910390f35b341561037357600080fd5b61037b610ba6565b60405190815260200160405180910390f35b341561039857600080fd5b6102f1610bac565b34156103ab57600080fd5b610252600160a060020a0360043516602435610be3565b34156103cd57600080fd5b6102b3610c6d565b34156103e057600080fd5b61037b610c7c565b34156103f357600080fd5b61037b610c87565b341561040657600080fd5b61037b610c92565b341561041957600080fd5b610252600160a060020a0360043581169060243516604435610c99565b341561044157600080fd5b610252600160a060020a0360043516610d20565b341561046057600080fd5b610252600160a060020a0360043516610dc0565b341561047f57600080fd5b610252600160a060020a0360043516610e12565b341561049e57600080fd5b610252600435602435604435606435610e64565b34156104bd57600080fd5b610252610f2c565b34156104d057600080fd5b610252600160a060020a0360043516610fad565b34156104ef57600080fd5b6102b3610fff565b341561050257600080fd5b61028c61100e565b341561051557600080fd5b61025261101e565b341561052857600080fd5b6102b3600435611078565b341561053e57600080fd5b61037b61109c565b341561055157600080fd5b6102b36110a2565b341561056457600080fd5b610252600160a060020a03600435166110b1565b341561058357600080fd5b61037b600160a060020a0360043516611151565b34156105a257600080fd5b610252600160a060020a036004351661116c565b34156105c157600080fd5b6102b36111fa565b34156105d457600080fd5b610252611209565b34156105e757600080fd5b6105fb600160a060020a0360043516611295565b60405160208082528190810183818151815260200191508051906020019060200280838360005b8381101561063a578082015183820152602001610622565b505050509050019250505060405180910390f35b341561065957600080fd5b610252611376565b341561066c57600080fd5b6102f1611411565b341561067f57600080fd5b610252600160a060020a0360043516602435611448565b34156106a157600080fd5b6102b36004356114d4565b34156106b757600080fd5b6102b36004356114ef565b34156106cd57600080fd5b6102b361150a565b34156106e057600080fd5b61028c611519565b34156106f357600080fd5b6102b3611529565b341561070657600080fd5b610252600435611538565b341561071c57600080fd5b6102b3611626565b341561072f57600080fd5b61073a600435611635565b6040518085815260200184815260200183815260200182815260200194505050505060405180910390f35b341561077057600080fd5b61037b6116a2565b341561078357600080fd5b610252600160a060020a03600435166116a8565b34156107a257600080fd5b6105fb600160a060020a03600435166116e5565b34156107c157600080fd5b6102b3611793565b34156107d457600080fd5b6102b36117a2565b34156107e757600080fd5b61037b6117b1565b34156107fa57600080fd5b6102b36117b7565b341561080d57600080fd5b61025260043563ffffffff60243516600160a060020a03604435166117c6565b341561083857600080fd5b6102b3611832565b60006040517f737570706f727473496e7465726661636528627974657334290000000000000081526019016040518091039020600160e060020a03191682600160e060020a0319161480610abf57506040517f746f6b656e4d657461646174612875696e743235362c737472696e67290000008152601d0160405180910390206040517f746f6b656e734f664f776e657228616464726573732900000000000000000000815260160160405180910390206040517f7472616e7366657246726f6d28616464726573732c616464726573732c75696e81527f7432353629000000000000000000000000000000000000000000000000000000602082015260250160405180910390206040517f7472616e7366657228616464726573732c75696e743235362900000000000000815260190160405180910390206040517f617070726f766528616464726573732c75696e74323536290000000000000000815260180160405180910390206040517f6f776e65724f662875696e743235362900000000000000000000000000000000815260100160405180910390206040517f62616c616e63654f662861646472657373290000000000000000000000000000815260120160405180910390206040517f746f74616c537570706c792829000000000000000000000000000000000000008152600d0160405180910390206040517f73796d626f6c2829000000000000000000000000000000000000000000000000815260080160405180910390206040517f6e616d652829000000000000000000000000000000000000000000000000000081526006016040518091039020181818181818181818600160e060020a03191682600160e060020a031916145b90505b919050565b600154600160a060020a031681565b610ade611c88565b610ae6611c9a565b600854600090600160a060020a03161515610b0057600080fd5b600854600160a060020a031663cb4799f287878760405160e060020a63ffffffff861602815260048101848152604060248301908152604483018490529091606401848480828437820191505094505050505060a060405180830381600087803b1515610b6c57600080fd5b5af11515610b7957600080fd5b50505060405180608001805160209091016040529092509050610b9c8282611841565b9695505050505050565b600a5481565b60408051908101604052600d81527f43727970746f4b69747469657300000000000000000000000000000000000000602082015281565b60025460a060020a900460ff1615610bfa57600080fd5b610c043382611896565b1515610c0f57600080fd5b610c1981836118b6565b7f8c5be1e5ebec7d5bd14f71427d1e84f3dd0314c0f7b2291e5b200ac8c7c3b925338383604051600160a060020a039384168152919092166020820152604080820192909252606001905180910390a15050565b600054600160a060020a031681565b662386f26fc1000081565b600354600019015b90565b6201518081565b60025460a060020a900460ff1615610cb057600080fd5b600160a060020a0382161515610cc557600080fd5b30600160a060020a031682600160a060020a031614151515610ce657600080fd5b610cf033826118e4565b1515610cfb57600080fd5b610d058382611896565b1515610d1057600080fd5b610d1b838383611904565b505050565b6000805433600160a060020a03908116911614610d3c57600080fd5b5080600160a060020a0381166354c15b826040518163ffffffff1660e060020a028152600401602060405180830381600087803b1515610d7b57600080fd5b5af11515610d8857600080fd5b505050604051805190501515610d9d57600080fd5b60098054600160a060020a031916600160a060020a039290921691909117905550565b60005433600160a060020a03908116911614610ddb57600080fd5b600160a060020a0381161515610df057600080fd5b60008054600160a060020a031916600160a060020a0392909216919091179055565b60005433600160a060020a03908116911614610e2d57600080fd5b600160a060020a0381161515610e4257600080fd5b60028054600160a060020a031916600160a060020a0392909216919091179055565b60025460a060020a900460ff1615610e7b57600080fd5b610e853385611896565b1515610e9057600080fd5b600754610ea7908590600160a060020a03166118b6565b600754600160a060020a03166327ebe40a858585853360405160e060020a63ffffffff88160281526004810195909552602485019390935260448401919091526064830152600160a060020a0316608482015260a401600060405180830381600087803b1515610f1657600080fd5b5af11515610f2357600080fd5b50505050505050565b60005433600160a060020a03908116911614610f4757600080fd5b60025460a060020a900460ff161515610f5f57600080fd5b600754600160a060020a03161515610f7657600080fd5b600954600160a060020a03161515610f8d57600080fd5b600c54600160a060020a031615610fa357600080fd5b610fab6119da565b565b60005433600160a060020a03908116911614610fc857600080fd5b600160a060020a0381161515610fdd57600080fd5b60018054600160a060020a031916600160a060020a0392909216919091179055565b600754600160a060020a031690565b60025460a060020a900460ff1681565b60015460009033600160a060020a0390811691161461103c57600080fd5b50600154600160a060020a0330811631911681156108fc0282604051600060405180830381858888f19350505050151561107557600080fd5b50565b600081815260046020526040902054600160a060020a0316801515610ac257600080fd5b61afc881565b600c54600160a060020a031681565b6000805433600160a060020a039081169116146110cd57600080fd5b5080600160a060020a0381166385b861886040518163ffffffff1660e060020a028152600401602060405180830381600087803b151561110c57600080fd5b5af1151561111957600080fd5b50505060405180519050151561112e57600080fd5b60078054600160a060020a031916600160a060020a039290921691909117905550565b600160a060020a031660009081526005602052604090205490565b60005433600160a060020a0390811691161461118757600080fd5b60025460a060020a900460ff16151561119f57600080fd5b600c8054600160a060020a031916600160a060020a0383161790557f450db8da6efbe9c22f2347f7c2021231df1fc58d3ae9a2fa75d39fa44619930581604051600160a060020a03909116815260200160405180910390a150565b600154600160a060020a031690565b60025433600160a060020a0390811691161480611234575060005433600160a060020a039081169116145b8061124d575060015433600160a060020a039081169116145b151561125857600080fd5b60025460a060020a900460ff161561126f57600080fd5b6002805474ff0000000000000000000000000000000000000000191660a060020a179055565b61129d611c88565b60006112a7611c88565b60008060006112b587611151565b94508415156112e55760006040518059106112cd5750595b9080825280602002602001820160405250955061136c565b846040518059106112f35750595b9080825280602002602001820160405250935061130e610c87565b925060009150600190505b82811161136857600081815260046020526040902054600160a060020a0388811691161415611360578084838151811061134f57fe5b602090810290910101526001909101905b600101611319565b8395505b5050505050919050565b60025433600160a060020a03908116911614806113a1575060005433600160a060020a039081169116145b806113ba575060015433600160a060020a039081169116145b15156113c557600080fd5b600754600160a060020a0316635fd8c7106040518163ffffffff1660e060020a028152600401600060405180830381600087803b151561140457600080fd5b5af11515610d1b57600080fd5b60408051908101604052600281527f434b000000000000000000000000000000000000000000000000000000000000602082015281565b60025460a060020a900460ff161561145f57600080fd5b600160a060020a038216151561147457600080fd5b30600160a060020a031682600160a060020a03161415151561149557600080fd5b600754600160a060020a03838116911614156114b057600080fd5b6114ba3382611896565b15156114c557600080fd5b6114d0338383611904565b5050565b600460205260009081526040902054600160a060020a031681565b600660205260009081526040902054600160a060020a031681565b600254600160a060020a031681565b60025460a060020a900460ff1690565b600854600160a060020a031681565b60025460009033600160a060020a0390811691161461155657600080fd5b600b5461afc8901061156757600080fd5b611575600083601630611a2d565b60075490915061158f908290600160a060020a03166118b6565b600754600160a060020a03166327ebe40a826115a9611bbf565b6000620151803060405160e060020a63ffffffff88160281526004810195909552602485019390935260448401919091526064830152600160a060020a0316608482015260a401600060405180830381600087803b151561160957600080fd5b5af1151561161657600080fd5b5050600b80546001019055505050565b600054600160a060020a031690565b600080600080600060038681548110151561164c57fe5b600091825260209091206002909102016001810154905467ffffffffffffffff8216986c01000000000000000000000000830461ffff1698506801000000000000000090920463ffffffff169650945092505050565b61138881565b60005433600160a060020a039081169116146116c357600080fd5b60088054600160a060020a031916600160a060020a0392909216919091179055565b6116ed611c88565b6116f5611c88565b600160a060020a0383166000908152600560205260408082205482915180591061171c5750595b9080825280602002602001820160405250925060009150600090505b60035481101561178a57600081815260046020526040902054600160a060020a0386811691161415611782578083838151811061177157fe5b602090810290910101526001909101905b600101611738565b50909392505050565b600754600160a060020a031681565b600954600160a060020a031690565b600b5481565b600954600160a060020a031681565b60025460009033600160a060020a039081169116146117e457600080fd5b5080600160a060020a03811615156118045750600254600160a060020a03165b600a54611388901061181557600080fd5b600a8054600101905561182b6000858584611a2d565b5050505050565b600254600160a060020a031690565b611849611c88565b611851611c88565b600080846040518059106118625750595b818152601f19601f830116810160200160405290509250506020820190508461188c828287611c43565b5090949350505050565b600090815260046020526040902054600160a060020a0391821691161490565b6000918252600660205260409091208054600160a060020a031916600160a060020a03909216919091179055565b600090815260066020526040902054600160a060020a0391821691161490565b600160a060020a03808316600081815260056020908152604080832080546001019055858352600490915290208054600160a060020a031916909117905583161561198557600160a060020a03831660009081526005602090815260408083208054600019019055838352600690915290208054600160a060020a03191690555b7fddf252ad1be2c89b69c2b068fc378daa952ba7f163c4a11628f55a4df523b3ef838383604051600160a060020a039384168152919092166020820152604080820192909252606001905180910390a1505050565b60005433600160a060020a039081169116146119f557600080fd5b60025460a060020a900460ff161515611a0d57600080fd5b6002805474ff000000000000000000000000000000000000000019169055565b6000611a37611cc3565b600061ffff87168714611a4957600080fd5b6080604051908101604052808781526020014267ffffffffffffffff1681526020018663ffffffff1681526020018861ffff168152509150600160038054806001018281611a979190611cea565b6000928352602090922085916002020181518155602082015160018201805467ffffffffffffffff191667ffffffffffffffff9290921691909117905560408201518160010160086101000a81548163ffffffff021916908363ffffffff16021790555060608201516001909101805461ffff929092166c01000000000000000000000000026dffff000000000000000000000000199092169190911790555003905063ffffffff81168114611b4c57600080fd5b7ed9fd8c7ae79d91b3cfe623bd4d1b031795d13a23e5aa697895275a9e4becdd848284518863ffffffff166040518085600160a060020a0316600160a060020a0316815260200184815260200183815260200182815260200194505050505060405180910390a1610b9c60008583611904565b60075460009081908190600160a060020a031663eac9d94c6040518163ffffffff1660e060020a028152600401602060405180830381600087803b1515611c0557600080fd5b5af11515611c1257600080fd5b505050604051805192505050600281048101662386f26fc10000811015611c3d5750662386f26fc100005b92915050565b60005b60208210611c695782518452602084019350602083019250602082039150611c46565b6001826020036101000a03905080198351168185511617909352505050565b60206040519081016040526000815290565b60806040519081016040526004815b60008152600019919091019060200181611ca95790505090565b60806040519081016040908152600080835260208301819052908201819052606082015290565b815481835581811511610d1b57600083815260209020610d1b91610c8f9160029182028101918502015b80821115611d4157600081556001810180546dffffffffffffffffffffffffffff19169055600201611d14565b50905600a165627a7a72305820e8f25550c95169bc1631b09a318fc26d972955a39c18d55c59bc3d6800088dd20029",
  "source": "pragma solidity ^0.4.20;\n\nimport \"./Ownable.sol\";\nimport \"./Pausable.sol\";\nimport \"./ERC721.sol\";\nimport \"./GeneScienceTest.sol\";\nimport \"./SaleClockAuction.sol\";\n\n/// @title SEKRETOOOO\ncontract GeneScienceInterface {\n    /// @dev simply a boolean to indicate this is the contract we expect to be\n    function isGeneScience() public pure returns (bool);\n\n    /// @dev given genes of coin 1 & 2, return a genetic combination - may have a random factor\n    /// @param genes1 genes of mom\n    /// @param genes2 genes of sire\n    /// @return the genes that are supposed to be passed down the child\n    function mixGenes(uint256 genes1, uint256 genes2, uint256 targetBlock) public returns (uint256);\n}\n\ncontract CoinAccessControl {\n    /// @dev Emited when contract is upgraded - See README.md for updgrade plan\n    event ContractUpgrade(address newContract);\n\n    // The addresses of the accounts (or contracts) that can execute actions within each roles.\n    address public ceoAddress;\n    address public cfoAddress;\n    address public cooAddress;\n\n    bool public paused = false;\n\n    /// @dev Access modifier for CEO-only functionality\n    modifier onlyCEO() {\n        require(msg.sender == ceoAddress);\n        _;\n    }\n\n    /// @dev Access modifier for CFO-only functionality\n    modifier onlyCFO() {\n        require(msg.sender == cfoAddress);\n        _;\n    }\n\n    /// @dev Access modifier for COO-only functionality\n    modifier onlyCOO() {\n        require(msg.sender == cooAddress);\n        _;\n    }\n\n    modifier onlyCLevel() {\n        require(\n            msg.sender == cooAddress ||\n            msg.sender == ceoAddress ||\n            msg.sender == cfoAddress\n        );\n        _;\n    }\n\n    /// @dev Assigns a new address to act as the CEO. Only available to the current CEO.\n    /// @param _newCEO The address of the new CEO\n    function setCEO(address _newCEO) external onlyCEO {\n        require(_newCEO != address(0));\n\n        ceoAddress = _newCEO;\n    }\n\n    /// @dev Assigns a new address to act as the CFO. Only available to the current CEO.\n    /// @param _newCFO The address of the new CFO\n    function setCFO(address _newCFO) external onlyCEO {\n        require(_newCFO != address(0));\n\n        cfoAddress = _newCFO;\n    }\n\n    /// @dev Assigns a new address to act as the COO. Only available to the current CEO.\n    /// @param _newCOO The address of the new COO\n    function setCOO(address _newCOO) external onlyCEO {\n        require(_newCOO != address(0));\n\n        cooAddress = _newCOO;\n    }\n\n    function getCEO() external view returns(address) {\n        return ceoAddress;\n    }\n\n    function getCFO() external view returns(address) {\n        return cfoAddress;\n    }\n\n    function getCOO() external view returns(address) {\n        return cooAddress;\n    }\n\n    /*** Pausable functionality adapted from OpenZeppelin ***/\n\n    /// @dev Modifier to allow actions only when the contract IS NOT paused\n    modifier whenNotPaused() {\n        require(!paused);\n        _;\n    }\n\n    /// @dev Modifier to allow actions only when the contract IS paused\n    modifier whenPaused {\n        require(paused);\n        _;\n    }\n\n    /// @dev Called by any \"C-level\" role to pause the contract. Used only when\n    ///  a bug or exploit is detected and we need to limit damage.\n    function pause() external onlyCLevel whenNotPaused {\n        paused = true;\n    }\n\n    /// @dev Unpauses the smart contract. Can only be called by the CEO, since\n    ///  one reason we may pause the contract is when CFO or COO accounts are\n    ///  compromised.\n    /// @notice This is public rather than external so it can be called by\n    ///  derived contracts.\n    function unpause() public onlyCEO whenPaused {\n        // can't unpause if contract was upgraded\n        paused = false;\n    }\n}\n\n/// @title Base contract for CryptoKitties. Holds all common structs, events and base variables.\n/// @author Axiom Zen (https://www.axiomzen.co)\n/// @dev See the CoinCore contract documentation to understand how the various contract facets are arranged.\ncontract CoinBase is CoinAccessControl {\n    /*** EVENTS ***/\n\n    /// @dev The Birth event is fired whenever a new coin comes into existence. This obviously\n    ///  includes any time a cat is created through the giveBirth method, but it is also called\n    ///  when a new gen0 cat is created.\n    event NewCoin(address owner, uint256 coinId, uint256 genes, uint256 coinType);\n\n    /// @dev Transfer event as defined in current draft of ERC721. Emitted every time a coin\n    ///  ownership is assigned, including mintings.\n    event Transfer(address from, address to, uint256 tokenId);\n\n    /*** DATA TYPES ***/\n\n    /// @dev The main Coin struct. Every cat in CryptoKitties is represented by a copy\n    ///  of this structure, so great care was taken to ensure that it fits neatly into\n    ///  exactly two 256-bit words. Note that the order of the members in this structure\n    ///  is important because of the byte-packing rules used by Ethereum.\n    ///  Ref: http://solidity.readthedocs.io/en/develop/miscellaneous.html\n    struct Coin {\n        uint256 genes;\n        uint64 mintingTime;\n        uint32 coinType;\n        uint16 generation;\n    }\n\n    /*** STORAGE ***/\n\n    /// @dev An array containing the Coin struct for all Kitties in existence. The ID\n    ///  of each cat is actually an index into this array. Note that ID 0 is a negacat,\n    ///  the unCoin, the mythical beast that is the parent of all gen0 cats. A bizarre\n    ///  creature that is both matron and sire... to itself! Has an invalid genetic code.\n    ///  In other words, cat ID 0 is invalid... ;-)\n    Coin[] coins;\n\n    /// @dev A mapping from cat IDs to the address that owns them. All cats have\n    ///  some valid owner address, even gen0 cats are created with a non-zero owner.\n    mapping (uint256 => address) public coinIndexToOwner;\n\n    // @dev A mapping from owner address to count of tokens that address owns.\n    //  Used internally inside balanceOf() to resolve ownership count.\n    mapping (address => uint256) ownershipTokenCount;\n\n    /// @dev A mapping from CoinIDs to an address that has been approved to call\n    ///  transferFrom(). Each Coin can only have one approved address for transfer\n    ///  at any time. A zero value means no approval is outstanding.\n    mapping (uint256 => address) public coinIndexToApproved;\n\n    /// @dev The address of the ClockAuction contract that handles sales of Kitties. This\n    ///  same contract handles both peer-to-peer sales as well as the gen0 sales which are\n    ///  initiated every 15 minutes.\n    SaleClockAuction public saleAuction;\n\n    /// @dev Assigns ownership of a specific Coin to an address.\n    function _transfer(address _from, address _to, uint256 _tokenId) internal {\n        // Since the number of coins is capped to 2^32 we can't overflow this\n        ownershipTokenCount[_to]++;\n        // transfer ownership\n        coinIndexToOwner[_tokenId] = _to;\n        // When creating new coins _from is 0x0, but we can't account that address.\n        if (_from != address(0)) {\n            ownershipTokenCount[_from]--;\n            // clear any previously approved ownership exchange\n            delete coinIndexToApproved[_tokenId];\n        }\n        // Emit the transfer event.\n        emit Transfer(_from, _to, _tokenId);\n    }\n\n    /// @dev An internal method that creates a new coin and stores it. This\n    ///  method doesn't do any checking and should only be called when the\n    ///  input data is known to be valid. Will generate both a Birth event\n    ///  and a Transfer event.\n    /// @param _generation The generation number of this cat, must be computed by caller.\n    /// @param _genes The coin's genetic code.\n    /// @param _owner The inital owner of this cat, must be non-zero (except for the unCoin, ID 0)\n    function _createCoin(\n        uint256 _generation,\n        uint256 _genes,\n        uint32 _coinType,\n        address _owner\n    )\n        internal\n        returns (uint)\n    {\n        // These requires are not strictly necessary, our calling code should make\n        // sure that these conditions are never broken. However! _createCoin() is already\n        // an expensive call (for storage), and it doesn't hurt to be especially careful\n        // to ensure our data structures are always valid.\n        require(_generation == uint256(uint16(_generation)));\n\n        Coin memory _coin = Coin({\n            genes: _genes,\n            mintingTime: uint64(now),\n            coinType: _coinType,\n            generation: uint16(_generation)\n        });\n        uint256 newCoinId = coins.push(_coin) - 1;\n\n        // It's probably never going to happen, 4 billion cats is A LOT, but\n        // let's just be 100% sure we never let this happen.\n        require(newCoinId == uint256(uint32(newCoinId)));\n\n        // emit the minting event\n        emit NewCoin(\n            _owner,\n            newCoinId,\n            _coin.genes,\n            uint256(_coinType)\n        );\n\n        // This will assign ownership, and also emit the Transfer event as\n        // per ERC721 draft\n        _transfer(0, _owner, newCoinId);\n\n        return newCoinId;\n    }\n\n}\n\n/// @title The external contract that is responsible for generating metadata for the coins,\n///  it has one function that will return the data as bytes.\ncontract ERC721Metadata {\n    /// @dev Given a token Id, returns a byte array that is supposed to be converted into string.\n    function getMetadata(uint256 _tokenId, string) public view returns (bytes32[4] buffer, uint256 count) {\n        if (_tokenId == 1) {\n            buffer[0] = \"Hello World! :D\";\n            count = 15;\n        } else if (_tokenId == 2) {\n            buffer[0] = \"I would definitely choose a medi\";\n            buffer[1] = \"um length string.\";\n            count = 49;\n        } else if (_tokenId == 3) {\n            buffer[0] = \"Lorem ipsum dolor sit amet, mi e\";\n            buffer[1] = \"st accumsan dapibus augue lorem,\";\n            buffer[2] = \" tristique vestibulum id, libero\";\n            buffer[3] = \" suscipit varius sapien aliquam.\";\n            count = 128;\n        }\n    }\n}\n\n/// @title The facet of the CryptoKitties core contract that manages ownership, ERC-721 (draft) compliant.\n/// @author Axiom Zen (https://www.axiomzen.co)\n/// @dev Ref: https://github.com/ethereum/EIPs/issues/721\n///  See the CoinCore contract documentation to understand how the various contract facets are arranged.\ncontract CoinOwnership is CoinBase, ERC721 {\n\n    /// @notice Name and symbol of the non fungible token, as defined in ERC721.\n    string public constant name = \"CryptoKitties\";\n    string public constant symbol = \"CK\";\n\n    // The contract that will return coin metadata\n    ERC721Metadata public erc721Metadata;\n\n    bytes4 constant InterfaceSignature_ERC165 =\n        bytes4(keccak256('supportsInterface(bytes4)'));\n\n    bytes4 constant InterfaceSignature_ERC721 =\n        bytes4(keccak256('name()')) ^\n        bytes4(keccak256('symbol()')) ^\n        bytes4(keccak256('totalSupply()')) ^\n        bytes4(keccak256('balanceOf(address)')) ^\n        bytes4(keccak256('ownerOf(uint256)')) ^\n        bytes4(keccak256('approve(address,uint256)')) ^\n        bytes4(keccak256('transfer(address,uint256)')) ^\n        bytes4(keccak256('transferFrom(address,address,uint256)')) ^\n        bytes4(keccak256('tokensOfOwner(address)')) ^\n        bytes4(keccak256('tokenMetadata(uint256,string)'));\n\n    /// @notice Introspection interface as per ERC-165 (https://github.com/ethereum/EIPs/issues/165).\n    ///  Returns true for any standardized interfaces implemented by this contract. We implement\n    ///  ERC-165 (obviously!) and ERC-721.\n    function supportsInterface(bytes4 _interfaceID) external view returns (bool)\n    {\n        // DEBUG ONLY\n        //require((InterfaceSignature_ERC165 == 0x01ffc9a7) && (InterfaceSignature_ERC721 == 0x9a20483d));\n\n        return ((_interfaceID == InterfaceSignature_ERC165) || (_interfaceID == InterfaceSignature_ERC721));\n    }\n\n    /// @dev Set the address of the sibling contract that tracks metadata.\n    ///  CEO only.\n    function setMetadataAddress(address _contractAddress) public onlyCEO {\n        erc721Metadata = ERC721Metadata(_contractAddress);\n    }\n\n    // Internal utility functions: These functions all assume that their input arguments\n    // are valid. We leave it to public methods to sanitize their inputs and follow\n    // the required logic.\n\n    /// @dev Checks if a given address is the current owner of a particular Coin.\n    /// @param _claimant the address we are validating against.\n    /// @param _tokenId coin id, only valid when > 0\n    function _owns(address _claimant, uint256 _tokenId) internal view returns (bool) {\n        return coinIndexToOwner[_tokenId] == _claimant;\n    }\n\n    /// @dev Checks if a given address currently has transferApproval for a particular Coin.\n    /// @param _claimant the address we are confirming coin is approved for.\n    /// @param _tokenId coin id, only valid when > 0\n    function _approvedFor(address _claimant, uint256 _tokenId) internal view returns (bool) {\n        return coinIndexToApproved[_tokenId] == _claimant;\n    }\n\n    /// @dev Marks an address as being approved for transferFrom(), overwriting any previous\n    ///  approval. Setting _approved to address(0) clears all transfer approval.\n    ///  NOTE: _approve() does NOT send the Approval event. This is intentional because\n    ///  _approve() and transferFrom() are used together for putting Kitties on auction, and\n    ///  there is no value in spamming the log with Approval events in that case.\n    function _approve(uint256 _tokenId, address _approved) internal {\n        coinIndexToApproved[_tokenId] = _approved;\n    }\n\n    /// @notice Returns the number of Kitties owned by a specific address.\n    /// @param _owner The owner address to check.\n    /// @dev Required for ERC-721 compliance\n    function balanceOf(address _owner) public view returns (uint256 count) {\n        return ownershipTokenCount[_owner];\n    }\n\n    /// @notice Transfers a Coin to another address. If transferring to a smart\n    ///  contract be VERY CAREFUL to ensure that it is aware of ERC-721 (or\n    ///  CryptoKitties specifically) or your Coin may be lost forever. Seriously.\n    /// @param _to The address of the recipient, can be a user or contract.\n    /// @param _tokenId The ID of the Coin to transfer.\n    /// @dev Required for ERC-721 compliance.\n    function transfer(\n        address _to,\n        uint256 _tokenId\n    )\n        external\n        whenNotPaused\n    {\n        // Safety check to prevent against an unexpected 0x0 default.\n        require(_to != address(0));\n        // Disallow transfers to this contract to prevent accidental misuse.\n        // The contract should never own any coins (except very briefly\n        // after a gen0 cat is created and before it goes on auction).\n        require(_to != address(this));\n        // Disallow transfers to the auction contracts to prevent accidental\n        // misuse. Auction contracts should only take ownership of coins\n        // through the allow + transferFrom flow.\n        require(_to != address(saleAuction));\n\n        // You can only send your own cat.\n        require(_owns(msg.sender, _tokenId));\n\n        // Reassign ownership, clear pending approvals, emit Transfer event.\n        _transfer(msg.sender, _to, _tokenId);\n    }\n\n    /// @notice Grant another address the right to transfer a specific Coin via\n    ///  transferFrom(). This is the preferred flow for transfering NFTs to contracts.\n    /// @param _to The address to be granted transfer approval. Pass address(0) to\n    ///  clear all approvals.\n    /// @param _tokenId The ID of the Coin that can be transferred if this call succeeds.\n    /// @dev Required for ERC-721 compliance.\n    function approve(\n        address _to,\n        uint256 _tokenId\n    )\n        external\n        whenNotPaused\n    {\n        // Only an owner can grant transfer approval.\n        require(_owns(msg.sender, _tokenId));\n\n        // Register the approval (replacing any previous approval).\n        _approve(_tokenId, _to);\n\n        // Emit approval event.\n        emit Approval(msg.sender, _to, _tokenId);\n    }\n\n    /// @notice Transfer a Coin owned by another address, for which the calling address\n    ///  has previously been granted transfer approval by the owner.\n    /// @param _from The address that owns the Coin to be transfered.\n    /// @param _to The address that should take ownership of the Coin. Can be any address,\n    ///  including the caller.\n    /// @param _tokenId The ID of the Coin to be transferred.\n    /// @dev Required for ERC-721 compliance.\n    function transferFrom(\n        address _from,\n        address _to,\n        uint256 _tokenId\n    )\n        external\n        whenNotPaused\n    {\n        // Safety check to prevent against an unexpected 0x0 default.\n        require(_to != address(0));\n        // Disallow transfers to this contract to prevent accidental misuse.\n        // The contract should never own any coins (except very briefly\n        // after a gen0 cat is created and before it goes on auction).\n        require(_to != address(this));\n        // Check for approval and valid ownership\n        require(_approvedFor(msg.sender, _tokenId));\n        require(_owns(_from, _tokenId));\n\n        // Reassign ownership (also clears pending approvals and emits Transfer event).\n        _transfer(_from, _to, _tokenId);\n    }\n\n    /// @notice Returns the total number of Kitties currently in existence.\n    /// @dev Required for ERC-721 compliance.\n    function totalSupply() public view returns (uint) {\n        return coins.length - 1;\n    }\n\n    /// @notice Returns the address currently assigned ownership of a given Coin.\n    /// @dev Required for ERC-721 compliance.\n    function ownerOf(uint256 _tokenId)\n        external\n        view\n        returns (address owner)\n    {\n        owner = coinIndexToOwner[_tokenId];\n\n        require(owner != address(0));\n    }\n\n    /// @notice Returns a list of all Coin IDs assigned to an address.\n    /// @param _owner The owner whose Kitties we are interested in.\n    /// @dev This method MUST NEVER be called by smart contract code. First, it's fairly\n    ///  expensive (it walks the entire Coin array looking for cats belonging to owner),\n    ///  but it also returns a dynamic array, which is only supported for web3 calls, and\n    ///  not contract-to-contract calls.\n    function tokensOfOwner(address _owner) external view returns(uint256[] ownerTokens) {\n        uint256 tokenCount = balanceOf(_owner);\n\n        if (tokenCount == 0) {\n            // Return an empty array\n            return new uint256[](0);\n        } else {\n            uint256[] memory result = new uint256[](tokenCount);\n            uint256 totalCats = totalSupply();\n            uint256 resultIndex = 0;\n\n            // We count on the fact that all cats have IDs starting at 1 and increasing\n            // sequentially up to the totalCat count.\n            uint256 catId;\n\n            for (catId = 1; catId <= totalCats; catId++) {\n                if (coinIndexToOwner[catId] == _owner) {\n                    result[resultIndex] = catId;\n                    resultIndex++;\n                }\n            }\n\n            return result;\n        }\n    }\n\n    /// @dev Adapted from memcpy() by @arachnid (Nick Johnson <arachnid@notdot.net>)\n    ///  This method is licenced under the Apache License.\n    ///  Ref: https://github.com/Arachnid/solidity-stringutils/blob/2f6ca9accb48ae14c66f1437ec50ed19a0616f78/strings.sol\n    function _memcpy(uint _dest, uint _src, uint _len) private view {\n        // Copy word-length chunks while possible\n        for(; _len >= 32; _len -= 32) {\n            assembly {\n                mstore(_dest, mload(_src))\n            }\n            _dest += 32;\n            _src += 32;\n        }\n\n        // Copy remaining bytes\n        uint256 mask = 256 ** (32 - _len) - 1;\n        assembly {\n            let srcpart := and(mload(_src), not(mask))\n            let destpart := and(mload(_dest), mask)\n            mstore(_dest, or(destpart, srcpart))\n        }\n    }\n\n    /// @dev Adapted from toString(slice) by @arachnid (Nick Johnson <arachnid@notdot.net>)\n    ///  This method is licenced under the Apache License.\n    ///  Ref: https://github.com/Arachnid/solidity-stringutils/blob/2f6ca9accb48ae14c66f1437ec50ed19a0616f78/strings.sol\n    function _toString(bytes32[4] _rawBytes, uint256 _stringLength) private view returns (string) {\n        var outputString = new string(_stringLength);\n        uint256 outputPtr;\n        uint256 bytesPtr;\n\n        assembly {\n            outputPtr := add(outputString, 32)\n            bytesPtr := _rawBytes\n        }\n\n        _memcpy(outputPtr, bytesPtr, _stringLength);\n\n        return outputString;\n    }\n\n    /// @notice Returns a URI pointing to a metadata package for this token conforming to\n    ///  ERC-721 (https://github.com/ethereum/EIPs/issues/721)\n    /// @param _tokenId The ID number of the Coin whose metadata should be returned.\n    function tokenMetadata(uint256 _tokenId, string _preferredTransport) external view returns (string infoUrl) {\n        require(erc721Metadata != address(0));\n        bytes32[4] memory buffer;\n        uint256 count;\n        (buffer, count) = erc721Metadata.getMetadata(_tokenId, _preferredTransport);\n\n        return _toString(buffer, count);\n    }\n}\n\n\n\n/// @title A facet of CoinCore that manages Coin siring, gestation, and minting.\n/// @author Axiom Zen (https://www.axiomzen.co)\n/// @dev See the CoinCore contract documentation to understand how the various contract facets are arranged.\ncontract CoinBreeding is CoinOwnership {\n\n    /// @dev The address of the sibling contract that is used to implement the sooper-sekret\n    ///  genetic combination algorithm.\n    GeneScienceInterface public geneScience;\n\n    /// @dev Update the address of the genetic contract, can only be called by the CEO.\n    /// @param _address An address of a GeneScience contract instance to be used from this point forward.\n    function setGeneScienceAddress(address _address) external onlyCEO {\n        GeneScienceInterface candidateContract = GeneScienceInterface(_address);\n\n        // NOTE: verify that a contract is what we expect - https://github.com/Lunyr/crowdsale-contracts/blob/cfadd15986c30521d8ba7d5b6f57b4fefcc7ac38/contracts/LunyrToken.sol#L117\n        require(candidateContract.isGeneScience());\n\n        // Set the new contract address\n        geneScience = candidateContract;\n    }\n\n    function getGeneScienceAddress() external view returns(address) {\n        return address(geneScience);\n    }\n}\n\n\n\n\n/// @title Handles creating auctions for sale and siring of coins.\n///  This wrapper of ReverseAuction exists only so that users can create\n///  auctions with only one transaction.\ncontract CoinAuction is CoinBreeding {\n\n    // @notice The auction contract variables are defined in CoinBase to allow\n    //  us to refer to them in CoinOwnership to prevent accidental transfers.\n    // `saleAuction` refers to the auction for gen0 and p2p sale of coins.\n\n    /// @dev Sets the reference to the sale auction.\n    /// @param _address - Address of sale contract.\n    function setSaleAuctionAddress(address _address) external onlyCEO {\n        SaleClockAuction candidateContract = SaleClockAuction(_address);\n\n        // NOTE: verify that a contract is what we expect - https://github.com/Lunyr/crowdsale-contracts/blob/cfadd15986c30521d8ba7d5b6f57b4fefcc7ac38/contracts/LunyrToken.sol#L117\n        require(candidateContract.isSaleClockAuction());\n\n        // Set the new contract address\n        saleAuction = candidateContract;\n    }\n\n    function getSaleAuctionAddress() external view returns(address) {\n        return address(saleAuction);\n    }\n\n    /// @dev Put a coin up for auction.\n    ///  Does some ownership trickery to create auctions in one tx.\n    function createSaleAuction(\n        uint256 _coinId,\n        uint256 _startingPrice,\n        uint256 _endingPrice,\n        uint256 _duration\n    )\n        external\n        whenNotPaused\n    {\n        // Auction contract checks input sizes\n        // If coin is already on any auction, this will throw\n        // because it will be owned by the auction contract.\n        require(_owns(msg.sender, _coinId));\n        // Ensure the coin is not pregnant to prevent the auction\n        // contract accidentally receiving ownership of the child.\n        // NOTE: the coin IS allowed to be in a cooldown.\n        _approve(_coinId, saleAuction);\n        // Sale auction throws if inputs are invalid and clears\n        // transfer and sire approval after escrowing the coin.\n        saleAuction.createAuction(\n            _coinId,\n            _startingPrice,\n            _endingPrice,\n            _duration,\n            msg.sender\n        );\n    }\n\n    /// @dev Transfers the balance of the sale auction contract\n    /// to the CoinCore contract. We use two-step withdrawal to\n    /// prevent two transfer calls in the auction bid function.\n    function withdrawAuctionBalances() external onlyCLevel {\n        saleAuction.withdrawBalance();\n    }\n}\n\n\n/// @title all functions related to creating coins\ncontract CoinMinting is CoinAuction {\n\n    // Limits the number of cats the contract owner can ever create.\n    uint256 public constant PROMO_CREATION_LIMIT = 5000;\n    uint256 public constant GEN0_CREATION_LIMIT = 45000;\n\n    // Constants for gen0 auctions.\n    uint256 public constant GEN0_STARTING_PRICE = 10 finney;\n    uint256 public constant GEN0_AUCTION_DURATION = 1 days;\n\n    // Counts the number of cats the contract owner has created.\n    uint256 public promoCreatedCount;\n    uint256 public gen0CreatedCount;\n\n    /// @dev we can create promo coins, up to a limit. Only callable by COO\n    /// @param _genes the encoded genes of the coin to be created, any value is accepted\n    /// @param _owner the future owner of the created coins. Default to contract COO\n    function createPromoCoin(uint256 _genes, uint32 _coinType, address _owner) external onlyCOO {\n        address coinOwner = _owner;\n        if (coinOwner == address(0)) {\n             coinOwner = cooAddress;\n        }\n        require(promoCreatedCount < PROMO_CREATION_LIMIT);\n\n        promoCreatedCount++;\n        _createCoin(0, _genes, _coinType, coinOwner);\n    }\n\n    /// @dev Creates a new gen0 coin with the given genes and\n    ///  creates an auction for it.\n    function createGen0Auction(uint256 _genes) external onlyCOO {\n        require(gen0CreatedCount < GEN0_CREATION_LIMIT);\n\n        uint256 coinId = _createCoin(0, _genes, 22, address(this));\n        _approve(coinId, saleAuction);\n\n        saleAuction.createAuction(\n            coinId,\n            _computeNextGen0Price(),\n            0,\n            GEN0_AUCTION_DURATION,\n            address(this)\n        );\n\n        gen0CreatedCount++;\n    }\n\n    /// @dev Computes the next gen0 auction starting price, given\n    ///  the average of the past 5 prices + 50%.\n    function _computeNextGen0Price() internal view returns (uint256) {\n        uint256 avePrice = saleAuction.averageGen0SalePrice();\n\n        // Sanity check to ensure we don't overflow arithmetic\n        // require(avePrice == uint256(uint128(avePrice)));\n\n        uint256 nextPrice = avePrice + (avePrice / 2);\n\n        // We never auction for less than starting price\n        if (nextPrice < GEN0_STARTING_PRICE) {\n            nextPrice = GEN0_STARTING_PRICE;\n        }\n\n        return nextPrice;\n    }\n}\n\n\n/// @title CryptoKitties: Collectible, breedable, and oh-so-adorable cats on the Ethereum blockchain.\n/// @author Axiom Zen (https://www.axiomzen.co)\n/// @dev The main CryptoKitties contract, keeps track of coins so they don't wander around and get lost.\ncontract CoinCore is CoinMinting {\n\n    // This is the main CryptoKitties contract. In order to keep our code seperated into logical sections,\n    // we've broken it up in two ways. First, we have several seperately-instantiated sibling contracts\n    // that handle auctions and our super-top-secret genetic combination algorithm. The auctions are\n    // seperate since their logic is somewhat complex and there's always a risk of subtle bugs. By keeping\n    // them in their own contracts, we can upgrade them without disrupting the main contract that tracks\n    // coin ownership. The genetic combination algorithm is kept seperate so we can open-source all of\n    // the rest of our code without making it _too_ easy for folks to figure out how the genetics work.\n    // Don't worry, I'm sure someone will reverse engineer it soon enough!\n    //\n    // Secondly, we break the core contract into multiple files using inheritence, one for each major\n    // facet of functionality of CK. This allows us to keep related code bundled together while still\n    // avoiding a single giant file with everything in it. The breakdown is as follows:\n    //\n    //      - CoinBase: This is where we define the most fundamental code shared throughout the core\n    //             functionality. This includes our main data storage, constants and data types, plus\n    //             internal functions for managing these items.\n    //\n    //      - CoinAccessControl: This contract manages the various addresses and constraints for operations\n    //             that can be executed only by specific roles. Namely CEO, CFO and COO.\n    //\n    //      - CoinOwnership: This provides the methods required for basic non-fungible token\n    //             transactions, following the draft ERC-721 spec (https://github.com/ethereum/EIPs/issues/721).\n    //    \n    //      - CoinAuctions: Here we have the public methods for auctioning or bidding on cats or siring\n    //             services. The actual auction functionality is handled in two sibling contracts (one\n    //             for sales and one for siring), while auction creation and bidding is mostly mediated\n    //             through this facet of the core contract.\n    //\n    //      - CoinMinting: This final facet contains the functionality we use for creating new gen0 cats.\n    //             We can make up to 5000 \"promo\" cats that can be given away (especially important when\n    //             the community is new), and all others can only be created and then immediately put up\n    //             for auction via an algorithmically determined starting price. Regardless of how they\n    //             are created, there is a hard limit of 50k gen0 cats. After that, it's all up to the\n    //             community to breed, breed, breed!\n\n    // Set in case the core contract is broken and an upgrade is required\n    address public newContractAddress;\n\n    /// @notice Creates the main CryptoKitties smart contract instance.\n    function CoinCore() public {\n        // Starts paused.\n        paused = true;\n\n        // the creator of the contract is the initial CEO\n        ceoAddress = msg.sender;\n\n        // the creator of the contract is also the initial COO\n        cooAddress = msg.sender;\n\n        // start with the mythical coin 0 - so we don't have generation-0 parent issues\n        _createCoin(0, uint256(-1), 0, address(0));\n    }\n\n    /// @dev Used to mark the smart contract as upgraded, in case there is a serious\n    ///  breaking bug. This method does nothing but keep track of the new contract and\n    ///  emit a message indicating that the new address is set. It's up to clients of this\n    ///  contract to update to the new contract address in that case. (This contract will\n    ///  be paused indefinitely if such an upgrade takes place.)\n    /// @param _v2Address new address\n    function setNewAddress(address _v2Address) external onlyCEO whenPaused {\n        // See README.md for updgrade plan\n        newContractAddress = _v2Address;\n        emit ContractUpgrade(_v2Address);\n    }\n\n    /// @notice No tipping!\n    /// @dev Reject all Ether from being sent here, unless it's from one of the\n    ///  two auction contracts. (Hopefully, we can prevent user accidents.)\n    function() external payable {\n        require(msg.sender == address(saleAuction));\n    }\n\n    /// @notice Returns all the relevant information about a specific coin.\n    /// @param _id The ID of the coin of interest.\n    function getCoin(uint256 _id)\n        external\n        view\n        returns (\n        uint256 mintingTime,\n        uint256 generation,\n        uint256 coinType,\n        uint256 genes\n    ) {\n        Coin storage kit = coins[_id];\n\n        mintingTime = uint256(kit.mintingTime);\n        generation = uint256(kit.generation);\n        coinType = uint256(kit.coinType);\n        genes = kit.genes;\n    }\n\n    function getCoinsByOwner(address _owner) external view returns(uint[]) {\n        uint[] memory result = new uint[](ownershipTokenCount[_owner]);\n        uint counter = 0;\n\n        for (uint i = 0; i < coins.length; i++) {\n            if (coinIndexToOwner[i] == _owner) {\n                result[counter] = i;\n                counter++;\n            }\n        }\n        return result;\n    }\n\n    /// @dev Override unpause so it requires all external contract addresses\n    ///  to be set before contract can be unpaused. Also, we can't have\n    ///  newContractAddress set either, because then the contract was upgraded.\n    /// @notice This is public rather than external so we can call super.unpause\n    ///  without using an expensive CALL.\n    function unpause() public onlyCEO whenPaused {\n        require(saleAuction != address(0));\n        require(geneScience != address(0));\n        require(newContractAddress == address(0));\n\n        // Actually unpause the contract.\n        super.unpause();\n    }\n\n    function isPaused() external view returns(bool) {\n        return paused;\n    }\n\n    // @dev Allows the CFO to capture the balance available to the contract.\n    function withdrawBalance() external onlyCFO {\n        uint balance = this.balance;\n        cfoAddress.transfer(balance);\n        \n    }\n}",
  "sourcePath": "/Users/thomas/Code/Learn/truehodler/contracts/TrueHodler.sol",
  "compiler": {
    "name": "solc",
    "version": "0.4.21+commit.dfe3193c.Emscripten.clang"
  },
  "schemaVersion": "2.0.0",
  "updatedAt": "2018-04-22T23:15:56.672Z"
}