{
  "contractName": "GeneScienceTest",
  "abi": [
    {
      "constant": true,
      "inputs": [],
      "name": "isGeneScience",
      "outputs": [
        {
          "name": "",
          "type": "bool"
        }
      ],
      "payable": false,
      "stateMutability": "pure",
      "type": "function"
    },
    {
      "constant": false,
      "inputs": [
        {
          "name": "genes1",
          "type": "uint256"
        },
        {
          "name": "genes2",
          "type": "uint256"
        },
        {
          "name": "targetBlock",
          "type": "uint256"
        }
      ],
      "name": "mixGenes",
      "outputs": [
        {
          "name": "",
          "type": "uint256"
        }
      ],
      "payable": false,
      "stateMutability": "nonpayable",
      "type": "function"
    }
  ],
  "bytecode": "0x6060604052341561000f57600080fd5b60ee8061001d6000396000f30060606040526004361060485763ffffffff7c01000000000000000000000000000000000000000000000000000000006000350416630d9f5aed8114604d57806354c15b82146078575b600080fd5b3415605757600080fd5b6066600435602435604435609c565b60405190815260200160405180910390f35b3415608257600080fd5b608860bd565b604051901515815260200160405180910390f35b60008183850101604051908152602001604051908190039020949350505050565b6001905600a165627a7a72305820ff7a42ed1e889f262e91940322d8d8e89c35453e93b026a349989e4e86d796140029",
  "source": "pragma solidity ^0.4.20;\n\ncontract GeneScienceTest {\n    function isGeneScience() public pure returns (bool) {\n        return true;   \n    }\n    \n    function mixGenes(uint256 genes1, uint256 genes2, uint256 targetBlock) public returns (uint256) {\n        return uint256(keccak256(genes1 + genes2 + targetBlock));\n    }\n}",
  "sourcePath": "/Users/thomas/Code/Learn/truehodler/contracts/GeneScienceTest.sol",
  "compiler": {
    "name": "solc",
    "version": "0.4.21+commit.dfe3193c.Emscripten.clang"
  },
  "schemaVersion": "2.0.0",
  "updatedAt": "2018-04-22T23:15:56.683Z"
}