{
  "contractName": "SaleClockAuction",
  "abi": [
    {
      "constant": true,
      "inputs": [],
      "name": "getNonFungibleContract",
      "outputs": [
        {
          "name": "",
          "type": "address"
        }
      ],
      "payable": false,
      "stateMutability": "view",
      "type": "function"
    },
    {
      "constant": false,
      "inputs": [],
      "name": "unpause",
      "outputs": [
        {
          "name": "",
          "type": "bool"
        }
      ],
      "payable": false,
      "stateMutability": "nonpayable",
      "type": "function"
    },
    {
      "constant": true,
      "inputs": [
        {
          "name": "",
          "type": "uint256"
        }
      ],
      "name": "lastGen0SalePrices",
      "outputs": [
        {
          "name": "",
          "type": "uint256"
        }
      ],
      "payable": false,
      "stateMutability": "view",
      "type": "function"
    },
    {
      "constant": true,
      "inputs": [],
      "name": "paused",
      "outputs": [
        {
          "name": "",
          "type": "bool"
        }
      ],
      "payable": false,
      "stateMutability": "view",
      "type": "function"
    },
    {
      "constant": false,
      "inputs": [],
      "name": "withdrawBalance",
      "outputs": [],
      "payable": false,
      "stateMutability": "nonpayable",
      "type": "function"
    },
    {
      "constant": true,
      "inputs": [
        {
          "name": "_tokenId",
          "type": "uint256"
        }
      ],
      "name": "getAuction",
      "outputs": [
        {
          "name": "seller",
          "type": "address"
        },
        {
          "name": "startingPrice",
          "type": "uint256"
        },
        {
          "name": "endingPrice",
          "type": "uint256"
        },
        {
          "name": "duration",
          "type": "uint256"
        },
        {
          "name": "startedAt",
          "type": "uint256"
        }
      ],
      "payable": false,
      "stateMutability": "view",
      "type": "function"
    },
    {
      "constant": true,
      "inputs": [],
      "name": "ownerCut",
      "outputs": [
        {
          "name": "",
          "type": "uint256"
        }
      ],
      "payable": false,
      "stateMutability": "view",
      "type": "function"
    },
    {
      "constant": false,
      "inputs": [],
      "name": "pause",
      "outputs": [
        {
          "name": "",
          "type": "bool"
        }
      ],
      "payable": false,
      "stateMutability": "nonpayable",
      "type": "function"
    },
    {
      "constant": true,
      "inputs": [],
      "name": "isSaleClockAuction",
      "outputs": [
        {
          "name": "",
          "type": "bool"
        }
      ],
      "payable": false,
      "stateMutability": "view",
      "type": "function"
    },
    {
      "constant": false,
      "inputs": [
        {
          "name": "_tokenId",
          "type": "uint256"
        }
      ],
      "name": "cancelAuctionWhenPaused",
      "outputs": [],
      "payable": false,
      "stateMutability": "nonpayable",
      "type": "function"
    },
    {
      "constant": true,
      "inputs": [],
      "name": "gen0SaleCount",
      "outputs": [
        {
          "name": "",
          "type": "uint256"
        }
      ],
      "payable": false,
      "stateMutability": "view",
      "type": "function"
    },
    {
      "constant": true,
      "inputs": [],
      "name": "owner",
      "outputs": [
        {
          "name": "",
          "type": "address"
        }
      ],
      "payable": false,
      "stateMutability": "view",
      "type": "function"
    },
    {
      "constant": false,
      "inputs": [
        {
          "name": "_tokenId",
          "type": "uint256"
        }
      ],
      "name": "cancelAuction",
      "outputs": [],
      "payable": false,
      "stateMutability": "nonpayable",
      "type": "function"
    },
    {
      "constant": true,
      "inputs": [
        {
          "name": "_tokenId",
          "type": "uint256"
        }
      ],
      "name": "getCurrentPrice",
      "outputs": [
        {
          "name": "",
          "type": "uint256"
        }
      ],
      "payable": false,
      "stateMutability": "view",
      "type": "function"
    },
    {
      "constant": true,
      "inputs": [],
      "name": "nonFungibleContract",
      "outputs": [
        {
          "name": "",
          "type": "address"
        }
      ],
      "payable": false,
      "stateMutability": "view",
      "type": "function"
    },
    {
      "constant": false,
      "inputs": [
        {
          "name": "newOwner",
          "type": "address"
        }
      ],
      "name": "transferOwnership",
      "outputs": [],
      "payable": false,
      "stateMutability": "nonpayable",
      "type": "function"
    },
    {
      "inputs": [
        {
          "name": "_nftAddr",
          "type": "address"
        },
        {
          "name": "_cut",
          "type": "uint256"
        }
      ],
      "payable": false,
      "stateMutability": "nonpayable",
      "type": "constructor"
    },
    {
      "anonymous": false,
      "inputs": [
        {
          "indexed": false,
          "name": "tokenId",
          "type": "uint256"
        },
        {
          "indexed": false,
          "name": "startingPrice",
          "type": "uint256"
        },
        {
          "indexed": false,
          "name": "endingPrice",
          "type": "uint256"
        },
        {
          "indexed": false,
          "name": "duration",
          "type": "uint256"
        }
      ],
      "name": "AuctionCreated",
      "type": "event"
    },
    {
      "anonymous": false,
      "inputs": [
        {
          "indexed": false,
          "name": "tokenId",
          "type": "uint256"
        },
        {
          "indexed": false,
          "name": "totalPrice",
          "type": "uint256"
        },
        {
          "indexed": false,
          "name": "winner",
          "type": "address"
        }
      ],
      "name": "AuctionSuccessful",
      "type": "event"
    },
    {
      "anonymous": false,
      "inputs": [
        {
          "indexed": false,
          "name": "tokenId",
          "type": "uint256"
        }
      ],
      "name": "AuctionCancelled",
      "type": "event"
    },
    {
      "anonymous": false,
      "inputs": [],
      "name": "Pause",
      "type": "event"
    },
    {
      "anonymous": false,
      "inputs": [],
      "name": "Unpause",
      "type": "event"
    },
    {
      "anonymous": false,
      "inputs": [
        {
          "indexed": true,
          "name": "previousOwner",
          "type": "address"
        },
        {
          "indexed": true,
          "name": "newOwner",
          "type": "address"
        }
      ],
      "name": "OwnershipTransferred",
      "type": "event"
    },
    {
      "constant": false,
      "inputs": [
        {
          "name": "_tokenId",
          "type": "uint256"
        },
        {
          "name": "_startingPrice",
          "type": "uint256"
        },
        {
          "name": "_endingPrice",
          "type": "uint256"
        },
        {
          "name": "_duration",
          "type": "uint256"
        },
        {
          "name": "_seller",
          "type": "address"
        }
      ],
      "name": "createAuction",
      "outputs": [],
      "payable": false,
      "stateMutability": "nonpayable",
      "type": "function"
    },
    {
      "constant": false,
      "inputs": [
        {
          "name": "_tokenId",
          "type": "uint256"
        }
      ],
      "name": "bid",
      "outputs": [],
      "payable": true,
      "stateMutability": "payable",
      "type": "function"
    },
    {
      "constant": true,
      "inputs": [],
      "name": "averageGen0SalePrice",
      "outputs": [
        {
          "name": "",
          "type": "uint256"
        }
      ],
      "payable": false,
      "stateMutability": "view",
      "type": "function"
    }
  ],
  "bytecode": "0x60606040526000805460a060020a60ff02191690556004805460ff19166001179055341561002c57600080fd5b604051604080610fb7833981016040528080519190602001805160008054600160a060020a03191633600160a060020a0316178155909250839150829061271082111561007857600080fd5b50600281905581600160a060020a0381166301ffc9a77f9a20483d000000000000000000000000000000000000000000000000000000006040517c010000000000000000000000000000000000000000000000000000000063ffffffff84160281527fffffffff000000000000000000000000000000000000000000000000000000009091166004820152602401602060405180830381600087803b151561011f57600080fd5b5af1151561012c57600080fd5b50505060405180519050151561014157600080fd5b60018054600160a060020a03909216600160a060020a031990921691909117905550505050610e42806101756000396000f3006060604052600436106100ed5763ffffffff60e060020a60003504166327ebe40a81146100f257806330496d5b1461011f5780633f4ba83a1461014e578063454a2ab314610175578063484eccb4146101805780635c975abb146101a85780635fd8c710146101bb57806378bd7935146101ce57806383b5ff8b1461021f5780638456cb591461023257806385b8618814610245578063878eb368146102585780638a98a9cc1461026e5780638da5cb5b1461028157806396b5a75514610294578063c55d0f56146102aa578063dd1b7a0f146102c0578063eac9d94c146102d3578063f2fde38b146102e6575b600080fd5b34156100fd57600080fd5b61011d600435602435604435606435600160a060020a0360843516610305565b005b341561012a57600080fd5b61013261042c565b604051600160a060020a03909116815260200160405180910390f35b341561015957600080fd5b61016161043b565b604051901515815260200160405180910390f35b61011d6004356104bf565b341561018b57600080fd5b610196600435610529565b60405190815260200160405180910390f35b34156101b357600080fd5b61016161053d565b34156101c657600080fd5b61011d61054d565b34156101d957600080fd5b6101e46004356105c3565b604051600160a060020a03909516855260208501939093526040808501929092526060840152608083019190915260a0909101905180910390f35b341561022a57600080fd5b610196610650565b341561023d57600080fd5b610161610656565b341561025057600080fd5b6101616106df565b341561026357600080fd5b61011d6004356106e8565b341561027957600080fd5b610196610759565b341561028c57600080fd5b61013261075f565b341561029f57600080fd5b61011d60043561076e565b34156102b557600080fd5b6101966004356107b7565b34156102cb57600080fd5b6101326107e9565b34156102de57600080fd5b6101966107f8565b34156102f157600080fd5b61011d600160a060020a036004351661082c565b61030d610de8565b6001608060020a038516851461032257600080fd5b6001608060020a038416841461033757600080fd5b67ffffffffffffffff8316831461034d57600080fd5b60015433600160a060020a0390811691161461036857600080fd5b61037282876108c7565b60a06040519081016040528083600160a060020a03168152602001866001608060020a03168152602001856001608060020a031681526020018467ffffffffffffffff1681526020014267ffffffffffffffff1681525090506103d5868261093e565b7fa9c8dfcda5664a5a124c713e386da27de87432d5b668e79458501eb296389ba7868686866040518085815260200184815260200183815260200182815260200194505050505060405180910390a1505050505050565b600154600160a060020a031690565b6000805433600160a060020a0390811691161461045757600080fd5b60005460a060020a900460ff16151561046f57600080fd5b6000805474ff0000000000000000000000000000000000000000191690557f7805862f689e2f13df9f062ff482ad3ad112aca9e0847911ed832e158c525b3360405160405180910390a150600190565b600081815260036020526040812054600160a060020a0316906104e28334610ad9565b90506104ee3384610c0a565b600154600160a060020a038381169116141561052457600580548291600691066005811061051857fe5b01556005805460010190555b505050565b6006816005811061053657fe5b0154905081565b60005460a060020a900460ff1681565b60015460008054600160a060020a039283169233811691161480610582575081600160a060020a031633600160a060020a0316145b151561058d57600080fd5b81600160a060020a03166108fc30600160a060020a0316319081150290604051600060405180830381858888f150505050505050565b600081815260036020526040812081908190819081906105e281610c60565b15156105ed57600080fd5b80546001820154600290920154600160a060020a03909116986001608060020a038084169950700100000000000000000000000000000000909304909216965067ffffffffffffffff808216965068010000000000000000909104169350915050565b60025481565b6000805433600160a060020a0390811691161461067257600080fd5b60005460a060020a900460ff161561068957600080fd5b6000805474ff0000000000000000000000000000000000000000191660a060020a1790557f6985a02210a168e66602d3235cb6db0e70f92b3ba4d376a33c0f3d9434bff62560405160405180910390a150600190565b60045460ff1681565b6000805460a060020a900460ff16151561070157600080fd5b60005433600160a060020a0390811691161461071c57600080fd5b50600081815260036020526040902061073481610c60565b151561073f57600080fd5b8054610755908390600160a060020a0316610c81565b5050565b60055481565b600054600160a060020a031681565b60008181526003602052604081209061078682610c60565b151561079157600080fd5b508054600160a060020a0390811690331681146107ad57600080fd5b6105248382610c81565b60008181526003602052604081206107ce81610c60565b15156107d957600080fd5b6107e281610ccb565b9392505050565b600154600160a060020a031681565b600080805b6005811015610822576006816005811061081357fe5b015491909101906001016107fd565b5060059004919050565b60005433600160a060020a0390811691161461084757600080fd5b600160a060020a038116151561085c57600080fd5b600054600160a060020a0380831691167f8be0079c531659141344cd1fd0a4f28419497f9722a3daafe3b4186f6b6457e060405160405180910390a36000805473ffffffffffffffffffffffffffffffffffffffff1916600160a060020a0392909216919091179055565b600154600160a060020a03166323b872dd83308460405160e060020a63ffffffff8616028152600160a060020a0393841660048201529190921660248201526044810191909152606401600060405180830381600087803b151561092a57600080fd5b5af1151561093757600080fd5b5050505050565b603c816060015167ffffffffffffffff16101561095a57600080fd5b600082815260036020526040902081908151815473ffffffffffffffffffffffffffffffffffffffff1916600160a060020a039190911617815560208201516001820180546fffffffffffffffffffffffffffffffff19166001608060020a039290921691909117905560408201516001820180546001608060020a03928316700100000000000000000000000000000000029216919091179055606082015160028201805467ffffffffffffffff191667ffffffffffffffff9290921691909117905560808201516002909101805467ffffffffffffffff9290921668010000000000000000026fffffffffffffffff000000000000000019909216919091179055507fa9c8dfcda5664a5a124c713e386da27de87432d5b668e79458501eb296389ba78260208301516001608060020a031683604001516001608060020a0316846060015167ffffffffffffffff166040518085815260200184815260200183815260200182815260200194505050505060405180910390a15050565b60008281526003602052604081208180808080610af586610c60565b1515610b0057600080fd5b610b0986610ccb565b945084881015610b1857600080fd5b8554600160a060020a03169350610b2e89610d52565b6000851115610b7857610b4085610d9f565b92508285039150600160a060020a03841682156108fc0283604051600060405180830381858888f193505050501515610b7857600080fd5b50838703600160a060020a03331681156108fc0282604051600060405180830381858888f193505050501515610bad57600080fd5b7f4fcc30d90a842164dd58501ab874a101a3749c3d4747139cefe7c876f4ccebd28986336040519283526020830191909152600160a060020a03166040808301919091526060909101905180910390a15092979650505050505050565b600154600160a060020a031663a9059cbb838360405160e060020a63ffffffff8516028152600160a060020a0390921660048301526024820152604401600060405180830381600087803b151561092a57600080fd5b6002015460006801000000000000000090910467ffffffffffffffff161190565b610c8a82610d52565b610c948183610c0a565b7f2809c7e17bf978fbc7194c0a694b638c4215e9140cacc6c38ca36010b45697df8260405190815260200160405180910390a15050565b6002810154600090819068010000000000000000900467ffffffffffffffff16421115610d115750600282015468010000000000000000900467ffffffffffffffff1642035b600183015460028401546107e2916001608060020a0380821692700100000000000000000000000000000000909204169067ffffffffffffffff1684610dab565b6000908152600360205260408120805473ffffffffffffffffffffffffffffffffffffffff19168155600181019190915560020180546fffffffffffffffffffffffffffffffff19169055565b60025461271091020490565b6000808080858510610dbf57869350610ddd565b878703925085858402811515610dd157fe5b05915081880190508093505b505050949350505050565b60a06040519081016040908152600080835260208301819052908201819052606082018190526080820152905600a165627a7a72305820ab018f13e95f623b31325611e444fa3485da3532ffb68c82c8d5b85e51e344520029",
  "source": "pragma solidity ^0.4.20;\n\nimport \"./ClockAuction.sol\";\n\n/// @title Clock auction modified for sale of kitties\n/// @notice We omit a fallback function to prevent accidental sends to this contract.\ncontract SaleClockAuction is ClockAuction {\n\n    // @dev Sanity check that allows us to ensure that we are pointing to the\n    //  right auction in our setSaleAuctionAddress() call.\n    bool public isSaleClockAuction = true;\n\n    // Tracks last 5 sale price of gen0 kitty sales\n    uint256 public gen0SaleCount;\n    uint256[5] public lastGen0SalePrices;\n\n    // Delegate constructor\n    function SaleClockAuction(address _nftAddr, uint256 _cut) public\n    ClockAuction(_nftAddr, _cut) {}\n\n    /// @dev Creates and begins a new auction.\n    /// @param _tokenId - ID of token to auction, sender must be owner.\n    /// @param _startingPrice - Price of item (in wei) at beginning of auction.\n    /// @param _endingPrice - Price of item (in wei) at end of auction.\n    /// @param _duration - Length of auction (in seconds).\n    /// @param _seller - Seller, if not the message sender\n    function createAuction(\n        uint256 _tokenId,\n        uint256 _startingPrice,\n        uint256 _endingPrice,\n        uint256 _duration,\n        address _seller\n    )\n        external\n    {\n        // Sanity check that no inputs overflow how many bits we've allocated\n        // to store them in the auction struct.\n        require(_startingPrice == uint256(uint128(_startingPrice)));\n        require(_endingPrice == uint256(uint128(_endingPrice)));\n        require(_duration == uint256(uint64(_duration)));\n\n        require(msg.sender == address(nonFungibleContract));\n        _escrow(_seller, _tokenId);\n        Auction memory auction = Auction(\n            _seller,\n            uint128(_startingPrice),\n            uint128(_endingPrice),\n            uint64(_duration),\n            uint64(now)\n        );\n        _addAuction(_tokenId, auction);\n\n        emit AuctionCreated(_tokenId, _startingPrice, _endingPrice, _duration);\n    }\n\n    /// @dev Updates lastSalePrice if seller is the nft contract\n    /// Otherwise, works the same as default bid method.\n    function bid(uint256 _tokenId)\n        external\n        payable\n    {\n        // _bid verifies token ID size\n        address seller = tokenIdToAuction[_tokenId].seller;\n        uint256 price = _bid(_tokenId, msg.value);\n        _transfer(msg.sender, _tokenId);\n\n        // If not a gen0 auction, exit\n        if (seller == address(nonFungibleContract)) {\n            // Track gen0 sale prices\n            lastGen0SalePrices[gen0SaleCount % 5] = price;\n            gen0SaleCount++;\n        }\n    }\n\n    function averageGen0SalePrice() external view returns (uint256) {\n        uint256 sum = 0;\n        for (uint256 i = 0; i < 5; i++) {\n            sum += lastGen0SalePrices[i];\n        }\n        return sum / 5;\n    }\n\n}",
  "sourcePath": "/Users/thomas/Code/Learn/truehodler/contracts/SaleClockAuction.sol",
  "compiler": {
    "name": "solc",
    "version": "0.4.21+commit.dfe3193c.Emscripten.clang"
  },
  "schemaVersion": "2.0.0",
  "updatedAt": "2018-04-22T23:15:56.685Z"
}