{
  "contractName": "SiringClockAuction",
  "abi": [
    {
      "constant": false,
      "inputs": [],
      "name": "unpause",
      "outputs": [
        {
          "name": "",
          "type": "bool"
        }
      ],
      "payable": false,
      "stateMutability": "nonpayable",
      "type": "function"
    },
    {
      "constant": true,
      "inputs": [],
      "name": "paused",
      "outputs": [
        {
          "name": "",
          "type": "bool"
        }
      ],
      "payable": false,
      "stateMutability": "view",
      "type": "function"
    },
    {
      "constant": false,
      "inputs": [],
      "name": "withdrawBalance",
      "outputs": [],
      "payable": false,
      "stateMutability": "nonpayable",
      "type": "function"
    },
    {
      "constant": true,
      "inputs": [],
      "name": "isSiringClockAuction",
      "outputs": [
        {
          "name": "",
          "type": "bool"
        }
      ],
      "payable": false,
      "stateMutability": "view",
      "type": "function"
    },
    {
      "constant": true,
      "inputs": [
        {
          "name": "_tokenId",
          "type": "uint256"
        }
      ],
      "name": "getAuction",
      "outputs": [
        {
          "name": "seller",
          "type": "address"
        },
        {
          "name": "startingPrice",
          "type": "uint256"
        },
        {
          "name": "endingPrice",
          "type": "uint256"
        },
        {
          "name": "duration",
          "type": "uint256"
        },
        {
          "name": "startedAt",
          "type": "uint256"
        }
      ],
      "payable": false,
      "stateMutability": "view",
      "type": "function"
    },
    {
      "constant": true,
      "inputs": [],
      "name": "ownerCut",
      "outputs": [
        {
          "name": "",
          "type": "uint256"
        }
      ],
      "payable": false,
      "stateMutability": "view",
      "type": "function"
    },
    {
      "constant": false,
      "inputs": [],
      "name": "pause",
      "outputs": [
        {
          "name": "",
          "type": "bool"
        }
      ],
      "payable": false,
      "stateMutability": "nonpayable",
      "type": "function"
    },
    {
      "constant": false,
      "inputs": [
        {
          "name": "_tokenId",
          "type": "uint256"
        }
      ],
      "name": "cancelAuctionWhenPaused",
      "outputs": [],
      "payable": false,
      "stateMutability": "nonpayable",
      "type": "function"
    },
    {
      "constant": true,
      "inputs": [],
      "name": "owner",
      "outputs": [
        {
          "name": "",
          "type": "address"
        }
      ],
      "payable": false,
      "stateMutability": "view",
      "type": "function"
    },
    {
      "constant": false,
      "inputs": [
        {
          "name": "_tokenId",
          "type": "uint256"
        }
      ],
      "name": "cancelAuction",
      "outputs": [],
      "payable": false,
      "stateMutability": "nonpayable",
      "type": "function"
    },
    {
      "constant": true,
      "inputs": [
        {
          "name": "_tokenId",
          "type": "uint256"
        }
      ],
      "name": "getCurrentPrice",
      "outputs": [
        {
          "name": "",
          "type": "uint256"
        }
      ],
      "payable": false,
      "stateMutability": "view",
      "type": "function"
    },
    {
      "constant": true,
      "inputs": [],
      "name": "nonFungibleContract",
      "outputs": [
        {
          "name": "",
          "type": "address"
        }
      ],
      "payable": false,
      "stateMutability": "view",
      "type": "function"
    },
    {
      "constant": false,
      "inputs": [
        {
          "name": "newOwner",
          "type": "address"
        }
      ],
      "name": "transferOwnership",
      "outputs": [],
      "payable": false,
      "stateMutability": "nonpayable",
      "type": "function"
    },
    {
      "inputs": [
        {
          "name": "_nftAddr",
          "type": "address"
        },
        {
          "name": "_cut",
          "type": "uint256"
        }
      ],
      "payable": false,
      "stateMutability": "nonpayable",
      "type": "constructor"
    },
    {
      "anonymous": false,
      "inputs": [
        {
          "indexed": false,
          "name": "tokenId",
          "type": "uint256"
        },
        {
          "indexed": false,
          "name": "startingPrice",
          "type": "uint256"
        },
        {
          "indexed": false,
          "name": "endingPrice",
          "type": "uint256"
        },
        {
          "indexed": false,
          "name": "duration",
          "type": "uint256"
        }
      ],
      "name": "AuctionCreated",
      "type": "event"
    },
    {
      "anonymous": false,
      "inputs": [
        {
          "indexed": false,
          "name": "tokenId",
          "type": "uint256"
        },
        {
          "indexed": false,
          "name": "totalPrice",
          "type": "uint256"
        },
        {
          "indexed": false,
          "name": "winner",
          "type": "address"
        }
      ],
      "name": "AuctionSuccessful",
      "type": "event"
    },
    {
      "anonymous": false,
      "inputs": [
        {
          "indexed": false,
          "name": "tokenId",
          "type": "uint256"
        }
      ],
      "name": "AuctionCancelled",
      "type": "event"
    },
    {
      "anonymous": false,
      "inputs": [],
      "name": "Pause",
      "type": "event"
    },
    {
      "anonymous": false,
      "inputs": [],
      "name": "Unpause",
      "type": "event"
    },
    {
      "anonymous": false,
      "inputs": [
        {
          "indexed": true,
          "name": "previousOwner",
          "type": "address"
        },
        {
          "indexed": true,
          "name": "newOwner",
          "type": "address"
        }
      ],
      "name": "OwnershipTransferred",
      "type": "event"
    },
    {
      "constant": false,
      "inputs": [
        {
          "name": "_tokenId",
          "type": "uint256"
        },
        {
          "name": "_startingPrice",
          "type": "uint256"
        },
        {
          "name": "_endingPrice",
          "type": "uint256"
        },
        {
          "name": "_duration",
          "type": "uint256"
        },
        {
          "name": "_seller",
          "type": "address"
        }
      ],
      "name": "createAuction",
      "outputs": [],
      "payable": false,
      "stateMutability": "nonpayable",
      "type": "function"
    },
    {
      "constant": false,
      "inputs": [
        {
          "name": "_tokenId",
          "type": "uint256"
        }
      ],
      "name": "bid",
      "outputs": [],
      "payable": true,
      "stateMutability": "payable",
      "type": "function"
    }
  ],
  "bytecode": "0x60606040526000805460a060020a60ff02191690556004805460ff19166001179055341561002c57600080fd5b604051604080610e77833981016040528080519190602001805160008054600160a060020a03191633600160a060020a0316178155909250839150829061271082111561007857600080fd5b50600281905581600160a060020a0381166301ffc9a77f9a20483d000000000000000000000000000000000000000000000000000000006040517c010000000000000000000000000000000000000000000000000000000063ffffffff84160281527fffffffff000000000000000000000000000000000000000000000000000000009091166004820152602401602060405180830381600087803b151561011f57600080fd5b5af1151561012c57600080fd5b50505060405180519050151561014157600080fd5b60018054600160a060020a03909216600160a060020a031990921691909117905550505050610d02806101756000396000f3006060604052600436106100c15763ffffffff60e060020a60003504166327ebe40a81146100c65780633f4ba83a146100f3578063454a2ab31461011a5780635c975abb146101255780635fd8c7101461013857806376190f8f1461014b57806378bd79351461015e57806383b5ff8b146101af5780638456cb59146101d4578063878eb368146101e75780638da5cb5b146101fd57806396b5a7551461022c578063c55d0f5614610242578063dd1b7a0f14610258578063f2fde38b1461026b575b600080fd5b34156100d157600080fd5b6100f1600435602435604435606435600160a060020a036084351661028a565b005b34156100fe57600080fd5b610106610362565b604051901515815260200160405180910390f35b6100f16004356103e6565b341561013057600080fd5b610106610436565b341561014357600080fd5b6100f1610446565b341561015657600080fd5b6101066104bc565b341561016957600080fd5b6101746004356104c5565b604051600160a060020a03909516855260208501939093526040808501929092526060840152608083019190915260a0909101905180910390f35b34156101ba57600080fd5b6101c2610552565b60405190815260200160405180910390f35b34156101df57600080fd5b610106610558565b34156101f257600080fd5b6100f16004356105e1565b341561020857600080fd5b61021061064e565b604051600160a060020a03909116815260200160405180910390f35b341561023757600080fd5b6100f160043561065d565b341561024d57600080fd5b6101c26004356106ab565b341561026357600080fd5b6102106106dd565b341561027657600080fd5b6100f1600160a060020a03600435166106ec565b610292610ca8565b6001608060020a03851685146102a757600080fd5b6001608060020a03841684146102bc57600080fd5b67ffffffffffffffff831683146102d257600080fd5b60015433600160a060020a039081169116146102ed57600080fd5b6102f78287610787565b60a06040519081016040528083600160a060020a03168152602001866001608060020a03168152602001856001608060020a031681526020018467ffffffffffffffff1681526020014267ffffffffffffffff16815250905061035a86826107fe565b505050505050565b6000805433600160a060020a0390811691161461037e57600080fd5b60005460a060020a900460ff16151561039657600080fd5b6000805474ff0000000000000000000000000000000000000000191690557f7805862f689e2f13df9f062ff482ad3ad112aca9e0847911ed832e158c525b3360405160405180910390a150600190565b60015460009033600160a060020a0390811691161461040457600080fd5b50600081815260036020526040902054600160a060020a03166104278234610999565b506104328183610aca565b5050565b60005460a060020a900460ff1681565b60015460008054600160a060020a03928316923381169116148061047b575081600160a060020a031633600160a060020a0316145b151561048657600080fd5b81600160a060020a03166108fc30600160a060020a0316319081150290604051600060405180830381858888f150505050505050565b60045460ff1681565b600081815260036020526040812081908190819081906104e481610b20565b15156104ef57600080fd5b80546001820154600290920154600160a060020a03909116986001608060020a038084169950700100000000000000000000000000000000909304909216965067ffffffffffffffff808216965068010000000000000000909104169350915050565b60025481565b6000805433600160a060020a0390811691161461057457600080fd5b60005460a060020a900460ff161561058b57600080fd5b6000805474ff0000000000000000000000000000000000000000191660a060020a1790557f6985a02210a168e66602d3235cb6db0e70f92b3ba4d376a33c0f3d9434bff62560405160405180910390a150600190565b6000805460a060020a900460ff1615156105fa57600080fd5b60005433600160a060020a0390811691161461061557600080fd5b50600081815260036020526040902061062d81610b20565b151561063857600080fd5b8054610432908390600160a060020a0316610b41565b600054600160a060020a031681565b60008181526003602052604081209061067582610b20565b151561068057600080fd5b508054600160a060020a03908116903316811461069c57600080fd5b6106a68382610b41565b505050565b60008181526003602052604081206106c281610b20565b15156106cd57600080fd5b6106d681610b8b565b9392505050565b600154600160a060020a031681565b60005433600160a060020a0390811691161461070757600080fd5b600160a060020a038116151561071c57600080fd5b600054600160a060020a0380831691167f8be0079c531659141344cd1fd0a4f28419497f9722a3daafe3b4186f6b6457e060405160405180910390a36000805473ffffffffffffffffffffffffffffffffffffffff1916600160a060020a0392909216919091179055565b600154600160a060020a03166323b872dd83308460405160e060020a63ffffffff8616028152600160a060020a0393841660048201529190921660248201526044810191909152606401600060405180830381600087803b15156107ea57600080fd5b5af115156107f757600080fd5b5050505050565b603c816060015167ffffffffffffffff16101561081a57600080fd5b600082815260036020526040902081908151815473ffffffffffffffffffffffffffffffffffffffff1916600160a060020a039190911617815560208201516001820180546fffffffffffffffffffffffffffffffff19166001608060020a039290921691909117905560408201516001820180546001608060020a03928316700100000000000000000000000000000000029216919091179055606082015160028201805467ffffffffffffffff191667ffffffffffffffff9290921691909117905560808201516002909101805467ffffffffffffffff9290921668010000000000000000026fffffffffffffffff000000000000000019909216919091179055507fa9c8dfcda5664a5a124c713e386da27de87432d5b668e79458501eb296389ba78260208301516001608060020a031683604001516001608060020a0316846060015167ffffffffffffffff166040518085815260200184815260200183815260200182815260200194505050505060405180910390a15050565b600082815260036020526040812081808080806109b586610b20565b15156109c057600080fd5b6109c986610b8b565b9450848810156109d857600080fd5b8554600160a060020a031693506109ee89610c12565b6000851115610a3857610a0085610c5f565b92508285039150600160a060020a03841682156108fc0283604051600060405180830381858888f193505050501515610a3857600080fd5b50838703600160a060020a03331681156108fc0282604051600060405180830381858888f193505050501515610a6d57600080fd5b7f4fcc30d90a842164dd58501ab874a101a3749c3d4747139cefe7c876f4ccebd28986336040519283526020830191909152600160a060020a03166040808301919091526060909101905180910390a15092979650505050505050565b600154600160a060020a031663a9059cbb838360405160e060020a63ffffffff8516028152600160a060020a0390921660048301526024820152604401600060405180830381600087803b15156107ea57600080fd5b6002015460006801000000000000000090910467ffffffffffffffff161190565b610b4a82610c12565b610b548183610aca565b7f2809c7e17bf978fbc7194c0a694b638c4215e9140cacc6c38ca36010b45697df8260405190815260200160405180910390a15050565b6002810154600090819068010000000000000000900467ffffffffffffffff16421115610bd15750600282015468010000000000000000900467ffffffffffffffff1642035b600183015460028401546106d6916001608060020a0380821692700100000000000000000000000000000000909204169067ffffffffffffffff1684610c6b565b6000908152600360205260408120805473ffffffffffffffffffffffffffffffffffffffff19168155600181019190915560020180546fffffffffffffffffffffffffffffffff19169055565b60025461271091020490565b6000808080858510610c7f57869350610c9d565b878703925085858402811515610c9157fe5b05915081880190508093505b505050949350505050565b60a06040519081016040908152600080835260208301819052908201819052606082018190526080820152905600a165627a7a72305820f7d2442e738a292e48708e6a68f545e119d1d3e05ee637d861960f3604beea3b0029",
  "source": "pragma solidity ^0.4.20;\n\nimport \"./Ownable.sol\";\nimport \"./GeneScienceTest.sol\";\n\n/// @title Interface for contracts conforming to ERC-721: Non-Fungible Tokens\n/// @author Dieter Shirley <dete@axiomzen.co> (https://github.com/dete)\ncontract ERC721 {\n    // Required methods\n    function totalSupply() public view returns (uint256 total);\n    function balanceOf(address _owner) public view returns (uint256 balance);\n    function ownerOf(uint256 _tokenId) external view returns (address owner);\n    function approve(address _to, uint256 _tokenId) external;\n    function transfer(address _to, uint256 _tokenId) external;\n    function transferFrom(address _from, address _to, uint256 _tokenId) external;\n\n    // Events\n    event Transfer(address from, address to, uint256 tokenId);\n    event Approval(address owner, address approved, uint256 tokenId);\n\n    // Optional\n    // function name() public view returns (string name);\n    // function symbol() public view returns (string symbol);\n    // function tokensOfOwner(address _owner) external view returns (uint256[] tokenIds);\n    // function tokenMetadata(uint256 _tokenId, string _preferredTransport) public view returns (string infoUrl);\n\n    // ERC-165 Compatibility (https://github.com/ethereum/EIPs/issues/165)\n    function supportsInterface(bytes4 _interfaceID) external view returns (bool);\n}\n\n/// @title SEKRETOOOO\ncontract GeneScienceInterface {\n    /// @dev simply a boolean to indicate this is the contract we expect to be\n    function isGeneScience() public pure returns (bool);\n\n    /// @dev given genes of kitten 1 & 2, return a genetic combination - may have a random factor\n    /// @param genes1 genes of mom\n    /// @param genes2 genes of sire\n    /// @return the genes that are supposed to be passed down the child\n    function mixGenes(uint256 genes1, uint256 genes2, uint256 targetBlock) public returns (uint256);\n}\n\n/// @title A facet of KittyCore that manages special access privileges.\n/// @author Axiom Zen (https://www.axiomzen.co)\n/// @dev See the KittyCore contract documentation to understand how the various contract facets are arranged.\ncontract KittyAccessControl {\n    // This facet controls access control for CryptoKitties. There are four roles managed here:\n    //\n    //     - The CEO: The CEO can reassign other roles and change the addresses of our dependent smart\n    //         contracts. It is also the only role that can unpause the smart contract. It is initially\n    //         set to the address that created the smart contract in the KittyCore constructor.\n    //\n    //     - The CFO: The CFO can withdraw funds from KittyCore and its auction contracts.\n    //\n    //     - The COO: The COO can release gen0 kitties to auction, and mint promo cats.\n    //\n    // It should be noted that these roles are distinct without overlap in their access abilities, the\n    // abilities listed for each role above are exhaustive. In particular, while the CEO can assign any\n    // address to any role, the CEO address itself doesn't have the ability to act in those roles. This\n    // restriction is intentional so that we aren't tempted to use the CEO address frequently out of\n    // convenience. The less we use an address, the less likely it is that we somehow compromise the\n    // account.\n\n    /// @dev Emited when contract is upgraded - See README.md for updgrade plan\n    event ContractUpgrade(address newContract);\n\n    // The addresses of the accounts (or contracts) that can execute actions within each roles.\n    address public ceoAddress;\n    address public cfoAddress;\n    address public cooAddress;\n\n    // @dev Keeps track whether the contract is paused. When that is true, most actions are blocked\n    bool public paused = false;\n\n    /// @dev Access modifier for CEO-only functionality\n    modifier onlyCEO() {\n        require(msg.sender == ceoAddress);\n        _;\n    }\n\n    /// @dev Access modifier for CFO-only functionality\n    modifier onlyCFO() {\n        require(msg.sender == cfoAddress);\n        _;\n    }\n\n    /// @dev Access modifier for COO-only functionality\n    modifier onlyCOO() {\n        require(msg.sender == cooAddress);\n        _;\n    }\n\n    modifier onlyCLevel() {\n        require(\n            msg.sender == cooAddress ||\n            msg.sender == ceoAddress ||\n            msg.sender == cfoAddress\n        );\n        _;\n    }\n\n    /// @dev Assigns a new address to act as the CEO. Only available to the current CEO.\n    /// @param _newCEO The address of the new CEO\n    function setCEO(address _newCEO) external onlyCEO {\n        require(_newCEO != address(0));\n\n        ceoAddress = _newCEO;\n    }\n\n    /// @dev Assigns a new address to act as the CFO. Only available to the current CEO.\n    /// @param _newCFO The address of the new CFO\n    function setCFO(address _newCFO) external onlyCEO {\n        require(_newCFO != address(0));\n\n        cfoAddress = _newCFO;\n    }\n\n    /// @dev Assigns a new address to act as the COO. Only available to the current CEO.\n    /// @param _newCOO The address of the new COO\n    function setCOO(address _newCOO) external onlyCEO {\n        require(_newCOO != address(0));\n\n        cooAddress = _newCOO;\n    }\n\n    /*** Pausable functionality adapted from OpenZeppelin ***/\n\n    /// @dev Modifier to allow actions only when the contract IS NOT paused\n    modifier whenNotPaused() {\n        require(!paused);\n        _;\n    }\n\n    /// @dev Modifier to allow actions only when the contract IS paused\n    modifier whenPaused {\n        require(paused);\n        _;\n    }\n\n    /// @dev Called by any \"C-level\" role to pause the contract. Used only when\n    ///  a bug or exploit is detected and we need to limit damage.\n    function pause() external onlyCLevel whenNotPaused {\n        paused = true;\n    }\n\n    /// @dev Unpauses the smart contract. Can only be called by the CEO, since\n    ///  one reason we may pause the contract is when CFO or COO accounts are\n    ///  compromised.\n    /// @notice This is public rather than external so it can be called by\n    ///  derived contracts.\n    function unpause() public onlyCEO whenPaused {\n        // can't unpause if contract was upgraded\n        paused = false;\n    }\n}\n\n/// @title Base contract for CryptoKitties. Holds all common structs, events and base variables.\n/// @author Axiom Zen (https://www.axiomzen.co)\n/// @dev See the KittyCore contract documentation to understand how the various contract facets are arranged.\ncontract KittyBase is KittyAccessControl {\n    /*** EVENTS ***/\n\n    /// @dev The Birth event is fired whenever a new kitten comes into existence. This obviously\n    ///  includes any time a cat is created through the giveBirth method, but it is also called\n    ///  when a new gen0 cat is created.\n    event Birth(address owner, uint256 kittyId, uint256 matronId, uint256 sireId, uint256 genes);\n\n    /// @dev Transfer event as defined in current draft of ERC721. Emitted every time a kitten\n    ///  ownership is assigned, including births.\n    event Transfer(address from, address to, uint256 tokenId);\n\n    /*** DATA TYPES ***/\n\n    /// @dev The main Kitty struct. Every cat in CryptoKitties is represented by a copy\n    ///  of this structure, so great care was taken to ensure that it fits neatly into\n    ///  exactly two 256-bit words. Note that the order of the members in this structure\n    ///  is important because of the byte-packing rules used by Ethereum.\n    ///  Ref: http://solidity.readthedocs.io/en/develop/miscellaneous.html\n    struct Kitty {\n        // The Kitty's genetic code is packed into these 256-bits, the format is\n        // sooper-sekret! A cat's genes never change.\n        uint256 genes;\n\n        // The timestamp from the block when this cat came into existence.\n        uint64 birthTime;\n\n        // The minimum timestamp after which this cat can engage in breeding\n        // activities again. This same timestamp is used for the pregnancy\n        // timer (for matrons) as well as the siring cooldown.\n        uint64 cooldownEndBlock;\n\n        // The ID of the parents of this kitty, set to 0 for gen0 cats.\n        // Note that using 32-bit unsigned integers limits us to a \"mere\"\n        // 4 billion cats. This number might seem small until you realize\n        // that Ethereum currently has a limit of about 500 million\n        // transactions per year! So, this definitely won't be a problem\n        // for several years (even as Ethereum learns to scale).\n        uint32 matronId;\n        uint32 sireId;\n\n        // Set to the ID of the sire cat for matrons that are pregnant,\n        // zero otherwise. A non-zero value here is how we know a cat\n        // is pregnant. Used to retrieve the genetic material for the new\n        // kitten when the birth transpires.\n        uint32 siringWithId;\n\n        // Set to the index in the cooldown array (see below) that represents\n        // the current cooldown duration for this Kitty. This starts at zero\n        // for gen0 cats, and is initialized to floor(generation/2) for others.\n        // Incremented by one for each successful breeding action, regardless\n        // of whether this cat is acting as matron or sire.\n        uint16 cooldownIndex;\n\n        // The \"generation number\" of this cat. Cats minted by the CK contract\n        // for sale are called \"gen0\" and have a generation number of 0. The\n        // generation number of all other cats is the larger of the two generation\n        // numbers of their parents, plus one.\n        // (i.e. max(matron.generation, sire.generation) + 1)\n        uint16 generation;\n    }\n\n    /*** CONSTANTS ***/\n\n    /// @dev A lookup table indicating the cooldown duration after any successful\n    ///  breeding action, called \"pregnancy time\" for matrons and \"siring cooldown\"\n    ///  for sires. Designed such that the cooldown roughly doubles each time a cat\n    ///  is bred, encouraging owners not to just keep breeding the same cat over\n    ///  and over again. Caps out at one week (a cat can breed an unbounded number\n    ///  of times, and the maximum cooldown is always seven days).\n    uint32[14] public cooldowns = [\n        uint32(1 minutes),\n        uint32(2 minutes),\n        uint32(5 minutes),\n        uint32(10 minutes),\n        uint32(30 minutes),\n        uint32(1 hours),\n        uint32(2 hours),\n        uint32(4 hours),\n        uint32(8 hours),\n        uint32(16 hours),\n        uint32(1 days),\n        uint32(2 days),\n        uint32(4 days),\n        uint32(7 days)\n    ];\n\n    // An approximation of currently how many seconds are in between blocks.\n    uint256 public secondsPerBlock = 15;\n\n    /*** STORAGE ***/\n\n    /// @dev An array containing the Kitty struct for all Kitties in existence. The ID\n    ///  of each cat is actually an index into this array. Note that ID 0 is a negacat,\n    ///  the unKitty, the mythical beast that is the parent of all gen0 cats. A bizarre\n    ///  creature that is both matron and sire... to itself! Has an invalid genetic code.\n    ///  In other words, cat ID 0 is invalid... ;-)\n    Kitty[] kitties;\n\n    /// @dev A mapping from cat IDs to the address that owns them. All cats have\n    ///  some valid owner address, even gen0 cats are created with a non-zero owner.\n    mapping (uint256 => address) public kittyIndexToOwner;\n\n    // @dev A mapping from owner address to count of tokens that address owns.\n    //  Used internally inside balanceOf() to resolve ownership count.\n    mapping (address => uint256) ownershipTokenCount;\n\n    /// @dev A mapping from KittyIDs to an address that has been approved to call\n    ///  transferFrom(). Each Kitty can only have one approved address for transfer\n    ///  at any time. A zero value means no approval is outstanding.\n    mapping (uint256 => address) public kittyIndexToApproved;\n\n    /// @dev A mapping from KittyIDs to an address that has been approved to use\n    ///  this Kitty for siring via breedWith(). Each Kitty can only have one approved\n    ///  address for siring at any time. A zero value means no approval is outstanding.\n    mapping (uint256 => address) public sireAllowedToAddress;\n\n    /// @dev The address of the ClockAuction contract that handles sales of Kitties. This\n    ///  same contract handles both peer-to-peer sales as well as the gen0 sales which are\n    ///  initiated every 15 minutes.\n    SaleClockAuction public saleAuction;\n\n    /// @dev The address of a custom ClockAuction subclassed contract that handles siring\n    ///  auctions. Needs to be separate from saleAuction because the actions taken on success\n    ///  after a sales and siring auction are quite different.\n    SiringClockAuction public siringAuction;\n\n    /// @dev Assigns ownership of a specific Kitty to an address.\n    function _transfer(address _from, address _to, uint256 _tokenId) internal {\n        // Since the number of kittens is capped to 2^32 we can't overflow this\n        ownershipTokenCount[_to]++;\n        // transfer ownership\n        kittyIndexToOwner[_tokenId] = _to;\n        // When creating new kittens _from is 0x0, but we can't account that address.\n        if (_from != address(0)) {\n            ownershipTokenCount[_from]--;\n            // once the kitten is transferred also clear sire allowances\n            delete sireAllowedToAddress[_tokenId];\n            // clear any previously approved ownership exchange\n            delete kittyIndexToApproved[_tokenId];\n        }\n        // Emit the transfer event.\n        emit Transfer(_from, _to, _tokenId);\n    }\n\n    /// @dev An internal method that creates a new kitty and stores it. This\n    ///  method doesn't do any checking and should only be called when the\n    ///  input data is known to be valid. Will generate both a Birth event\n    ///  and a Transfer event.\n    /// @param _matronId The kitty ID of the matron of this cat (zero for gen0)\n    /// @param _sireId The kitty ID of the sire of this cat (zero for gen0)\n    /// @param _generation The generation number of this cat, must be computed by caller.\n    /// @param _genes The kitty's genetic code.\n    /// @param _owner The inital owner of this cat, must be non-zero (except for the unKitty, ID 0)\n    function _createKitty(\n        uint256 _matronId,\n        uint256 _sireId,\n        uint256 _generation,\n        uint256 _genes,\n        address _owner\n    )\n        internal\n        returns (uint)\n    {\n        // These requires are not strictly necessary, our calling code should make\n        // sure that these conditions are never broken. However! _createKitty() is already\n        // an expensive call (for storage), and it doesn't hurt to be especially careful\n        // to ensure our data structures are always valid.\n        require(_matronId == uint256(uint32(_matronId)));\n        require(_sireId == uint256(uint32(_sireId)));\n        require(_generation == uint256(uint16(_generation)));\n\n        // New kitty starts with the same cooldown as parent gen/2\n        uint16 cooldownIndex = uint16(_generation / 2);\n        if (cooldownIndex > 13) {\n            cooldownIndex = 13;\n        }\n\n        Kitty memory _kitty = Kitty({\n            genes: _genes,\n            birthTime: uint64(now),\n            cooldownEndBlock: 0,\n            matronId: uint32(_matronId),\n            sireId: uint32(_sireId),\n            siringWithId: 0,\n            cooldownIndex: cooldownIndex,\n            generation: uint16(_generation)\n        });\n        uint256 newKittenId = kitties.push(_kitty) - 1;\n\n        // It's probably never going to happen, 4 billion cats is A LOT, but\n        // let's just be 100% sure we never let this happen.\n        require(newKittenId == uint256(uint32(newKittenId)));\n\n        // emit the birth event\n        emit Birth(\n            _owner,\n            newKittenId,\n            uint256(_kitty.matronId),\n            uint256(_kitty.sireId),\n            _kitty.genes\n        );\n\n        // This will assign ownership, and also emit the Transfer event as\n        // per ERC721 draft\n        _transfer(0, _owner, newKittenId);\n\n        return newKittenId;\n    }\n\n    // Any C-level can fix how many seconds per blocks are currently observed.\n    function setSecondsPerBlock(uint256 secs) external onlyCLevel {\n        require(secs < cooldowns[0]);\n        secondsPerBlock = secs;\n    }\n}\n\n\n\n\n\n/// @title The external contract that is responsible for generating metadata for the kitties,\n///  it has one function that will return the data as bytes.\ncontract ERC721Metadata {\n    /// @dev Given a token Id, returns a byte array that is supposed to be converted into string.\n    function getMetadata(uint256 _tokenId, string) public view returns (bytes32[4] buffer, uint256 count) {\n        if (_tokenId == 1) {\n            buffer[0] = \"Hello World! :D\";\n            count = 15;\n        } else if (_tokenId == 2) {\n            buffer[0] = \"I would definitely choose a medi\";\n            buffer[1] = \"um length string.\";\n            count = 49;\n        } else if (_tokenId == 3) {\n            buffer[0] = \"Lorem ipsum dolor sit amet, mi e\";\n            buffer[1] = \"st accumsan dapibus augue lorem,\";\n            buffer[2] = \" tristique vestibulum id, libero\";\n            buffer[3] = \" suscipit varius sapien aliquam.\";\n            count = 128;\n        }\n    }\n}\n\n\n/// @title The facet of the CryptoKitties core contract that manages ownership, ERC-721 (draft) compliant.\n/// @author Axiom Zen (https://www.axiomzen.co)\n/// @dev Ref: https://github.com/ethereum/EIPs/issues/721\n///  See the KittyCore contract documentation to understand how the various contract facets are arranged.\ncontract KittyOwnership is KittyBase, ERC721 {\n\n    /// @notice Name and symbol of the non fungible token, as defined in ERC721.\n    string public constant name = \"CryptoKitties\";\n    string public constant symbol = \"CK\";\n\n    // The contract that will return kitty metadata\n    ERC721Metadata public erc721Metadata;\n\n    bytes4 constant InterfaceSignature_ERC165 =\n        bytes4(keccak256('supportsInterface(bytes4)'));\n\n    bytes4 constant InterfaceSignature_ERC721 =\n        bytes4(keccak256('name()')) ^\n        bytes4(keccak256('symbol()')) ^\n        bytes4(keccak256('totalSupply()')) ^\n        bytes4(keccak256('balanceOf(address)')) ^\n        bytes4(keccak256('ownerOf(uint256)')) ^\n        bytes4(keccak256('approve(address,uint256)')) ^\n        bytes4(keccak256('transfer(address,uint256)')) ^\n        bytes4(keccak256('transferFrom(address,address,uint256)')) ^\n        bytes4(keccak256('tokensOfOwner(address)')) ^\n        bytes4(keccak256('tokenMetadata(uint256,string)'));\n\n    /// @notice Introspection interface as per ERC-165 (https://github.com/ethereum/EIPs/issues/165).\n    ///  Returns true for any standardized interfaces implemented by this contract. We implement\n    ///  ERC-165 (obviously!) and ERC-721.\n    function supportsInterface(bytes4 _interfaceID) external view returns (bool)\n    {\n        // DEBUG ONLY\n        //require((InterfaceSignature_ERC165 == 0x01ffc9a7) && (InterfaceSignature_ERC721 == 0x9a20483d));\n\n        return ((_interfaceID == InterfaceSignature_ERC165) || (_interfaceID == InterfaceSignature_ERC721));\n    }\n\n    /// @dev Set the address of the sibling contract that tracks metadata.\n    ///  CEO only.\n    function setMetadataAddress(address _contractAddress) public onlyCEO {\n        erc721Metadata = ERC721Metadata(_contractAddress);\n    }\n\n    // Internal utility functions: These functions all assume that their input arguments\n    // are valid. We leave it to public methods to sanitize their inputs and follow\n    // the required logic.\n\n    /// @dev Checks if a given address is the current owner of a particular Kitty.\n    /// @param _claimant the address we are validating against.\n    /// @param _tokenId kitten id, only valid when > 0\n    function _owns(address _claimant, uint256 _tokenId) internal view returns (bool) {\n        return kittyIndexToOwner[_tokenId] == _claimant;\n    }\n\n    /// @dev Checks if a given address currently has transferApproval for a particular Kitty.\n    /// @param _claimant the address we are confirming kitten is approved for.\n    /// @param _tokenId kitten id, only valid when > 0\n    function _approvedFor(address _claimant, uint256 _tokenId) internal view returns (bool) {\n        return kittyIndexToApproved[_tokenId] == _claimant;\n    }\n\n    /// @dev Marks an address as being approved for transferFrom(), overwriting any previous\n    ///  approval. Setting _approved to address(0) clears all transfer approval.\n    ///  NOTE: _approve() does NOT send the Approval event. This is intentional because\n    ///  _approve() and transferFrom() are used together for putting Kitties on auction, and\n    ///  there is no value in spamming the log with Approval events in that case.\n    function _approve(uint256 _tokenId, address _approved) internal {\n        kittyIndexToApproved[_tokenId] = _approved;\n    }\n\n    /// @notice Returns the number of Kitties owned by a specific address.\n    /// @param _owner The owner address to check.\n    /// @dev Required for ERC-721 compliance\n    function balanceOf(address _owner) public view returns (uint256 count) {\n        return ownershipTokenCount[_owner];\n    }\n\n    /// @notice Transfers a Kitty to another address. If transferring to a smart\n    ///  contract be VERY CAREFUL to ensure that it is aware of ERC-721 (or\n    ///  CryptoKitties specifically) or your Kitty may be lost forever. Seriously.\n    /// @param _to The address of the recipient, can be a user or contract.\n    /// @param _tokenId The ID of the Kitty to transfer.\n    /// @dev Required for ERC-721 compliance.\n    function transfer(\n        address _to,\n        uint256 _tokenId\n    )\n        external\n        whenNotPaused\n    {\n        // Safety check to prevent against an unexpected 0x0 default.\n        require(_to != address(0));\n        // Disallow transfers to this contract to prevent accidental misuse.\n        // The contract should never own any kitties (except very briefly\n        // after a gen0 cat is created and before it goes on auction).\n        require(_to != address(this));\n        // Disallow transfers to the auction contracts to prevent accidental\n        // misuse. Auction contracts should only take ownership of kitties\n        // through the allow + transferFrom flow.\n        require(_to != address(saleAuction));\n        require(_to != address(siringAuction));\n\n        // You can only send your own cat.\n        require(_owns(msg.sender, _tokenId));\n\n        // Reassign ownership, clear pending approvals, emit Transfer event.\n        _transfer(msg.sender, _to, _tokenId);\n    }\n\n    /// @notice Grant another address the right to transfer a specific Kitty via\n    ///  transferFrom(). This is the preferred flow for transfering NFTs to contracts.\n    /// @param _to The address to be granted transfer approval. Pass address(0) to\n    ///  clear all approvals.\n    /// @param _tokenId The ID of the Kitty that can be transferred if this call succeeds.\n    /// @dev Required for ERC-721 compliance.\n    function approve(\n        address _to,\n        uint256 _tokenId\n    )\n        external\n        whenNotPaused\n    {\n        // Only an owner can grant transfer approval.\n        require(_owns(msg.sender, _tokenId));\n\n        // Register the approval (replacing any previous approval).\n        _approve(_tokenId, _to);\n\n        // Emit approval event.\n        emit Approval(msg.sender, _to, _tokenId);\n    }\n\n    /// @notice Transfer a Kitty owned by another address, for which the calling address\n    ///  has previously been granted transfer approval by the owner.\n    /// @param _from The address that owns the Kitty to be transfered.\n    /// @param _to The address that should take ownership of the Kitty. Can be any address,\n    ///  including the caller.\n    /// @param _tokenId The ID of the Kitty to be transferred.\n    /// @dev Required for ERC-721 compliance.\n    function transferFrom(\n        address _from,\n        address _to,\n        uint256 _tokenId\n    )\n        external\n        whenNotPaused\n    {\n        // Safety check to prevent against an unexpected 0x0 default.\n        require(_to != address(0));\n        // Disallow transfers to this contract to prevent accidental misuse.\n        // The contract should never own any kitties (except very briefly\n        // after a gen0 cat is created and before it goes on auction).\n        require(_to != address(this));\n        // Check for approval and valid ownership\n        require(_approvedFor(msg.sender, _tokenId));\n        require(_owns(_from, _tokenId));\n\n        // Reassign ownership (also clears pending approvals and emits Transfer event).\n        _transfer(_from, _to, _tokenId);\n    }\n\n    /// @notice Returns the total number of Kitties currently in existence.\n    /// @dev Required for ERC-721 compliance.\n    function totalSupply() public view returns (uint) {\n        return kitties.length - 1;\n    }\n\n    /// @notice Returns the address currently assigned ownership of a given Kitty.\n    /// @dev Required for ERC-721 compliance.\n    function ownerOf(uint256 _tokenId)\n        external\n        view\n        returns (address owner)\n    {\n        owner = kittyIndexToOwner[_tokenId];\n\n        require(owner != address(0));\n    }\n\n    /// @notice Returns a list of all Kitty IDs assigned to an address.\n    /// @param _owner The owner whose Kitties we are interested in.\n    /// @dev This method MUST NEVER be called by smart contract code. First, it's fairly\n    ///  expensive (it walks the entire Kitty array looking for cats belonging to owner),\n    ///  but it also returns a dynamic array, which is only supported for web3 calls, and\n    ///  not contract-to-contract calls.\n    function tokensOfOwner(address _owner) external view returns(uint256[] ownerTokens) {\n        uint256 tokenCount = balanceOf(_owner);\n\n        if (tokenCount == 0) {\n            // Return an empty array\n            return new uint256[](0);\n        } else {\n            uint256[] memory result = new uint256[](tokenCount);\n            uint256 totalCats = totalSupply();\n            uint256 resultIndex = 0;\n\n            // We count on the fact that all cats have IDs starting at 1 and increasing\n            // sequentially up to the totalCat count.\n            uint256 catId;\n\n            for (catId = 1; catId <= totalCats; catId++) {\n                if (kittyIndexToOwner[catId] == _owner) {\n                    result[resultIndex] = catId;\n                    resultIndex++;\n                }\n            }\n\n            return result;\n        }\n    }\n\n    /// @dev Adapted from memcpy() by @arachnid (Nick Johnson <arachnid@notdot.net>)\n    ///  This method is licenced under the Apache License.\n    ///  Ref: https://github.com/Arachnid/solidity-stringutils/blob/2f6ca9accb48ae14c66f1437ec50ed19a0616f78/strings.sol\n    function _memcpy(uint _dest, uint _src, uint _len) private view {\n        // Copy word-length chunks while possible\n        for(; _len >= 32; _len -= 32) {\n            assembly {\n                mstore(_dest, mload(_src))\n            }\n            _dest += 32;\n            _src += 32;\n        }\n\n        // Copy remaining bytes\n        uint256 mask = 256 ** (32 - _len) - 1;\n        assembly {\n            let srcpart := and(mload(_src), not(mask))\n            let destpart := and(mload(_dest), mask)\n            mstore(_dest, or(destpart, srcpart))\n        }\n    }\n\n    /// @dev Adapted from toString(slice) by @arachnid (Nick Johnson <arachnid@notdot.net>)\n    ///  This method is licenced under the Apache License.\n    ///  Ref: https://github.com/Arachnid/solidity-stringutils/blob/2f6ca9accb48ae14c66f1437ec50ed19a0616f78/strings.sol\n    function _toString(bytes32[4] _rawBytes, uint256 _stringLength) private view returns (string) {\n        var outputString = new string(_stringLength);\n        uint256 outputPtr;\n        uint256 bytesPtr;\n\n        assembly {\n            outputPtr := add(outputString, 32)\n            bytesPtr := _rawBytes\n        }\n\n        _memcpy(outputPtr, bytesPtr, _stringLength);\n\n        return outputString;\n    }\n\n    /// @notice Returns a URI pointing to a metadata package for this token conforming to\n    ///  ERC-721 (https://github.com/ethereum/EIPs/issues/721)\n    /// @param _tokenId The ID number of the Kitty whose metadata should be returned.\n    function tokenMetadata(uint256 _tokenId, string _preferredTransport) external view returns (string infoUrl) {\n        require(erc721Metadata != address(0));\n        bytes32[4] memory buffer;\n        uint256 count;\n        (buffer, count) = erc721Metadata.getMetadata(_tokenId, _preferredTransport);\n\n        return _toString(buffer, count);\n    }\n}\n\n\n\n/// @title A facet of KittyCore that manages Kitty siring, gestation, and birth.\n/// @author Axiom Zen (https://www.axiomzen.co)\n/// @dev See the KittyCore contract documentation to understand how the various contract facets are arranged.\ncontract KittyBreeding is KittyOwnership {\n\n    /// @dev The Pregnant event is fired when two cats successfully breed and the pregnancy\n    ///  timer begins for the matron.\n    event Pregnant(address owner, uint256 matronId, uint256 sireId, uint256 cooldownEndBlock);\n\n    /// @notice The minimum payment required to use breedWithAuto(). This fee goes towards\n    ///  the gas cost paid by whatever calls giveBirth(), and can be dynamically updated by\n    ///  the COO role as the gas price changes.\n    uint256 public autoBirthFee = 2 finney;\n\n    // Keeps track of number of pregnant kitties.\n    uint256 public pregnantKitties;\n\n    /// @dev The address of the sibling contract that is used to implement the sooper-sekret\n    ///  genetic combination algorithm.\n    GeneScienceInterface public geneScience;\n\n    /// @dev Update the address of the genetic contract, can only be called by the CEO.\n    /// @param _address An address of a GeneScience contract instance to be used from this point forward.\n    function setGeneScienceAddress(address _address) external onlyCEO {\n        GeneScienceInterface candidateContract = GeneScienceInterface(_address);\n\n        // NOTE: verify that a contract is what we expect - https://github.com/Lunyr/crowdsale-contracts/blob/cfadd15986c30521d8ba7d5b6f57b4fefcc7ac38/contracts/LunyrToken.sol#L117\n        require(candidateContract.isGeneScience());\n\n        // Set the new contract address\n        geneScience = candidateContract;\n    }\n\n    /// @dev Checks that a given kitten is able to breed. Requires that the\n    ///  current cooldown is finished (for sires) and also checks that there is\n    ///  no pending pregnancy.\n    function _isReadyToBreed(Kitty _kit) internal view returns (bool) {\n        // In addition to checking the cooldownEndBlock, we also need to check to see if\n        // the cat has a pending birth; there can be some period of time between the end\n        // of the pregnacy timer and the birth event.\n        return (_kit.siringWithId == 0) && (_kit.cooldownEndBlock <= uint64(block.number));\n    }\n\n    /// @dev Check if a sire has authorized breeding with this matron. True if both sire\n    ///  and matron have the same owner, or if the sire has given siring permission to\n    ///  the matron's owner (via approveSiring()).\n    function _isSiringPermitted(uint256 _sireId, uint256 _matronId) internal view returns (bool) {\n        address matronOwner = kittyIndexToOwner[_matronId];\n        address sireOwner = kittyIndexToOwner[_sireId];\n\n        // Siring is okay if they have same owner, or if the matron's owner was given\n        // permission to breed with this sire.\n        return (matronOwner == sireOwner || sireAllowedToAddress[_sireId] == matronOwner);\n    }\n\n    /// @dev Set the cooldownEndTime for the given Kitty, based on its current cooldownIndex.\n    ///  Also increments the cooldownIndex (unless it has hit the cap).\n    /// @param _kitten A reference to the Kitty in storage which needs its timer started.\n    function _triggerCooldown(Kitty storage _kitten) internal {\n        // Compute an estimation of the cooldown time in blocks (based on current cooldownIndex).\n        _kitten.cooldownEndBlock = uint64((cooldowns[_kitten.cooldownIndex]/secondsPerBlock) + block.number);\n\n        // Increment the breeding count, clamping it at 13, which is the length of the\n        // cooldowns array. We could check the array size dynamically, but hard-coding\n        // this as a constant saves gas. Yay, Solidity!\n        if (_kitten.cooldownIndex < 13) {\n            _kitten.cooldownIndex += 1;\n        }\n    }\n\n    /// @notice Grants approval to another user to sire with one of your Kitties.\n    /// @param _addr The address that will be able to sire with your Kitty. Set to\n    ///  address(0) to clear all siring approvals for this Kitty.\n    /// @param _sireId A Kitty that you own that _addr will now be able to sire with.\n    function approveSiring(address _addr, uint256 _sireId)\n        external\n        whenNotPaused\n    {\n        require(_owns(msg.sender, _sireId));\n        sireAllowedToAddress[_sireId] = _addr;\n    }\n\n    /// @dev Updates the minimum payment required for calling giveBirthAuto(). Can only\n    ///  be called by the COO address. (This fee is used to offset the gas cost incurred\n    ///  by the autobirth daemon).\n    function setAutoBirthFee(uint256 val) external onlyCOO {\n        autoBirthFee = val;\n    }\n\n    /// @dev Checks to see if a given Kitty is pregnant and (if so) if the gestation\n    ///  period has passed.\n    function _isReadyToGiveBirth(Kitty _matron) private view returns (bool) {\n        return (_matron.siringWithId != 0) && (_matron.cooldownEndBlock <= uint64(block.number));\n    }\n\n    /// @notice Checks that a given kitten is able to breed (i.e. it is not pregnant or\n    ///  in the middle of a siring cooldown).\n    /// @param _kittyId reference the id of the kitten, any user can inquire about it\n    function isReadyToBreed(uint256 _kittyId)\n        public\n        view\n        returns (bool)\n    {\n        require(_kittyId > 0);\n        Kitty storage kit = kitties[_kittyId];\n        return _isReadyToBreed(kit);\n    }\n\n    /// @dev Checks whether a kitty is currently pregnant.\n    /// @param _kittyId reference the id of the kitten, any user can inquire about it\n    function isPregnant(uint256 _kittyId)\n        public\n        view\n        returns (bool)\n    {\n        require(_kittyId > 0);\n        // A kitty is pregnant if and only if this field is set\n        return kitties[_kittyId].siringWithId != 0;\n    }\n\n    /// @dev Internal check to see if a given sire and matron are a valid mating pair. DOES NOT\n    ///  check ownership permissions (that is up to the caller).\n    /// @param _matron A reference to the Kitty struct of the potential matron.\n    /// @param _matronId The matron's ID.\n    /// @param _sire A reference to the Kitty struct of the potential sire.\n    /// @param _sireId The sire's ID\n    function _isValidMatingPair(\n        Kitty storage _matron,\n        uint256 _matronId,\n        Kitty storage _sire,\n        uint256 _sireId\n    )\n        private\n        view\n        returns(bool)\n    {\n        // A Kitty can't breed with itself!\n        if (_matronId == _sireId) {\n            return false;\n        }\n\n        // Kitties can't breed with their parents.\n        if (_matron.matronId == _sireId || _matron.sireId == _sireId) {\n            return false;\n        }\n        if (_sire.matronId == _matronId || _sire.sireId == _matronId) {\n            return false;\n        }\n\n        // We can short circuit the sibling check (below) if either cat is\n        // gen zero (has a matron ID of zero).\n        if (_sire.matronId == 0 || _matron.matronId == 0) {\n            return true;\n        }\n\n        // Kitties can't breed with full or half siblings.\n        if (_sire.matronId == _matron.matronId || _sire.matronId == _matron.sireId) {\n            return false;\n        }\n        if (_sire.sireId == _matron.matronId || _sire.sireId == _matron.sireId) {\n            return false;\n        }\n\n        // Everything seems cool! Let's get DTF.\n        return true;\n    }\n\n    /// @dev Internal check to see if a given sire and matron are a valid mating pair for\n    ///  breeding via auction (i.e. skips ownership and siring approval checks).\n    function _canBreedWithViaAuction(uint256 _matronId, uint256 _sireId)\n        internal\n        view\n        returns (bool)\n    {\n        Kitty storage matron = kitties[_matronId];\n        Kitty storage sire = kitties[_sireId];\n        return _isValidMatingPair(matron, _matronId, sire, _sireId);\n    }\n\n    /// @notice Checks to see if two cats can breed together, including checks for\n    ///  ownership and siring approvals. Does NOT check that both cats are ready for\n    ///  breeding (i.e. breedWith could still fail until the cooldowns are finished).\n    ///  TODO: Shouldn't this check pregnancy and cooldowns?!?\n    /// @param _matronId The ID of the proposed matron.\n    /// @param _sireId The ID of the proposed sire.\n    function canBreedWith(uint256 _matronId, uint256 _sireId)\n        external\n        view\n        returns(bool)\n    {\n        require(_matronId > 0);\n        require(_sireId > 0);\n        Kitty storage matron = kitties[_matronId];\n        Kitty storage sire = kitties[_sireId];\n        return _isValidMatingPair(matron, _matronId, sire, _sireId) &&\n            _isSiringPermitted(_sireId, _matronId);\n    }\n\n    /// @dev Internal utility function to initiate breeding, assumes that all breeding\n    ///  requirements have been checked.\n    function _breedWith(uint256 _matronId, uint256 _sireId) internal {\n        // Grab a reference to the Kitties from storage.\n        Kitty storage sire = kitties[_sireId];\n        Kitty storage matron = kitties[_matronId];\n\n        // Mark the matron as pregnant, keeping track of who the sire is.\n        matron.siringWithId = uint32(_sireId);\n\n        // Trigger the cooldown for both parents.\n        _triggerCooldown(sire);\n        _triggerCooldown(matron);\n\n        // Clear siring permission for both parents. This may not be strictly necessary\n        // but it's likely to avoid confusion!\n        delete sireAllowedToAddress[_matronId];\n        delete sireAllowedToAddress[_sireId];\n\n        // Every time a kitty gets pregnant, counter is incremented.\n        pregnantKitties++;\n\n        // Emit the pregnancy event.\n        emit Pregnant(kittyIndexToOwner[_matronId], _matronId, _sireId, matron.cooldownEndBlock);\n    }\n\n    /// @notice Breed a Kitty you own (as matron) with a sire that you own, or for which you\n    ///  have previously been given Siring approval. Will either make your cat pregnant, or will\n    ///  fail entirely. Requires a pre-payment of the fee given out to the first caller of giveBirth()\n    /// @param _matronId The ID of the Kitty acting as matron (will end up pregnant if successful)\n    /// @param _sireId The ID of the Kitty acting as sire (will begin its siring cooldown if successful)\n    function breedWithAuto(uint256 _matronId, uint256 _sireId)\n        external\n        payable\n        whenNotPaused\n    {\n        // Checks for payment.\n        require(msg.value >= autoBirthFee);\n\n        // Caller must own the matron.\n        require(_owns(msg.sender, _matronId));\n\n        // Neither sire nor matron are allowed to be on auction during a normal\n        // breeding operation, but we don't need to check that explicitly.\n        // For matron: The caller of this function can't be the owner of the matron\n        //   because the owner of a Kitty on auction is the auction house, and the\n        //   auction house will never call breedWith().\n        // For sire: Similarly, a sire on auction will be owned by the auction house\n        //   and the act of transferring ownership will have cleared any oustanding\n        //   siring approval.\n        // Thus we don't need to spend gas explicitly checking to see if either cat\n        // is on auction.\n\n        // Check that matron and sire are both owned by caller, or that the sire\n        // has given siring permission to caller (i.e. matron's owner).\n        // Will fail for _sireId = 0\n        require(_isSiringPermitted(_sireId, _matronId));\n\n        // Grab a reference to the potential matron\n        Kitty storage matron = kitties[_matronId];\n\n        // Make sure matron isn't pregnant, or in the middle of a siring cooldown\n        require(_isReadyToBreed(matron));\n\n        // Grab a reference to the potential sire\n        Kitty storage sire = kitties[_sireId];\n\n        // Make sure sire isn't pregnant, or in the middle of a siring cooldown\n        require(_isReadyToBreed(sire));\n\n        // Test that these cats are a valid mating pair.\n        require(_isValidMatingPair(\n            matron,\n            _matronId,\n            sire,\n            _sireId\n        ));\n\n        // All checks passed, kitty gets pregnant!\n        _breedWith(_matronId, _sireId);\n    }\n\n    /// @notice Have a pregnant Kitty give birth!\n    /// @param _matronId A Kitty ready to give birth.\n    /// @return The Kitty ID of the new kitten.\n    /// @dev Looks at a given Kitty and, if pregnant and if the gestation period has passed,\n    ///  combines the genes of the two parents to create a new kitten. The new Kitty is assigned\n    ///  to the current owner of the matron. Upon successful completion, both the matron and the\n    ///  new kitten will be ready to breed again. Note that anyone can call this function (if they\n    ///  are willing to pay the gas!), but the new kitten always goes to the mother's owner.\n    function giveBirth(uint256 _matronId)\n        external\n        whenNotPaused\n        returns(uint256)\n    {\n        // Grab a reference to the matron in storage.\n        Kitty storage matron = kitties[_matronId];\n\n        // Check that the matron is a valid cat.\n        require(matron.birthTime != 0);\n\n        // Check that the matron is pregnant, and that its time has come!\n        require(_isReadyToGiveBirth(matron));\n\n        // Grab a reference to the sire in storage.\n        uint256 sireId = matron.siringWithId;\n        Kitty storage sire = kitties[sireId];\n\n        // Determine the higher generation number of the two parents\n        uint16 parentGen = matron.generation;\n        if (sire.generation > matron.generation) {\n            parentGen = sire.generation;\n        }\n\n        // Call the sooper-sekret gene mixing operation.\n        uint256 childGenes = geneScience.mixGenes(matron.genes, sire.genes, matron.cooldownEndBlock - 1);\n\n        // Make the new kitten!\n        address owner = kittyIndexToOwner[_matronId];\n        uint256 kittenId = _createKitty(_matronId, matron.siringWithId, parentGen + 1, childGenes, owner);\n\n        // Clear the reference to sire from the matron (REQUIRED! Having siringWithId\n        // set is what marks a matron as being pregnant.)\n        delete matron.siringWithId;\n\n        // Every time a kitty gives birth counter is decremented.\n        pregnantKitties--;\n\n        // Send the balance fee to the person who made birth happen.\n        msg.sender.send(autoBirthFee);\n\n        // return the new kitten's ID\n        return kittenId;\n    }\n}\n\n/// @title Auction Core\n/// @dev Contains models, variables, and internal methods for the auction.\n/// @notice We omit a fallback function to prevent accidental sends to this contract.\ncontract ClockAuctionBase {\n\n    // Represents an auction on an NFT\n    struct Auction {\n        // Current owner of NFT\n        address seller;\n        // Price (in wei) at beginning of auction\n        uint128 startingPrice;\n        // Price (in wei) at end of auction\n        uint128 endingPrice;\n        // Duration (in seconds) of auction\n        uint64 duration;\n        // Time when auction started\n        // NOTE: 0 if this auction has been concluded\n        uint64 startedAt;\n    }\n\n    // Reference to contract tracking NFT ownership\n    ERC721 public nonFungibleContract;\n\n    // Cut owner takes on each auction, measured in basis points (1/100 of a percent).\n    // Values 0-10,000 map to 0%-100%\n    uint256 public ownerCut;\n\n    // Map from token ID to their corresponding auction.\n    mapping (uint256 => Auction) tokenIdToAuction;\n\n    event AuctionCreated(uint256 tokenId, uint256 startingPrice, uint256 endingPrice, uint256 duration);\n    event AuctionSuccessful(uint256 tokenId, uint256 totalPrice, address winner);\n    event AuctionCancelled(uint256 tokenId);\n\n    /// @dev Returns true if the claimant owns the token.\n    /// @param _claimant - Address claiming to own the token.\n    /// @param _tokenId - ID of token whose ownership to verify.\n    function _owns(address _claimant, uint256 _tokenId) internal view returns (bool) {\n        return (nonFungibleContract.ownerOf(_tokenId) == _claimant);\n    }\n\n    /// @dev Escrows the NFT, assigning ownership to this contract.\n    /// Throws if the escrow fails.\n    /// @param _owner - Current owner address of token to escrow.\n    /// @param _tokenId - ID of token whose approval to verify.\n    function _escrow(address _owner, uint256 _tokenId) internal {\n        // it will throw if transfer fails\n        nonFungibleContract.transferFrom(_owner, this, _tokenId);\n    }\n\n    /// @dev Transfers an NFT owned by this contract to another address.\n    /// Returns true if the transfer succeeds.\n    /// @param _receiver - Address to transfer NFT to.\n    /// @param _tokenId - ID of token to transfer.\n    function _transfer(address _receiver, uint256 _tokenId) internal {\n        // it will throw if transfer fails\n        nonFungibleContract.transfer(_receiver, _tokenId);\n    }\n\n    /// @dev Adds an auction to the list of open auctions. Also fires the\n    ///  AuctionCreated event.\n    /// @param _tokenId The ID of the token to be put on auction.\n    /// @param _auction Auction to add.\n    function _addAuction(uint256 _tokenId, Auction _auction) internal {\n        // Require that all auctions have a duration of\n        // at least one minute. (Keeps our math from getting hairy!)\n        require(_auction.duration >= 1 minutes);\n\n        tokenIdToAuction[_tokenId] = _auction;\n\n        AuctionCreated(\n            uint256(_tokenId),\n            uint256(_auction.startingPrice),\n            uint256(_auction.endingPrice),\n            uint256(_auction.duration)\n        );\n    }\n\n    /// @dev Cancels an auction unconditionally.\n    function _cancelAuction(uint256 _tokenId, address _seller) internal {\n        _removeAuction(_tokenId);\n        _transfer(_seller, _tokenId);\n        AuctionCancelled(_tokenId);\n    }\n\n    /// @dev Computes the price and transfers winnings.\n    /// Does NOT transfer ownership of token.\n    function _bid(uint256 _tokenId, uint256 _bidAmount)\n        internal\n        returns (uint256)\n    {\n        // Get a reference to the auction struct\n        Auction storage auction = tokenIdToAuction[_tokenId];\n\n        // Explicitly check that this auction is currently live.\n        // (Because of how Ethereum mappings work, we can't just count\n        // on the lookup above failing. An invalid _tokenId will just\n        // return an auction object that is all zeros.)\n        require(_isOnAuction(auction));\n\n        // Check that the bid is greater than or equal to the current price\n        uint256 price = _currentPrice(auction);\n        require(_bidAmount >= price);\n\n        // Grab a reference to the seller before the auction struct\n        // gets deleted.\n        address seller = auction.seller;\n\n        // The bid is good! Remove the auction before sending the fees\n        // to the sender so we can't have a reentrancy attack.\n        _removeAuction(_tokenId);\n\n        // Transfer proceeds to seller (if there are any!)\n        if (price > 0) {\n            // Calculate the auctioneer's cut.\n            // (NOTE: _computeCut() is guaranteed to return a\n            // value <= price, so this subtraction can't go negative.)\n            uint256 auctioneerCut = _computeCut(price);\n            uint256 sellerProceeds = price - auctioneerCut;\n\n            // NOTE: Doing a transfer() in the middle of a complex\n            // method like this is generally discouraged because of\n            // reentrancy attacks and DoS attacks if the seller is\n            // a contract with an invalid fallback function. We explicitly\n            // guard against reentrancy attacks by removing the auction\n            // before calling transfer(), and the only thing the seller\n            // can DoS is the sale of their own asset! (And if it's an\n            // accident, they can call cancelAuction(). )\n            seller.transfer(sellerProceeds);\n        }\n\n        // Calculate any excess funds included with the bid. If the excess\n        // is anything worth worrying about, transfer it back to bidder.\n        // NOTE: We checked above that the bid amount is greater than or\n        // equal to the price so this cannot underflow.\n        uint256 bidExcess = _bidAmount - price;\n\n        // Return the funds. Similar to the previous transfer, this is\n        // not susceptible to a re-entry attack because the auction is\n        // removed before any transfers occur.\n        msg.sender.transfer(bidExcess);\n\n        // Tell the world!\n        AuctionSuccessful(_tokenId, price, msg.sender);\n\n        return price;\n    }\n\n    /// @dev Removes an auction from the list of open auctions.\n    /// @param _tokenId - ID of NFT on auction.\n    function _removeAuction(uint256 _tokenId) internal {\n        delete tokenIdToAuction[_tokenId];\n    }\n\n    /// @dev Returns true if the NFT is on auction.\n    /// @param _auction - Auction to check.\n    function _isOnAuction(Auction storage _auction) internal view returns (bool) {\n        return (_auction.startedAt > 0);\n    }\n\n    /// @dev Returns current price of an NFT on auction. Broken into two\n    ///  functions (this one, that computes the duration from the auction\n    ///  structure, and the other that does the price computation) so we\n    ///  can easily test that the price computation works correctly.\n    function _currentPrice(Auction storage _auction)\n        internal\n        view\n        returns (uint256)\n    {\n        uint256 secondsPassed = 0;\n\n        // A bit of insurance against negative values (or wraparound).\n        // Probably not necessary (since Ethereum guarnatees that the\n        // now variable doesn't ever go backwards).\n        if (now > _auction.startedAt) {\n            secondsPassed = now - _auction.startedAt;\n        }\n\n        return _computeCurrentPrice(\n            _auction.startingPrice,\n            _auction.endingPrice,\n            _auction.duration,\n            secondsPassed\n        );\n    }\n\n    /// @dev Computes the current price of an auction. Factored out\n    ///  from _currentPrice so we can run extensive unit tests.\n    ///  When testing, make this function public and turn on\n    ///  `Current price computation` test suite.\n    function _computeCurrentPrice(\n        uint256 _startingPrice,\n        uint256 _endingPrice,\n        uint256 _duration,\n        uint256 _secondsPassed\n    )\n        internal\n        pure\n        returns (uint256)\n    {\n        // NOTE: We don't use SafeMath (or similar) in this function because\n        //  all of our public functions carefully cap the maximum values for\n        //  time (at 64-bits) and currency (at 128-bits). _duration is\n        //  also known to be non-zero (see the require() statement in\n        //  _addAuction())\n        if (_secondsPassed >= _duration) {\n            // We've reached the end of the dynamic pricing portion\n            // of the auction, just return the end price.\n            return _endingPrice;\n        } else {\n            // Starting price can be higher than ending price (and often is!), so\n            // this delta can be negative.\n            int256 totalPriceChange = int256(_endingPrice) - int256(_startingPrice);\n\n            // This multiplication can't overflow, _secondsPassed will easily fit within\n            // 64-bits, and totalPriceChange will easily fit within 128-bits, their product\n            // will always fit within 256-bits.\n            int256 currentPriceChange = totalPriceChange * int256(_secondsPassed) / int256(_duration);\n\n            // currentPriceChange can be negative, but if so, will have a magnitude\n            // less that _startingPrice. Thus, this result will always end up positive.\n            int256 currentPrice = int256(_startingPrice) + currentPriceChange;\n\n            return uint256(currentPrice);\n        }\n    }\n\n    /// @dev Computes owner's cut of a sale.\n    /// @param _price - Sale price of NFT.\n    function _computeCut(uint256 _price) internal view returns (uint256) {\n        // NOTE: We don't use SafeMath (or similar) in this function because\n        //  all of our entry functions carefully cap the maximum values for\n        //  currency (at 128-bits), and ownerCut <= 10000 (see the require()\n        //  statement in the ClockAuction constructor). The result of this\n        //  function is always guaranteed to be <= _price.\n        return _price * ownerCut / 10000;\n    }\n\n}\n\n\n\n\n\n\n\n/**\n * @title Pausable\n * @dev Base contract which allows children to implement an emergency stop mechanism.\n */\ncontract Pausable is Ownable {\n  event Pause();\n  event Unpause();\n\n  bool public paused = false;\n\n\n  /**\n   * @dev modifier to allow actions only when the contract IS paused\n   */\n  modifier whenNotPaused() {\n    require(!paused);\n    _;\n  }\n\n  /**\n   * @dev modifier to allow actions only when the contract IS NOT paused\n   */\n  modifier whenPaused {\n    require(paused);\n    _;\n  }\n\n  /**\n   * @dev called by the owner to pause, triggers stopped state\n   */\n  function pause() onlyOwner whenNotPaused returns (bool) {\n    paused = true;\n    Pause();\n    return true;\n  }\n\n  /**\n   * @dev called by the owner to unpause, returns to normal state\n   */\n  function unpause() onlyOwner whenPaused returns (bool) {\n    paused = false;\n    Unpause();\n    return true;\n  }\n}\n\n\n/// @title Clock auction for non-fungible tokens.\n/// @notice We omit a fallback function to prevent accidental sends to this contract.\ncontract ClockAuction is Pausable, ClockAuctionBase {\n\n    /// @dev The ERC-165 interface signature for ERC-721.\n    ///  Ref: https://github.com/ethereum/EIPs/issues/165\n    ///  Ref: https://github.com/ethereum/EIPs/issues/721\n    bytes4 constant InterfaceSignature_ERC721 = bytes4(0x9a20483d);\n\n    /// @dev Constructor creates a reference to the NFT ownership contract\n    ///  and verifies the owner cut is in the valid range.\n    /// @param _nftAddress - address of a deployed contract implementing\n    ///  the Nonfungible Interface.\n    /// @param _cut - percent cut the owner takes on each auction, must be\n    ///  between 0-10,000.\n    function ClockAuction(address _nftAddress, uint256 _cut) public {\n        require(_cut <= 10000);\n        ownerCut = _cut;\n\n        ERC721 candidateContract = ERC721(_nftAddress);\n        require(candidateContract.supportsInterface(InterfaceSignature_ERC721));\n        nonFungibleContract = candidateContract;\n    }\n\n    /// @dev Remove all Ether from the contract, which is the owner's cuts\n    ///  as well as any Ether sent directly to the contract address.\n    ///  Always transfers to the NFT contract, but can be called either by\n    ///  the owner or the NFT contract.\n    function withdrawBalance() external {\n        address nftAddress = address(nonFungibleContract);\n\n        require(\n            msg.sender == owner ||\n            msg.sender == nftAddress\n        );\n        // We are using this boolean method to make sure that even if one fails it will still work\n        bool res = nftAddress.send(this.balance);\n    }\n\n    /// @dev Creates and begins a new auction.\n    /// @param _tokenId - ID of token to auction, sender must be owner.\n    /// @param _startingPrice - Price of item (in wei) at beginning of auction.\n    /// @param _endingPrice - Price of item (in wei) at end of auction.\n    /// @param _duration - Length of time to move between starting\n    ///  price and ending price (in seconds).\n    /// @param _seller - Seller, if not the message sender\n    function createAuction(\n        uint256 _tokenId,\n        uint256 _startingPrice,\n        uint256 _endingPrice,\n        uint256 _duration,\n        address _seller\n    )\n        external\n        whenNotPaused\n    {\n        // Sanity check that no inputs overflow how many bits we've allocated\n        // to store them in the auction struct.\n        require(_startingPrice == uint256(uint128(_startingPrice)));\n        require(_endingPrice == uint256(uint128(_endingPrice)));\n        require(_duration == uint256(uint64(_duration)));\n\n        require(_owns(msg.sender, _tokenId));\n        _escrow(msg.sender, _tokenId);\n        Auction memory auction = Auction(\n            _seller,\n            uint128(_startingPrice),\n            uint128(_endingPrice),\n            uint64(_duration),\n            uint64(now)\n        );\n        _addAuction(_tokenId, auction);\n    }\n\n    /// @dev Bids on an open auction, completing the auction and transferring\n    ///  ownership of the NFT if enough Ether is supplied.\n    /// @param _tokenId - ID of token to bid on.\n    function bid(uint256 _tokenId)\n        external\n        payable\n        whenNotPaused\n    {\n        // _bid will throw if the bid or funds transfer fails\n        _bid(_tokenId, msg.value);\n        _transfer(msg.sender, _tokenId);\n    }\n\n    /// @dev Cancels an auction that hasn't been won yet.\n    ///  Returns the NFT to original owner.\n    /// @notice This is a state-modifying function that can\n    ///  be called while the contract is paused.\n    /// @param _tokenId - ID of token on auction\n    function cancelAuction(uint256 _tokenId)\n        external\n    {\n        Auction storage auction = tokenIdToAuction[_tokenId];\n        require(_isOnAuction(auction));\n        address seller = auction.seller;\n        require(msg.sender == seller);\n        _cancelAuction(_tokenId, seller);\n    }\n\n    /// @dev Cancels an auction when the contract is paused.\n    ///  Only the owner may do this, and NFTs are returned to\n    ///  the seller. This should only be used in emergencies.\n    /// @param _tokenId - ID of the NFT on auction to cancel.\n    function cancelAuctionWhenPaused(uint256 _tokenId)\n        whenPaused\n        onlyOwner\n        external\n    {\n        Auction storage auction = tokenIdToAuction[_tokenId];\n        require(_isOnAuction(auction));\n        _cancelAuction(_tokenId, auction.seller);\n    }\n\n    /// @dev Returns auction info for an NFT on auction.\n    /// @param _tokenId - ID of NFT on auction.\n    function getAuction(uint256 _tokenId)\n        external\n        view\n        returns\n    (\n        address seller,\n        uint256 startingPrice,\n        uint256 endingPrice,\n        uint256 duration,\n        uint256 startedAt\n    ) {\n        Auction storage auction = tokenIdToAuction[_tokenId];\n        require(_isOnAuction(auction));\n        return (\n            auction.seller,\n            auction.startingPrice,\n            auction.endingPrice,\n            auction.duration,\n            auction.startedAt\n        );\n    }\n\n    /// @dev Returns the current price of an auction.\n    /// @param _tokenId - ID of the token price we are checking.\n    function getCurrentPrice(uint256 _tokenId)\n        external\n        view\n        returns (uint256)\n    {\n        Auction storage auction = tokenIdToAuction[_tokenId];\n        require(_isOnAuction(auction));\n        return _currentPrice(auction);\n    }\n\n}\n\n\n/// @title Reverse auction modified for siring\n/// @notice We omit a fallback function to prevent accidental sends to this contract.\ncontract SiringClockAuction is ClockAuction {\n\n    // @dev Sanity check that allows us to ensure that we are pointing to the\n    //  right auction in our setSiringAuctionAddress() call.\n    bool public isSiringClockAuction = true;\n\n    // Delegate constructor\n    function SiringClockAuction(address _nftAddr, uint256 _cut) public\n        ClockAuction(_nftAddr, _cut) {}\n\n    /// @dev Creates and begins a new auction. Since this function is wrapped,\n    /// require sender to be KittyCore contract.\n    /// @param _tokenId - ID of token to auction, sender must be owner.\n    /// @param _startingPrice - Price of item (in wei) at beginning of auction.\n    /// @param _endingPrice - Price of item (in wei) at end of auction.\n    /// @param _duration - Length of auction (in seconds).\n    /// @param _seller - Seller, if not the message sender\n    function createAuction(\n        uint256 _tokenId,\n        uint256 _startingPrice,\n        uint256 _endingPrice,\n        uint256 _duration,\n        address _seller\n    )\n        external\n    {\n        // Sanity check that no inputs overflow how many bits we've allocated\n        // to store them in the auction struct.\n        require(_startingPrice == uint256(uint128(_startingPrice)));\n        require(_endingPrice == uint256(uint128(_endingPrice)));\n        require(_duration == uint256(uint64(_duration)));\n\n        require(msg.sender == address(nonFungibleContract));\n        _escrow(_seller, _tokenId);\n        Auction memory auction = Auction(\n            _seller,\n            uint128(_startingPrice),\n            uint128(_endingPrice),\n            uint64(_duration),\n            uint64(now)\n        );\n        _addAuction(_tokenId, auction);\n    }\n\n    /// @dev Places a bid for siring. Requires the sender\n    /// is the KittyCore contract because all bid methods\n    /// should be wrapped. Also returns the kitty to the\n    /// seller rather than the winner.\n    function bid(uint256 _tokenId)\n        external\n        payable\n    {\n        require(msg.sender == address(nonFungibleContract));\n        address seller = tokenIdToAuction[_tokenId].seller;\n        // _bid checks that token ID is valid and will throw if bid fails\n        _bid(_tokenId, msg.value);\n        // We transfer the kitty back to the seller, the winner will get\n        // the offspring\n        _transfer(seller, _tokenId);\n    }\n\n}\n\n\n\n\n\n/// @title Clock auction modified for sale of kitties\n/// @notice We omit a fallback function to prevent accidental sends to this contract.\ncontract SaleClockAuction is ClockAuction {\n\n    // @dev Sanity check that allows us to ensure that we are pointing to the\n    //  right auction in our setSaleAuctionAddress() call.\n    bool public isSaleClockAuction = true;\n\n    // Tracks last 5 sale price of gen0 kitty sales\n    uint256 public gen0SaleCount;\n    uint256[5] public lastGen0SalePrices;\n\n    // Delegate constructor\n    function SaleClockAuction(address _nftAddr, uint256 _cut) public\n        ClockAuction(_nftAddr, _cut) {}\n\n    /// @dev Creates and begins a new auction.\n    /// @param _tokenId - ID of token to auction, sender must be owner.\n    /// @param _startingPrice - Price of item (in wei) at beginning of auction.\n    /// @param _endingPrice - Price of item (in wei) at end of auction.\n    /// @param _duration - Length of auction (in seconds).\n    /// @param _seller - Seller, if not the message sender\n    function createAuction(\n        uint256 _tokenId,\n        uint256 _startingPrice,\n        uint256 _endingPrice,\n        uint256 _duration,\n        address _seller\n    )\n        external\n    {\n        // Sanity check that no inputs overflow how many bits we've allocated\n        // to store them in the auction struct.\n        require(_startingPrice == uint256(uint128(_startingPrice)));\n        require(_endingPrice == uint256(uint128(_endingPrice)));\n        require(_duration == uint256(uint64(_duration)));\n\n        require(msg.sender == address(nonFungibleContract));\n        _escrow(_seller, _tokenId);\n        Auction memory auction = Auction(\n            _seller,\n            uint128(_startingPrice),\n            uint128(_endingPrice),\n            uint64(_duration),\n            uint64(now)\n        );\n        _addAuction(_tokenId, auction);\n    }\n\n    /// @dev Updates lastSalePrice if seller is the nft contract\n    /// Otherwise, works the same as default bid method.\n    function bid(uint256 _tokenId)\n        external\n        payable\n    {\n        // _bid verifies token ID size\n        address seller = tokenIdToAuction[_tokenId].seller;\n        uint256 price = _bid(_tokenId, msg.value);\n        _transfer(msg.sender, _tokenId);\n\n        // If not a gen0 auction, exit\n        if (seller == address(nonFungibleContract)) {\n            // Track gen0 sale prices\n            lastGen0SalePrices[gen0SaleCount % 5] = price;\n            gen0SaleCount++;\n        }\n    }\n\n    function averageGen0SalePrice() external view returns (uint256) {\n        uint256 sum = 0;\n        for (uint256 i = 0; i < 5; i++) {\n            sum += lastGen0SalePrices[i];\n        }\n        return sum / 5;\n    }\n\n}\n\n\n/// @title Handles creating auctions for sale and siring of kitties.\n///  This wrapper of ReverseAuction exists only so that users can create\n///  auctions with only one transaction.\ncontract KittyAuction is KittyBreeding {\n\n    // @notice The auction contract variables are defined in KittyBase to allow\n    //  us to refer to them in KittyOwnership to prevent accidental transfers.\n    // `saleAuction` refers to the auction for gen0 and p2p sale of kitties.\n    // `siringAuction` refers to the auction for siring rights of kitties.\n\n    /// @dev Sets the reference to the sale auction.\n    /// @param _address - Address of sale contract.\n    function setSaleAuctionAddress(address _address) external onlyCEO {\n        SaleClockAuction candidateContract = SaleClockAuction(_address);\n\n        // NOTE: verify that a contract is what we expect - https://github.com/Lunyr/crowdsale-contracts/blob/cfadd15986c30521d8ba7d5b6f57b4fefcc7ac38/contracts/LunyrToken.sol#L117\n        require(candidateContract.isSaleClockAuction());\n\n        // Set the new contract address\n        saleAuction = candidateContract;\n    }\n\n    /// @dev Sets the reference to the siring auction.\n    /// @param _address - Address of siring contract.\n    function setSiringAuctionAddress(address _address) external onlyCEO {\n        SiringClockAuction candidateContract = SiringClockAuction(_address);\n\n        // NOTE: verify that a contract is what we expect - https://github.com/Lunyr/crowdsale-contracts/blob/cfadd15986c30521d8ba7d5b6f57b4fefcc7ac38/contracts/LunyrToken.sol#L117\n        require(candidateContract.isSiringClockAuction());\n\n        // Set the new contract address\n        siringAuction = candidateContract;\n    }\n\n    /// @dev Put a kitty up for auction.\n    ///  Does some ownership trickery to create auctions in one tx.\n    function createSaleAuction(\n        uint256 _kittyId,\n        uint256 _startingPrice,\n        uint256 _endingPrice,\n        uint256 _duration\n    )\n        external\n        whenNotPaused\n    {\n        // Auction contract checks input sizes\n        // If kitty is already on any auction, this will throw\n        // because it will be owned by the auction contract.\n        require(_owns(msg.sender, _kittyId));\n        // Ensure the kitty is not pregnant to prevent the auction\n        // contract accidentally receiving ownership of the child.\n        // NOTE: the kitty IS allowed to be in a cooldown.\n        require(!isPregnant(_kittyId));\n        _approve(_kittyId, saleAuction);\n        // Sale auction throws if inputs are invalid and clears\n        // transfer and sire approval after escrowing the kitty.\n        saleAuction.createAuction(\n            _kittyId,\n            _startingPrice,\n            _endingPrice,\n            _duration,\n            msg.sender\n        );\n    }\n\n    /// @dev Put a kitty up for auction to be sire.\n    ///  Performs checks to ensure the kitty can be sired, then\n    ///  delegates to reverse auction.\n    function createSiringAuction(\n        uint256 _kittyId,\n        uint256 _startingPrice,\n        uint256 _endingPrice,\n        uint256 _duration\n    )\n        external\n        whenNotPaused\n    {\n        // Auction contract checks input sizes\n        // If kitty is already on any auction, this will throw\n        // because it will be owned by the auction contract.\n        require(_owns(msg.sender, _kittyId));\n        require(isReadyToBreed(_kittyId));\n        _approve(_kittyId, siringAuction);\n        // Siring auction throws if inputs are invalid and clears\n        // transfer and sire approval after escrowing the kitty.\n        siringAuction.createAuction(\n            _kittyId,\n            _startingPrice,\n            _endingPrice,\n            _duration,\n            msg.sender\n        );\n    }\n\n    /// @dev Completes a siring auction by bidding.\n    ///  Immediately breeds the winning matron with the sire on auction.\n    /// @param _sireId - ID of the sire on auction.\n    /// @param _matronId - ID of the matron owned by the bidder.\n    function bidOnSiringAuction(\n        uint256 _sireId,\n        uint256 _matronId\n    )\n        external\n        payable\n        whenNotPaused\n    {\n        // Auction contract checks input sizes\n        require(_owns(msg.sender, _matronId));\n        require(isReadyToBreed(_matronId));\n        require(_canBreedWithViaAuction(_matronId, _sireId));\n\n        // Define the current price of the auction.\n        uint256 currentPrice = siringAuction.getCurrentPrice(_sireId);\n        require(msg.value >= currentPrice + autoBirthFee);\n\n        // Siring auction will throw if the bid fails.\n        siringAuction.bid.value(msg.value - autoBirthFee)(_sireId);\n        _breedWith(uint32(_matronId), uint32(_sireId));\n    }\n\n    /// @dev Transfers the balance of the sale auction contract\n    /// to the KittyCore contract. We use two-step withdrawal to\n    /// prevent two transfer calls in the auction bid function.\n    function withdrawAuctionBalances() external onlyCLevel {\n        saleAuction.withdrawBalance();\n        siringAuction.withdrawBalance();\n    }\n}\n\n\n/// @title all functions related to creating kittens\ncontract KittyMinting is KittyAuction {\n\n    // Limits the number of cats the contract owner can ever create.\n    uint256 public constant PROMO_CREATION_LIMIT = 5000;\n    uint256 public constant GEN0_CREATION_LIMIT = 45000;\n\n    // Constants for gen0 auctions.\n    uint256 public constant GEN0_STARTING_PRICE = 10 finney;\n    uint256 public constant GEN0_AUCTION_DURATION = 1 days;\n\n    // Counts the number of cats the contract owner has created.\n    uint256 public promoCreatedCount;\n    uint256 public gen0CreatedCount;\n\n    /// @dev we can create promo kittens, up to a limit. Only callable by COO\n    /// @param _genes the encoded genes of the kitten to be created, any value is accepted\n    /// @param _owner the future owner of the created kittens. Default to contract COO\n    function createPromoKitty(uint256 _genes, address _owner) external onlyCOO {\n        address kittyOwner = _owner;\n        if (kittyOwner == address(0)) {\n             kittyOwner = cooAddress;\n        }\n        require(promoCreatedCount < PROMO_CREATION_LIMIT);\n\n        promoCreatedCount++;\n        _createKitty(0, 0, 0, _genes, kittyOwner);\n    }\n\n    /// @dev Creates a new gen0 kitty with the given genes and\n    ///  creates an auction for it.\n    function createGen0Auction(uint256 _genes) external onlyCOO {\n        require(gen0CreatedCount < GEN0_CREATION_LIMIT);\n\n        uint256 kittyId = _createKitty(0, 0, 0, _genes, address(this));\n        _approve(kittyId, saleAuction);\n\n        saleAuction.createAuction(\n            kittyId,\n            _computeNextGen0Price(),\n            0,\n            GEN0_AUCTION_DURATION,\n            address(this)\n        );\n\n        gen0CreatedCount++;\n    }\n\n    /// @dev Computes the next gen0 auction starting price, given\n    ///  the average of the past 5 prices + 50%.\n    function _computeNextGen0Price() internal view returns (uint256) {\n        uint256 avePrice = saleAuction.averageGen0SalePrice();\n\n        // Sanity check to ensure we don't overflow arithmetic\n        require(avePrice == uint256(uint128(avePrice)));\n\n        uint256 nextPrice = avePrice + (avePrice / 2);\n\n        // We never auction for less than starting price\n        if (nextPrice < GEN0_STARTING_PRICE) {\n            nextPrice = GEN0_STARTING_PRICE;\n        }\n\n        return nextPrice;\n    }\n}\n\n\n/// @title CryptoKitties: Collectible, breedable, and oh-so-adorable cats on the Ethereum blockchain.\n/// @author Axiom Zen (https://www.axiomzen.co)\n/// @dev The main CryptoKitties contract, keeps track of kittens so they don't wander around and get lost.\ncontract KittyCore is KittyMinting {\n\n    // This is the main CryptoKitties contract. In order to keep our code seperated into logical sections,\n    // we've broken it up in two ways. First, we have several seperately-instantiated sibling contracts\n    // that handle auctions and our super-top-secret genetic combination algorithm. The auctions are\n    // seperate since their logic is somewhat complex and there's always a risk of subtle bugs. By keeping\n    // them in their own contracts, we can upgrade them without disrupting the main contract that tracks\n    // kitty ownership. The genetic combination algorithm is kept seperate so we can open-source all of\n    // the rest of our code without making it _too_ easy for folks to figure out how the genetics work.\n    // Don't worry, I'm sure someone will reverse engineer it soon enough!\n    //\n    // Secondly, we break the core contract into multiple files using inheritence, one for each major\n    // facet of functionality of CK. This allows us to keep related code bundled together while still\n    // avoiding a single giant file with everything in it. The breakdown is as follows:\n    //\n    //      - KittyBase: This is where we define the most fundamental code shared throughout the core\n    //             functionality. This includes our main data storage, constants and data types, plus\n    //             internal functions for managing these items.\n    //\n    //      - KittyAccessControl: This contract manages the various addresses and constraints for operations\n    //             that can be executed only by specific roles. Namely CEO, CFO and COO.\n    //\n    //      - KittyOwnership: This provides the methods required for basic non-fungible token\n    //             transactions, following the draft ERC-721 spec (https://github.com/ethereum/EIPs/issues/721).\n    //\n    //      - KittyBreeding: This file contains the methods necessary to breed cats together, including\n    //             keeping track of siring offers, and relies on an external genetic combination contract.\n    //\n    //      - KittyAuctions: Here we have the public methods for auctioning or bidding on cats or siring\n    //             services. The actual auction functionality is handled in two sibling contracts (one\n    //             for sales and one for siring), while auction creation and bidding is mostly mediated\n    //             through this facet of the core contract.\n    //\n    //      - KittyMinting: This final facet contains the functionality we use for creating new gen0 cats.\n    //             We can make up to 5000 \"promo\" cats that can be given away (especially important when\n    //             the community is new), and all others can only be created and then immediately put up\n    //             for auction via an algorithmically determined starting price. Regardless of how they\n    //             are created, there is a hard limit of 50k gen0 cats. After that, it's all up to the\n    //             community to breed, breed, breed!\n\n    // Set in case the core contract is broken and an upgrade is required\n    address public newContractAddress;\n\n    /// @notice Creates the main CryptoKitties smart contract instance.\n    function KittyCore() public {\n        // Starts paused.\n        paused = true;\n\n        // the creator of the contract is the initial CEO\n        ceoAddress = msg.sender;\n\n        // the creator of the contract is also the initial COO\n        cooAddress = msg.sender;\n\n        // start with the mythical kitten 0 - so we don't have generation-0 parent issues\n        _createKitty(0, 0, 0, uint256(-1), address(0));\n    }\n\n    /// @dev Used to mark the smart contract as upgraded, in case there is a serious\n    ///  breaking bug. This method does nothing but keep track of the new contract and\n    ///  emit a message indicating that the new address is set. It's up to clients of this\n    ///  contract to update to the new contract address in that case. (This contract will\n    ///  be paused indefinitely if such an upgrade takes place.)\n    /// @param _v2Address new address\n    function setNewAddress(address _v2Address) external onlyCEO whenPaused {\n        // See README.md for updgrade plan\n        newContractAddress = _v2Address;\n        ContractUpgrade(_v2Address);\n    }\n\n    /// @notice No tipping!\n    /// @dev Reject all Ether from being sent here, unless it's from one of the\n    ///  two auction contracts. (Hopefully, we can prevent user accidents.)\n    function() external payable {\n        require(\n            msg.sender == address(saleAuction) ||\n            msg.sender == address(siringAuction)\n        );\n    }\n\n    /// @notice Returns all the relevant information about a specific kitty.\n    /// @param _id The ID of the kitty of interest.\n    function getKitty(uint256 _id)\n        external\n        view\n        returns (\n        bool isGestating,\n        bool isReady,\n        uint256 cooldownIndex,\n        uint256 nextActionAt,\n        uint256 siringWithId,\n        uint256 birthTime,\n        uint256 matronId,\n        uint256 sireId,\n        uint256 generation,\n        uint256 genes\n    ) {\n        Kitty storage kit = kitties[_id];\n\n        // if this variable is 0 then it's not gestating\n        isGestating = (kit.siringWithId != 0);\n        isReady = (kit.cooldownEndBlock <= block.number);\n        cooldownIndex = uint256(kit.cooldownIndex);\n        nextActionAt = uint256(kit.cooldownEndBlock);\n        siringWithId = uint256(kit.siringWithId);\n        birthTime = uint256(kit.birthTime);\n        matronId = uint256(kit.matronId);\n        sireId = uint256(kit.sireId);\n        generation = uint256(kit.generation);\n        genes = kit.genes;\n    }\n\n    /// @dev Override unpause so it requires all external contract addresses\n    ///  to be set before contract can be unpaused. Also, we can't have\n    ///  newContractAddress set either, because then the contract was upgraded.\n    /// @notice This is public rather than external so we can call super.unpause\n    ///  without using an expensive CALL.\n    function unpause() public onlyCEO whenPaused {\n        require(saleAuction != address(0));\n        require(siringAuction != address(0));\n        require(geneScience != address(0));\n        require(newContractAddress == address(0));\n\n        // Actually unpause the contract.\n        super.unpause();\n    }\n\n    // @dev Allows the CFO to capture the balance available to the contract.\n    function withdrawBalance() external onlyCFO {\n        uint256 balance = this.balance;\n        // Subtract all the currently pregnant kittens we have, plus 1 of margin.\n        uint256 subtractFees = (pregnantKitties + 1) * autoBirthFee;\n\n        if (balance > subtractFees) {\n            cfoAddress.send(balance - subtractFees);\n        }\n    }\n}",
  "sourcePath": "/Users/thomas/Code/Learn/truehodler/contracts/TrueHodler.sol",
  "compiler": {
    "name": "solc",
    "version": "0.4.21+commit.dfe3193c.Emscripten.clang"
  },
  "schemaVersion": "2.0.0",
  "updatedAt": "2018-04-22T02:39:29.700Z"
}